:100000000C9458020C9468320C9477020C9477028A
:100010000C9477020C9477020C9477020C9477027C
:100020000C94DC0B0C9496320C9477020C947702AF
:100030000C9477020C941F300C9477020C941F30B0
:100040000C9477020C9452300C9477020C94770243
:100050000C9477020C9477020C9477020C9477023C
:100060000C9477020C9477020C9477020C9477022C
:100070000C9477020C9477020C9477020C9477021C
:100080000C945C300C9477020C9477020C947702F9
:100090000C94E61B0C9477020C9477020C94770274
:1000A0000C9477020C9477020C9477020C947702EC
:1000B0000C9477020C9477020C9477020C947702DC
:1000C0000C9477020C9477020C94770245204B2015
:1000D0004E205120542057205D205A20602063205C
:1000E00066206F207220752078206C2042204820E6
:1000F0007B207E2069204661696C656420746F20D6
:100100006C6F6164206D792041444320647269768C
:1001100065720D0A005478207461736B2073656EEC
:10012000742064617461210D0A00545820646F6E5C
:1001300065207369676E616C206572726F720D0A5B
:10014000005478207061636B657420656E7175650D
:100150007565640D0A004661696C656420746F20E2
:100160007265676973746572207369676E616C0D7F
:100170000A00424D41432054583A20576F6B652086
:100180007570206F6E2077726F6E67207369676E6F
:10019000616C0D0A00424D41432054583A2045728B
:1001A000726F722063616C6C696E67206576656E34
:1001B0007420776169740D0A00424D414320455215
:1001C000524F523A206372656174696E6720656EA2
:1001D00061626C65207369676E616C206661696C31
:1001E00065640D0A00424D4143204552524F523A38
:1001F000206372656174696E672074782073696723
:100200006E616C206661696C65640D0A00424D4147
:1002100043204552524F523A206372656174696EB1
:1002200067207278207369676E616C206661696C03
:1002300065640D0A00434332343230204552524F38
:10024000523A202052656C65617365206F66207399
:10025000656D6170686F7265206661696C65640DBB
:100260000A00434332343230204552524F523A2032
:100270002041636365737320746F2073656D6170D3
:10028000686F7265206661696C65640D0A00554E81
:100290004B4F574E0045787465726E616C20526505
:1002A0007365740042726F776E204F7574204465D9
:1002B00074656374004661696C656420746F2063C3
:1002C00072656174652053656D6170686F72650059
:1002D0004661696C656420746F2063726561746542
:1002E000205369676E616C004B65726E656C2066A9
:1002F000756E6374696F6E206E6F7420696D706CBB
:10030000656D656E74656400446576696365204457
:100310007269766572204572726F720057617463FC
:1003200068646F672052657374617274005357205C
:100330005761746368646F67205265737461727487
:100340000054696D6572204F766572666C6F770038
:10035000556E68616E646C656420496E7465727276
:1003600075707420566563746F72004C6F772056F9
:100370006F6C7461676500457874726120546173B5
:100380006B20737461727465642C206973206E72C3
:100390006B5F6366672E68206F6B3F0049646C6516
:1003A000206F72204B65726E656C20537461636BB5
:1003B000204F766572666C6F7700556E6578706554
:1003C000637465642052657374617274004475705F
:1003D0006C696361746564205461736B20494400E7
:1003E0005363686564756C6572204D6973736564E9
:1003F0002057616B657570005461736B2052657393
:10040000657276652056696F6C617465640052652B
:100410007365727665204572726F7220696E205323
:1004200063686564756C657200496E76616C6964B9
:1004300020537461636B20506F696E746572005451
:1004400061736B20537461636B204F766572666CC9
:100450006F7700537461636B20776173206E6F74E4
:1004600020646566696E6564206173206C617267E3
:100470006520656E6F7567682100293A20002A4E55
:10048000524B204552524F5228000D0A53544143BB
:100490004B2044554D500D0A0045464765666700A0
:1004A000202B2D2E30313233343536373839680031
:1004B00011241FBECFEFD1E2DEBFCDBF13E0A0E01D
:1004C000B2E0EAECFDE700E00BBF02C007900D923E
:1004D000A83AB107D9F717E0A8EAB3E001C01D9226
:1004E000AC39B107E1F70E94C5030C94E43E0C94CB
:1004F0008A3061E086EF98E00E943C2E8F3F21F425
:1005000086EF90E00E94D31B089582EE92E09093D4
:10051000FE058093FD0583E795E09093FA058093AF
:10052000F90584E794E09093FC058093FB0582E055
:100530008093000681E08093FF05809301068093FD
:1005400002061092030610920406109205061092FD
:10055000060680E892EBA6EEBEE080930706909335
:100560000806A0930906B0930A0681E090E0A0E097
:10057000B0E080930B0690930C06A0930D06B09309
:100580000E0680E095E6ADECBDE180930F069093FA
:100590001006A0931106B093120610921306109243
:1005A0001406109215061092160610921706109255
:1005B00018061092190610921A0688EF95E00E940C
:1005C0000D2808952F923F924F925F926F927F92E3
:1005D0008F929F92AF92BF92CF92DF92EF92FF9253
:1005E0000F931F93CF93DF93CDB7DEB728970FB646
:1005F000F894DEBF0FBECDBF89E10E94A4060E9421
:100600001B2699279F938F9380E092E09F938F936F
:100610000E945B3C0F900F900F900F9002C00E94C1
:10062000CF270E9481048823D1F30E941D06182F32
:100630000E949B2265E081E00E94592E082F34E839
:10064000A32E35E0B32E21E0622E712C812C912C4B
:100650007401630104C0CC0CDD1CEE1CFF1C1A9558
:10066000D2F79AE2292E91E0392E85E1482E81E0D9
:10067000582E40E061E0802F0E94CC2E42E0BE0167
:10068000695F7F4F802F0E94EE2E42E061E0802F55
:100690000E94CC2E44E0BE016F5F7F4F802F0E94EE
:1006A000EE2E45E061E0802F0E94CC2E44E0BE019A
:1006B0006D5F7F4F802F0E94EE2E46E061E0802F1D
:1006C0000E94CC2E44E0BE016B5F7F4F802F0E94C2
:1006D000EE2E8D819E819F938F938B819C819F9322
:1006E0008F9389819A819F938F9381E192E09F9369
:1006F0008F93BF92AF920E94723CBF92AF92E1E2A1
:10070000F2E0FF93EF930E945B3C81E090E00E9457
:10071000251BF50101900020E9F73197E458F540D9
:100720006E2FC5010E94190481E491E00E94D31B41
:10073000C701B6010E94F52420E030E040E050E01F
:10074000EDB7FEB73E960FB6F894FEBF0FBEEDBFF5
:10075000C114D104E104F10411F4A401930126238E
:10076000372348235923211531054105510519F037
:10077000C1010E94D31BC2010E94D31B81E090E003
:100780000E94081B0E94CF2774CFCFEFD1E2DEBFBB
:10079000CDBF0E945F1787E090E00E949D1B0E94E2
:1007A000491E80E090E00E94081B81E090E00E94DA
:1007B000081B82E090E00E94081B83E090E00E940A
:1007C000081B20E030E040E050E060E070E080E0B6
:1007D00090E00E9471290E94AA040E9479020E945E
:1007E00085020E94E91D80E090E00C94E43E0895AB
:1007F0008FEF9FEF089580E090E008959093770544
:100800008093760581E090E0089580935D040895DB
:10081000009719F48FEF9FEF08959093210680932E
:10082000200660931F0681E08093500481E090E0F1
:1008300008959C0180914F04813019F48FEF9FEF50
:10084000089581E080934F0430937A0520937905D1
:100850006093780581E090E0089520E030E0809199
:100860005004882311F421E030E0C901089581E0AB
:100870008093500481E090E00895CF93DF93CDB74B
:10088000DEB728970FB6F894DEBF0FBECDBF298321
:100890003A834B835C836D837E838F8398872D811E
:1008A0003E814F81588589819A81AB81BC810097B7
:1008B000A105B10559F420306DE2360761E3460722
:1008C00061E0560718F48FEF9FEF12C08093550434
:1008D00090935604A0935704B0935804209359045E
:1008E00030935A0440935B0450935C0481E090E0A1
:1008F00028960FB6F894DEBF0FBECDBFDF91CF9123
:10090000089580915104992787FD909508958091CD
:100910004B0490914C04089510924B0410924C0497
:1009200010924D0410924E0481E090E008958230C0
:1009300018F481E090E00895883008F086E091E0B6
:1009400020E030E0990F2F5F3F4F2817D8F3892F11
:10095000992708950F931F9308EA13E06FEC77E04F
:10096000C8010E94063340E850E06BEC73E0C80118
:100970000E94673384E18093B00381E08093AF03EA
:100980008093B1038093B2031092B3031092B40327
:100990001092B5031092B60380E09DE2A1E3B1E0AE
:1009A0008093B7039093B803A093B903B093BA03AD
:1009B00085E090E0A0E0B0E08093BB039093BC039F
:1009C000A093BD03B093BE031092BF031092C00367
:1009D0001092C1031092C2031092C3031092C40379
:1009E0001092C5031092C6031092C7031092C80359
:1009F0001092C9031092CA03C8010E940D281F91CA
:100A00000F9108951F930E94D3108AEF90E00E94E7
:100A1000552F89B1992724E0969587952A95E1F776
:100A2000182F117080FF02C00E94BA10812F9927E1
:100A30001F910895EF92FF920F931F93CF93DF932F
:100A400080915D04882309F44AC085E594E00E9402
:100A500082298C010E94C53B6AE070E00E94493EF9
:100A6000BC016F5F7F4FC8010E94353ECB010E94E1
:100A70003A27FF24F394C5E5D4E00E940205E82E4E
:100A80000E94BA1081E0E81651F10E94C53B8C012A
:100A90008F2D0E949704682F7727C8010E94493E36
:100AA00099270E949C27CE010E9482298C010E94D6
:100AB000C53B6AE070E00E94493EBC016F5F7F4F1A
:100AC000C8010E94353ECB010E943A27EE2039F43E
:100AD000F39486E08F1588F636E0F32ECECF0E9491
:100AE000030E0E94BA0D2091550430915604409196
:100AF0005704509158046091590470915A048091A0
:100B00005B0490915C040E942C260E94A60D0E941A
:100B1000CE0D0E94BA1086E795E00E9442118093A4
:100B200052040E94BA1010924F048091A5060E94B0
:100B3000A32381E090E0DF91CF911F910F91FF906F
:100B4000EF9008950F931F93609153048BE196E00B
:100B50000E94BF150E94D31010E026C01F5F209195
:100B600055043091560440915704509158046091B7
:100B7000590470915A0480915B0490915C040E9426
:100B80002C26133089F480914B0490914C04A09151
:100B90004D04B0914E048F3F2FEF920720E0A20743
:100BA00020E0B20700F514C00E94350B8823B1F293
:100BB0001DC01F5F84E690E00E94552F1333B9F4E7
:100BC00080914B0490914C04A0914D04B0914E043F
:100BD0000196A11DB11D80934B0490934C04A093EA
:100BE0004D04B0934E040E94BA1022C010E00E943F
:100BF000630E082F8823E9F20E94BA10013029F40D
:100C00001092500481E090E015C080914B049091C7
:100C10004C04A0914D04B0914E040196A11DB11D4C
:100C200080934B0490934C04A0934D04B0934E04D6
:100C300080E090E01F910F9108958091A5060E9499
:100C40009B228091A506992787FD90950895809114
:100C500081050E949B2280918105992787FD9095AF
:100C60000895EF92FF920F931F938C01F62E8091BF
:100C70004F04813009F43FC08091A5060E949B2259
:100C800081E080934F0410937A0500937905F092E8
:100C9000780561E070E080E090E00090A50604C077
:100CA000660F771F881F991F0A94D2F70E94F524B8
:100CB0007B018C01611571058105910521F485E9A0
:100CC00091E00E94D31BD801C7010090A50604C083
:100CD000B695A795979587950A94D2F780FD04C09D
:100CE00082E791E00E94D31B80915204882319F07F
:100CF00081E090E002C08FEF9FEF1F910F91FF9076
:100D0000EF90089581E0809354040E94B115809182
:100D100075050E94A3230895109254040E941F0A8F
:100D20000895682F8B3118F08FEF9FEF089580930F
:100D3000530420E030E04FEF5FEF8BE196E00E943C
:100D4000FC1581E090E008951F93182F1092510434
:100D50008FEF80935E0481E080935D0410924B04DA
:100D600010924C0410924D0410924E0410925504AF
:100D700010925604109257041092580480E091EE9D
:100D8000A5EFB5E08093590490935A04A0935B04B7
:100D9000B0935C040E941222809381058F3F19F466
:100DA0008DE092E008C00E9412228093A5068F3F3A
:100DB00079F485EE91E00E94D31BE0916707F091F2
:100DC000680760858EE00E94D1208FEF9FEF5BC0A7
:100DD0000E941222809375058F3F19F489EB91E0F0
:100DE000EACF10924F0410925004109221061092F4
:100DF000200610921F0620E030E04FEF5FEF612FDA
:100E00008BE196E00E94FC1510935304409883E117
:100E10008EBD0DB407FEFDCF85EE8EBD0DB407FE71
:100E2000FDCF80E88EBD0DB407FEFDCF409A4098FF
:100E300085E18EBD0DB407FEFDCF80E88EBD0DB4FB
:100E400007FEFDCF8FEF8EBD0DB407FEFDCF409A9C
:100E5000409887E18EBD0DB407FEFDCF8AE08EBDC0
:100E60000DB407FEFDCF86E58EBD0DB407FEFDCFA8
:100E7000409A83ED0E943A0E81E080935104809362
:100E8000540481E090E01F9108950E943A0E81E0A1
:100E900090E00895803218F08FEF9FEF08950E9440
:100EA0001B1181E090E008950E94A10A81E090E08A
:100EB00008950E947B0A81E090E00895603119F066
:100EC0008FEF9FEF08950E94C41481E090E0089591
:100ED0000E94300A992787FD909508950E948914F1
:100EE00081E090E008950E94BA0A81E090E00895C0
:100EF0000E94D50A81E090E008950E94F00A81E006
:100F000090E008950E940E0B81E090E00895643017
:100F100019F08FEF9FEF08950E94340A81E090E06E
:100F2000089580915004882309F1809181050E94E1
:100F30009B2261E070E080E090E00090810504C0B9
:100F4000660F771F881F991F0A94D2F70E94F52415
:100F50000090810504C096958795779567950A94CA
:100F6000D2F760FD03C08FEF9FEF089581E090E01E
:100F70000895FC01DB0180915004882329F0108240
:100F80001C9280E090E0089580911E0680838091FD
:100F900023068C938091200690912106089502C02B
:100FA0000E94CF27809151048823D1F38091750549
:100FB0000E949B228F3F21F486E591E00E94D31B83
:100FC00080915404882359F180915004813041F478
:100FD0000E940205882341F40E94A205813021F479
:100FE000809181050E94A32380914F04813021F4D8
:100FF0000E94BA100E941A0520915504309156049F
:1010000040915704509158046091590470915A04CA
:1010100080915B0490915C040E942C26D1CF80913A
:1010200075050E949B2261E070E080E090E00090F6
:10103000750504C0660F771F881F991F0A94D2F7A1
:101040000E94F5240090750504C0969587957795C4
:1010500067950A94D2F760FDB3CFE1CFEAE7F0E0FD
:1010600083E08083ACE7B0E080E48C93808180688B
:1010700080831092AC068C91807E8C939C918C9195
:10108000807E892B8C93089588EC90E00E94552FE8
:10109000089580917A00806480937A0080917A002C
:1010A00084FFFCCF0E944408209178003327809170
:1010B00079009927982F8827822B932B0895FF92E8
:1010C0000F931F93CF93DF93CDB7DEB722970FB661
:1010D000F894DEBF0FBECDBF0E94B50A8C01009709
:1010E00011F00E94A124159AFF248F2D8062992768
:1010F0009A83898340988BE18EBD0DB407FEFDCFA6
:1011000089819A81892F99278EBD0DB407FEFDCF65
:1011100089819A818EBD0DB407FEFDCF409A82E091
:1011200090E00E94552F40988BE58EBD0DB407FED0
:10113000FDCF1EBC0DB407FEFDCF8EB59927982FAD
:1011400088279A8389831EBC0DB407FEFDCF898151
:101150009A812EB53327282B392B3A832983409A3D
:1011600089819A8186FD05C0F3942FE1F21609F07A
:10117000BCCF0115110519F0C8010E944F23FF20B3
:10118000C9F40E9449089A83898389819A818F3A98
:10119000910530F089819A818E5A90409A83898393
:1011A00089819A818A54914098F48AE491E09A83E3
:1011B00089830EC02DE7F29E9001112488E293E20C
:1011C000821B930B6BE170E00E94493E7A83698336
:1011D00089819A8122960FB6F894DEBF0FBECDBFEB
:1011E000DF91CF911F910F91FF900895CF92DF92E1
:1011F000EF92FF920F931F93CF93DF93982FEA0103
:10120000122F823009F481C0833030F4882371F0CA
:10121000813009F0D2C010C0843009F481C084301C
:1012200008F477C0853009F0C8C02DC080E880BBC5
:101230008F9A0E942E086AC08091AB06813009F413
:10124000C3C09093AB06772760FF13C08F981092AE
:10125000AC0680917C00807E80937C0090917C0025
:1012600080917C00807E892B80937C0088EE93E0C7
:101270009FC061FDA9C062FDA7C067707070672B39
:1012800009F4A2C097C0822F8150823008F099C023
:101290009091AC06892F8150863018F40E9449083D
:1012A00022C0992319F40E945F081DC0973051F5A0
:1012B000F1E0CF2EF4E0DF2EEE24FF2400E00E94C8
:1012C00049088C159D0508F46C01E816F90608F428
:1012D0007C018DE790E00E94552F0F5F003479F775
:1012E000C7018C199D09123031F48883892F992701
:1012F000898381E008C0113029F4969587959695E9
:101300008795888380E08F5F09C08F9A1092AB0623
:1013100051C0613009F058C08091AC06992756C081
:10132000613009F051C02730D9F42093AC06809188
:101330007C008F7780937C0080917C008064809318
:101340007C0080917C00807E80937C0090917C006A
:1013500080917C009360807E982B90937C0026C0C7
:10136000283020F081E00E94F91E2EC02093AC06A8
:10137000213049F480917C008F7780937C008091AC
:101380007C00806403C080917C00806C80937C0032
:1013900080917C00807E80937C0090917C00809185
:1013A0007C00807E892B812B80937C0088EC90E0F0
:1013B0000E94552F81E090E009C060E08CE00E941F
:1013C000D12080E090E002C08FEF90E0DF91CF91DC
:1013D0001F910F91FF90EF90DF90CF900895992784
:1013E0009C01265A3E4B0B97880F991F880F991F17
:1013F000280F391FF894409888E18EBD0DB407FE80
:10140000FDCF832F99278EBD0DB407FEFDCF2EBDD6
:101410000DB407FEFDCF409A78940895F894409853
:101420001EBC0DB407FEFDCF8EB5409A789486FFA2
:10143000F5CF08959093600480935F040895F89425
:10144000409887E08EBD0DB407FEFDCF409A4098CE
:1014500086E08EBD0DB407FEFDCF409A78940895C6
:101460008091C20699270895CF93DF93DC014098BD
:1014700089EC8EBD0DB407FEFDCF80E88EBD0DB4A6
:1014800007FEFDCF92E09150FD01E90FF11D808133
:101490008EBD0DB407FEFDCF9923A9F7409A409861
:1014A0008BEC8EBD0DB407FEFDCF80E88EBD0DB474
:1014B00007FEFDCF92E09D012E5F3F4FE901915065
:1014C000F901E90FF11D80818EBD0DB407FEFDCF3E
:1014D0009923A1F7409A8C918093C306FD018181E5
:1014E0008093C40688818093C50683818093C60655
:1014F000DF91CF910895409889E18EBD0DB407FE2C
:10150000FDCF83E08EBD0DB407FEFDCF86E08EBD1E
:101510000DB407FEFDCF409A40988AE18EBD0DB410
:1015200007FEFDCF8EE08EBD0DB407FEFDCF8EE031
:101530008EBD0DB407FEFDCF409A81E08093B306C7
:101540000895409889E18EBD0DB407FEFDCF81E07E
:101550008EBD0DB407FEFDCF84EC8EBD0DB407FE2D
:10156000FDCF409A1092B30608958091B1069091F4
:10157000B20608952091B4063091B50638603093D4
:10158000B5062093B406409881E18EBD0DB407FEE8
:10159000FDCF832F99278EBD0DB407FEFDCF2EBD45
:1015A0000DB407FEFDCF409A08952091B406309106
:1015B000B506377F3093B5062093B406409881E195
:1015C0008EBD0DB407FEFDCF832F99278EBD0DB4C0
:1015D00007FEFDCF2EBD0DB407FEFDCF409A089546
:1015E00081E08093C1062091B4063091B506206158
:1015F0003093B5062093B406409881E18EBD0DB4BA
:1016000007FEFDCF832F99278EBD0DB407FEFDCFBA
:101610002EBD0DB407FEFDCF409A08951092C1066D
:101620002091B4063091B5062F7E3093B5062093F5
:10163000B406409881E18EBD0DB407FEFDCF832F27
:1016400099278EBD0DB407FEFDCF2EBD0DB407FE4C
:10165000FDCF409A089589B1992766E096958795C0
:101660006A95E1F78170907008958CB1992787FD94
:1016700090958827990F881F9927089589B19927F0
:10168000E6E096958795EA95E1F781709070089568
:101690008091C706882319F480E090E00895809136
:1016A000C7061092C706992787FD90950895409820
:1016B00088E08EBD0DB407FEFDCF409A409888E0CB
:1016C0008EBD0DB407FEFDCF409A0895409886E088
:1016D0008EBD0DB407FEFDCF409A409882E18EBDCD
:1016E0000DB407FEFDCF85E08EBD0DB407FEFDCF26
:1016F00081E08EBD0DB407FEFDCF409A0E94570BCE
:101700000895409882E18EBD0DB407FEFDCF85E0BF
:101710008EBD0DB407FEFDCF84E08EBD0DB407FE77
:10172000FDCF409A0E94570B0895282F33272F7022
:1017300030708091B4069091B506807F282B392BAC
:101740003093B5062093B406409881E18EBD0DB468
:1017500007FEFDCF832F99278EBD0DB407FEFDCF69
:101760002EBD0DB407FEFDCF409A0895282F3327D4
:1017700023703070B6E0220F331FBA95E1F78091E5
:10178000B4069091B5068F73282B392B3093B5068C
:101790002093B406409881E18EBD0DB407FEFDCFC5
:1017A000832F99278EBD0DB407FEFDCF2EBD0DB43E
:1017B00007FEFDCF409A08951F920F920FB60F9229
:1017C00011242F933F934F935F936F937F938F9346
:1017D0009F93AF93BF93EF93FF93CF93DF93CDB7D7
:1017E000DEB72497DEBFCDBF80E88CBB679B97C177
:1017F000679B1CC031991AC040988FE78EBD0DB40D
:1018000007FEFDCF1EBC0DB407FEFDCF8EB5409A7E
:10181000409888E08EBD0DB407FEFDCF409A4098F9
:1018200088E08EBD0DB407FEFDCF78C140988FE7EC
:101830008EBD0DB407FEFDCF1EBC0DB407FEFDCF5F
:101840004EB5409A4F774C308CF0E091B606F0914F
:10185000B706242F332727FD30952B503040848145
:10186000992787FD909582179307ACF540988FE7ED
:101870008EBD0DB407FEFDCF60E070E0242F33274E
:1018800027FD309506C01EBC0DB407FEFDCF6F5F6F
:101890007F4F862F99278217930714F43199F3CF3E
:1018A000409A40988FE78EBD0DB407FEFDCF1EBC59
:1018B0000DB407FEFDCF8EB5409A409888E08EBDEE
:1018C0000DB407FEFDCF409A409888E08EBD0DB460
:1018D00007FEFDCF23C1E091B606F091B7064C504C
:1018E000438340988FE78EBD0DB407FEFDCFFE0108
:1018F00031969E012D5F3F4F1EBC0DB407FEFDCFFC
:101900008EB58193E217F307B9F7409AE091B606D6
:10191000F091B70689819A8125E0969587952A9559
:10192000E1F78170878340988FE78EBD0DB407FE85
:10193000FDCF1EBC0DB407FEFDCFE091B606F091C1
:10194000B7068EB58083409A40988FE78EBD0DB460
:1019500007FEFDCF80E007C01EBC0DB407FEFDCF23
:101960008F5F843011F03199F7CF409A40988FE71C
:101970008EBD0DB407FEFDCF20E030E01EBC0DB4DF
:1019800007FEFDCFE091B606F091B706E20FF31F18
:101990008EB581832F5F3F4F2230310579F7409A12
:1019A00040988FE78EBD0DB407FEFDCF40E050E0BC
:1019B00011C01EBC0DB407FEFDCFE091B606F0913C
:1019C000B7060580F681E02DE60FF11D8EB5808308
:1019D0004F5F5F4F642FE091B606F091B706242F5A
:1019E00033278381992787FD9095281739070CF3B2
:1019F000409A40988FE78EBD0DB407FC0AC0FCCF1B
:101A00000DB407FEFDCF5EB5409A40988FE78EBDBE
:101A100002C01EBCF5CF0DB407FEFDCFFE0133960C
:101A20009E012B5F3F4F1EBC0DB407FEFDCF8EB550
:101A30008193E217F307B9F7409AE091B606F09167
:101A4000B7068B81808740E020E030E00AC0E0915B
:101A5000B606F091B70685819681A80FB91F8C91C3
:101A6000480F822FE091B606F091B7062F5F3F4FE7
:101A7000A82FBB278381992787FD9095A817B907C1
:101A800034F34517D1F040988FE78EBD0DB407FEB3
:101A9000FDCF1EBC0DB407FEFDCF8EB5409A409819
:101AA00088E08EBD0DB407FEFDCF409A409888E0D7
:101AB0008EBD0DB407FEFDCF31C08C818823A9F007
:101AC000E0915F04F0916004309749F08091B60690
:101AD0009091B70609959093B7068093B6068091CA
:101AE000C7068F5F8093C7061AC040988FE78EBDE8
:101AF0000DB407FEFDCF1EBC0DB407FEFDCF8EB5A5
:101B0000409A409888E08EBD0DB407FEFDCF409A04
:101B1000409888E08EBD0DB407FEFDCF409A249614
:101B2000F894DEBFCDBFDF91CF91FF91EF91BF91D0
:101B3000AF919F918F917F916F915F914F913F9165
:101B40002F910F900FBE0F901F9018958091B106A6
:101B50009091B2060E94A124409886E08EBD0DB4FB
:101B600007FEFDCF409A8091B1069091B2060E9487
:101B70004F2308958091B1069091B2060E94A1244E
:101B8000409884E08EBD0DB407FEFDCF409A809151
:101B9000B1069091B2060E944F2308958091B1063C
:101BA0009091B2060E94A124409886E08EBD0DB4AB
:101BB00007FEFDCF409A409882E18EBD0DB407FE2E
:101BC000FDCF85E08EBD0DB407FEFDCF1EBC0DB46C
:101BD00007FEFDCF409A40988EE28EBD0DB407FE01
:101BE000FDCF1EBC0DB407FEFDCF1EBC0DB407FE1D
:101BF000FDCF409A0E94570B8091B1069091B2069A
:101C00000E944F2308958091B1069091B2060E94E0
:101C1000A124409886E08EBD0DB407FEFDCF409A0A
:101C2000409882E18EBD0DB407FEFDCF85E08EBDEC
:101C30000DB407FEFDCF88E08EBD0DB407FEFDCFCD
:101C4000409A40988EE28EBD0DB407FEFDCF88E12C
:101C50008EBD0DB407FEFDCF1EBC0DB407FEFDCF3B
:101C6000409A0E94570B8091B1069091B2060E9453
:101C70004F2308950F931F93082F8091B1069091E1
:101C8000B2060E94A124112707FD1095302F2227AC
:101C90002068409883E18EBD0DB407FEFDCF832FF1
:101CA00099278EBD0DB407FEFDCF2EBD0DB407FEE6
:101CB000FDCF409A8091B1069091B2060E944F23C9
:101CC0001F910F910895CF93DF93CDB7DEB724977F
:101CD0000FB6F894DEBF0FBECDBF8091B1069091D4
:101CE000B2060E94A124679B34C21092C206679B71
:101CF00025C0319923C040988FE78EBD0DB407FEF3
:101D0000FDCF1EBC0DB407FEFDCF8EB5409A4098A6
:101D100088E08EBD0DB407FEFDCF409A409888E064
:101D20008EBD0DB407FEFDCF409A8091B106909113
:101D3000B2060E944F238FEF9FEF13C240988FE7A8
:101D40008EBD0DB407FEFDCF1EBC0DB407FEFDCF4A
:101D50004EB5409A4F7719F540988FE78EBD0DB478
:101D600007FEFDCF1EBC0DB407FEFDCF8EB5409A19
:101D7000409888E08EBD0DB407FEFDCF409A409894
:101D800088E08EBD0DB407FEFDCF409A8091B1066C
:101D90009091B2060E944F238EEF9FEFE2C14C302C
:101DA0008CF0E091B606F091B706242F332727FD7B
:101DB00030952B5030408481992787FD909582176C
:101DC0009307F4F540988FE78EBD0DB407FEFDCF65
:101DD00060E070E0242F332727FD309506C01EBC3D
:101DE0000DB407FEFDCF6F5F7F4F862F99278217B7
:101DF000930714F43199F3CF409A40988FE78EBD42
:101E00000DB407FEFDCF1EBC0DB407FEFDCF8EB591
:101E1000409A409888E08EBD0DB407FEFDCF409AF1
:101E2000409888E08EBD0DB407FEFDCF409A8091AA
:101E3000B1069091B2060E944F238DEF9FEF91C1A2
:101E4000E091B606F091B7064C50438340988FE777
:101E50008EBD0DB407FEFDCFFE0131969E012D5FB4
:101E60003F4F1EBC0DB407FEFDCF8EB58193E21728
:101E7000F307B9F7409AE091B606F091B706898169
:101E80009A8165E0969587956A95E1F781708783D9
:101E900040988FE78EBD0DB407FEFDCF1EBC0DB47C
:101EA00007FEFDCFE091B606F091B7068EB58083B0
:101EB000409A40988FE78EBD0DB407FEFDCF80E0BD
:101EC00007C01EBC0DB407FEFDCF8F5F843011F03C
:101ED0003199F7CF409A40988FE78EBD0DB407FE39
:101EE000FDCF20E030E01EBC0DB407FEFDCFE09139
:101EF000B606F091B706E20FF31F8EB581832F5F10
:101F00003F4F2230310579F7409A89819A8183FFCA
:101F100056C040988FE78EBD0DB407FEFDCFEDEAA9
:101F2000F6E01EBC0DB407FEFDCF8EB5819386E0B2
:101F3000E13BF807B1F7409A409889E98EBD0DB4AE
:101F400007FEFDCF80E88EBD0DB407FEFDCF92E009
:101F50009150E92FFF27E355F94F80818EBD0DB4D5
:101F600007FEFDCF9923A1F7409A40988BE98EBDDB
:101F70000DB407FEFDCF80E88EBD0DB407FEFDCF8A
:101F800092E09150E92FFF27E155F94F80818EBDF6
:101F90000DB407FEFDCF9923A1F7409A40988CE03D
:101FA0008EBD0DB407FEFDCF409A81E08093C2063E
:101FB000E091B606F091B706838184508383409800
:101FC0008FE78EBD0DB407FEFDCF40E050E011C09D
:101FD0001EBC0DB407FEFDCFE091B606F091B7062A
:101FE0000580F681E02DE60FF11D8EB580834F5FF1
:101FF0005F4F642FE091B606F091B706242F332788
:102000008381992787FD9095281739070CF3409A0B
:1020100040988FE78EBD0DB407FC0AC0FCCF0DB40D
:1020200007FEFDCF5EB5409A40988FE78EBD02C097
:102030001EBCF5CF0DB407FEFDCFFE0133969E0109
:102040002B5F3F4F1EBC0DB407FEFDCF8EB58193B5
:10205000E217F307B9F7409AE091B606F091B70698
:102060008B81808740E020E030E00AC0E091B60636
:10207000F091B70685819681A80FB91F8C91480F02
:10208000822FE091B606F091B7062F5F3F4FA82F41
:10209000BB278381992787FD9095A817B90734F34B
:1020A000451719F140988FE78EBD0DB407FEFDCF9F
:1020B0001EBC0DB407FEFDCF8EB5409A409888E057
:1020C0008EBD0DB407FEFDCF409A409888E08EBDCE
:1020D0000DB407FEFDCF409A8091B1069091B206F3
:1020E0000E944F238CEF9FEF3CC08C8187FF0EC076
:1020F0008091C7068F5F8093C7068091B10690914B
:10210000B2060E944F2381E090E02BC040988FE7F9
:102110008EBD0DB407FEFDCF1EBC0DB407FEFDCF76
:102120008EB5409A409888E08EBD0DB407FEFDCF75
:10213000409A409888E08EBD0DB407FEFDCF409ACE
:102140008091B1069091B2060E944F238BEF9FEFD2
:1021500008C08091B1069091B2060E944F2380E0A2
:1021600090E024960FB6F894DEBF0FBECDBFDF918E
:10217000CF9108958091B1069091B2060E94A1245A
:102180001092BE06409886E08EBD0DB407FEFDCFCE
:10219000409A1092C7068091B1069091B2060E94B3
:1021A0004F23EF9808958091B1069091B2060E9456
:1021B000A12481E08093BE06409883E08EBD0DB4DB
:1021C00007FEFDCF409A409888E08EBD0DB407FE13
:1021D000FDCF409A1092C7068091B1069091B20649
:1021E0000E944F2308958091B1069091B2060E94FB
:1021F000A12481E08093BE06409883E08EBD0DB49B
:1022000007FEFDCF409A409888E08EBD0DB407FED2
:10221000FDCF409A1092C7068091B1069091B20608
:102220000E944F2380916A00806C80936A0080E84E
:102230008CBBEF9A08951F93182F8091B10690914F
:10224000B2060E94A124212F33272F713070206EF7
:10225000306A409885E18EBD0DB407FEFDCF832F17
:1022600099278EBD0DB407FEFDCF2EBD0DB407FE20
:10227000FDCF409A8091B1069091B2060E944F2303
:102280001F910895EF92FF920F931F93CF93DF93C7
:10229000CDB7DEB722970FB6F894DEBF0FBECDBF25
:1022A0008C018091B1069091B2060E94A1245091B8
:1022B000B306552339F040988DE08EBD0DB407FE6E
:1022C000FDCF409AF8014281642F772767FD709512
:1022D000A0E020E030E008C0F80183819481E80E9E
:1022E000F91EF7018081A80F822F2F5F3F4FE82E44
:1022F000FF24E616F70684F3942F945F51119C5F38
:102300006799FECF4E99FCCFF894409889E08EBD36
:102310000DB407FEFDCF409A409889E08EBD0DB404
:1023200007FEFDCF409A40988EE38EBD0DB407FCAA
:1023300005C0FCCF0DB407FC30C1FCCF9EBDFACF69
:1023400081E698E89A838983552329F089819A81C7
:1023500088609A83898340988EE38EBD0DB407FE12
:10236000FDCFFE0131969E012D5F3F4F80818EBDD6
:102370000DB407FEFDCF3196E217F307B9F7409A87
:1023800040988EE38EBD0DB407FC05C0FCCF0DB4A4
:1023900007FC0EC1FCCF8091B8068EBDF8CF0DB4FE
:1023A00007FEFDCF20E030E0F901E654F94F8081CF
:1023B0008EBD0DB407FEFDCF2F5F3F4F223031059C
:1023C00099F7409A40988EE38EBD0DB407FEFDCF7D
:1023D00020E030E0F801E20FF31F80818EBD0DB4E4
:1023E00007FEFDCF2F5F3F4F2230310599F7409A0E
:1023F00040988EE38EBD0DB407FEFDCF20E030E0A7
:10240000F901E454F94F80818EBD0DB407FEFDCF74
:102410002F5F3F4F2230310599F7409A552399F0AD
:1024200040988EE38EBD0DB407FEFDCFE3ECF6E0E1
:1024300080818EBD0DB407FEFDCF319686E0E73C6E
:10244000F807B1F7409A40988EE38EBD0DB407FEB1
:10245000FDCF20E030E00DC0F80183819481480F6A
:10246000591FFA0180818EBD0DB407FEFDCF2F5F8D
:102470003F4F422F55274617570774F3409A40980D
:102480008EE38EBD0DB407FC05C0FCCF0DB407FC78
:1024900094C0FCCFAEBDFACF8091BE06882339F43C
:1024A000409883E08EBD0DB407FEFDCF409A409862
:1024B0001EBC0DB407FEFDCF8EB5409A81FFF7CF4D
:1024C00000E0409885E08EBD0DB407FEFDCF409A38
:1024D00040981EBC0DB407FEFDCF1EB5409A0F5F9D
:1024E000053651F478948091B1069091B2060E941D
:1024F0004F2380E090E068C084E690E00E94341CA6
:1025000013FD08C0DECF409884E08EBD0DB407FEF9
:10251000FDCF409A78944E9BFECF4E99FECF80918E
:10252000C106882391F084EA92E00E94341C319B1A
:102530000EC040988FE78EBD0DB407FEFDCF1EBCC8
:102540000DB407FEFDCF8EB5409A11E00FC0409844
:1025500088E08EBD0DB407FEFDCF409A409888E01C
:102560008EBD0DB407FEFDCF409A10E0F894409860
:1025700086E08EBD0DB407FEFDCF409A7894809121
:10258000B8068F5F8093B8068091B1069091B2062D
:102590000E944F23812F992717C0409A81E498E821
:1025A0009A8389838091C106882309F0C9CECCCE55
:1025B000409A40988EE38EBDF2CE409AF801858114
:1025C000882309F069CF9FCF22960FB6F894DEBF1B
:1025D0000FBECDBFDF91CF911F910F91FF90EF9074
:1025E0000895BF92CF92DF92EF92FF920F931F93C5
:1025F000CF93DF93CDB7DEB722970FB6F894DEBF47
:102600000FBECDBF8C016B017A018091B106909114
:10261000B2060E94A1240E941B30409888E08EBD23
:102620000DB407FEFDCF409A409888E08EBD0DB4F2
:1026300007FEFDCF409A6799FECF4E99FCCFF894E4
:10264000409889E08EBD0DB407FEFDCF409A4098BA
:1026500089E08EBD0DB407FEFDCF409AF80162817E
:10266000462F552747FD5095BB2420E030E007C09A
:10267000F80183819481A80FB91F8C91B80E822F25
:102680002F5F3F4FA82FBB27A417B5078CF3962FBA
:10269000945F40988EE38EBD0DB407FC05C0FCCF5F
:1026A0000DB407FC16C1FCCF9EBDFACF81E698E8B9
:1026B0009A83898340988EE38EBD0DB407FEFDCFCB
:1026C000FE0131969E012D5F3F4F80818EBD0DB47E
:1026D00007FEFDCF3196E217F307B9F7409A40980D
:1026E0008EE38EBD0DB407FC05C0FCCF0DB407FC16
:1026F000F9C0FCCF8091B8068EBDF8CF0DB407FEAF
:10270000FDCF20E030E0F901E654F94F80818EBD25
:102710000DB407FEFDCF2F5F3F4F2230310599F7F3
:10272000409A40988EE38EBD0DB407FEFDCF20E0A9
:1027300030E0F801E20FF31F80818EBD0DB407FE7B
:10274000FDCF2F5F3F4F2230310599F7409A4098D7
:102750008EE38EBD0DB407FEFDCF20E030E0F90121
:10276000E454F94F80818EBD0DB407FEFDCF2F5F7D
:102770003F4F2230310599F7409AB701C6010E94B8
:10278000A030F80185818823C1F18091BE0688239D
:1027900039F4409883E08EBD0DB407FEFDCF409A1A
:1027A00040981EBC0DB407FEFDCF8EB5409A81FF48
:1027B000F7CFEE24409885E08EBD0DB407FEFDCF27
:1027C000409A40981EBC0DB407FEFDCFFEB4409A5F
:1027D000E394F5E6EF1651F478948091B106909168
:1027E000B2060E944F2380E090E083C084E690E030
:1027F0000E94341CF3FC08C0DDCF409884E08EBDFD
:102800000DB407FEFDCF409A40988EE38EBD0DB407
:1028100007FEFDCFF8018281482F552747FD5095CF
:1028200020E030E00CC0F80183819481A80FB91F2B
:102830008C918EBD0DB407FEFDCF2F5F3F4FA22FB1
:10284000BB27A417B5077CF3409A40988EE38EBD52
:102850000DB407FC05C0FCCF0DB407FC48C0FCCF8D
:10286000BEBCFACF4E9BFECFF8944E99FECF409857
:1028700088E08EBD0DB407FEFDCF409A409888E0F9
:102880008EBD0DB407FEFDCF409A409889E08EBD05
:102890000DB407FEFDCF409A409889E08EBD0DB47F
:1028A00007FEFDCF409A409886E08EBD0DB407FE2E
:1028B000FDCF409A78948091B8068F5F8093B806D8
:1028C0008091B1069091B2060E944F2381E090E082
:1028D00010C0409AF8018681882309F0E7CE81E490
:1028E00098E8E6CE409A40988EE38EBD07CF409A96
:1028F000B9CF22960FB6F894DEBF0FBECDBFDF91E1
:10290000CF911F910F91FF90EF90DF90CF90BF90EC
:102910000895CF93DF93CDB7DEB722970FB6F89423
:10292000DEBF0FBECDBF9A8389839093BD0680938F
:10293000BC0684EF91E00E94552F40988AEE8EBD30
:102940000DB407FEFDCF80E88EBD0DB407FEFDCFB0
:10295000FE0131969E012D5F3F4F80818EBD0DB4EB
:1029600007FEFDCF3196E217F307B9F7409A84EFDF
:1029700091E00E94552F22960FB6F894DEBF0FBE4D
:10298000CDBFDF91CF9108956F927F928F929F92EA
:10299000AF92BF92CF92DF92EF92FF920F931F936D
:1029A000CF93DF93CDB7DEB722970FB6F894DEBF93
:1029B0000FBECDBF8C0184E690E00E94552F7801B8
:1029C000C12C01E0D02E3E010894611C711C13E063
:1029D000812E912C8C0E9D1EF70180812181332741
:1029E0009927982F8827282B392B3A83298384E627
:1029F00090E00E94552F40988C2D80688EBD0DB4BC
:102A000007FEFDCFC60195958795807C8EBD0DB4E0
:102A100007FEFDCF83015301F50180818EBD0DB40A
:102A200007FEFDCF0894A11CB11CA814B904A1F79E
:102A3000409A0894E11CF11C82E090E0C80ED91E77
:102A400090E1C91691E0D90639F684E690E00E943B
:102A5000552F20E131E040E451E01A82198240987C
:102A6000842F80688EBD0DB407FEFDCFCA019595F9
:102A70008795807C8EBD0DB407FEFDCFF801808167
:102A80008EBD0DB407FEFDCF3196EA15FB05B9F7F3
:102A9000409A4098822F80688EBD0DB407FEFDCF0E
:102AA000C90195958795807C8EBD0DB407FEFDCF3D
:102AB000F80180818EBD0DB407FEFDCF3196EA1579
:102AC000FB05B9F7409A2E5F3F4F4E5F5F4FE1E045
:102AD0002E313E0711F681E090E09A838983409879
:102AE0008EEC8EBD0DB407FEFDCF80E88EBD0DB41B
:102AF00007FEFDCFF80180818EBD0DB407FEFDCF2E
:102B00003196EA15FB05B9F7409A40988EE98EBDDB
:102B10000DB407FEFDCF80E88EBD0DB407FEFDCFDE
:102B2000F80180818EBD0DB407FEFDCF0F5F1F4FF2
:102B30000A151B05A9F7409A22960FB6F894DEBF36
:102B40000FBECDBFDF91CF911F910F91FF90EF90FE
:102B5000DF90CF90BF90AF909F908F907F906F90BD
:102B60000895F894409881E08EBD0DB407FEFDCF26
:102B7000409A88EE93E00E94552F789408951F9311
:102B8000CF93DF93EC01162F8091B1069091B2069E
:102B90000E94A124409888E08EBD0DB407FEFDCFB1
:102BA000409A409888E08EBD0DB407FEFDCF409A54
:102BB000812F0E94EF09D093B706C093B60680918B
:102BC000B1069091B2060E944F23DF91CF911F91E1
:102BD00008951F93182F8091B1069091B2060E941C
:102BE000A124812F0E94EF098091B1069091B20635
:102BF0000E944F231F910895DF92EF92FF920F934F
:102C00001F93CF93DF93CDB7DEB722970FB6F8941B
:102C1000DEBF0FBECDBF8C01D62E5A83498379010A
:102C200064E181E00E94D4229093B2068093B106C1
:102C3000892B31F40E941B26682F8FE00E94D1203F
:102C40008091B1069091B2060E94A1248F3F21F499
:102C500082E692E00E94D31B159A88EE93E00E94D0
:102C6000341C169881E090E00E94341C169A84E689
:102C700090E00E94341CF894409881E08EBD0DB421
:102C800007FEFDCF409A82EE92E09093B5068093C6
:102C9000B406409881E18EBD0DB407FEFDCF82E001
:102CA0008EBD0DB407FEFDCF82EE8EBD0DB407FEC6
:102CB000FDCF409A409882E18EBD0DB407FEFDCF56
:102CC00085E08EBD0DB407FEFDCF1EBC0DB407FE22
:102CD000FDCF409A40988CE18EBD0DB407FEFDCF2C
:102CE0001EBC0DB407FEFDCF8FE78EBD0DB407FEF1
:102CF000FDCF409A409889E18EBD0DB407FEFDCF0F
:102D000081E08EBD0DB407FEFDCF84EC8EBD0DB409
:102D100007FEFDCF409A409887E18EBD0DB407FEB7
:102D2000FDCF8AE18EBD0DB407FEFDCF86E58EBDD9
:102D30000DB407FEFDCF409A84EF91E00E94552F1D
:102D4000409888EE8EBD0DB407FEFDCF80E88EBDA5
:102D50000DB407FEFDCFFE0131969E012D5F3F4F62
:102D600080818EBD0DB407FEFDCF3196E217F307CB
:102D7000B9F7409A84EF91E00E94552F78948D2DF9
:102D80000E94EF0978941093B7060093B6068981E4
:102D90009A819093BB068093BA06F092BD06E092AA
:102DA000BC061092B8061092BE060E940E0A8091D0
:102DB000B1069091B2060E944F238F3F39F485E30C
:102DC00092E00E94D31B82E00E94F91E1092C1067D
:102DD0001092B3061092C20622960FB6F894DEBF88
:102DE0000FBECDBFDF91CF911F910F91FF90EF905C
:102DF000DF90089580912C020E94661780912B022B
:102E00000E946617089580912C020E946617809197
:102E10002B020E94EB1708952091610480916204B7
:102E2000281781F0E22FFF27ED59FB4FE081822F19
:102E30008F5F80936104803111F4109261048E2FB2
:102E4000992708958091C80087FFFCCF8091C80022
:102E50008F778093C8008091CE00992708958823AA
:102E600051F48091C000992787FD90958827990F8C
:102E7000881F99270895813019F080E090E0089527
:102E800020E030E09091610480916204981711F085
:102E900021E030E0C901089585B7806185BF86E0F3
:102EA00084B985B981E087B988B98CE38DB98BE0A5
:102EB0008AB98EE38EB988E781B9169A08950E947F
:102EC0004C1780E58CBD81E08DBD08958F3F09F4DE
:102ED0007FC0482F55279A01277030702230310566
:102EE000A9F12330310544F42115310589F0213051
:102EF000310509F06DC01CC02430310509F446C00D
:102F0000243031059CF12530310509F061C04EC0F7
:102F100022B1A3E056954795AA95E1F781E090E0AC
:102F200002C0880F991F4A95E2F7282B22B94DC09D
:102F300085B1F3E056954795FA95E1F702C0220F67
:102F4000331F4A95E2F7822B85B93FC028B1E3E0F1
:102F500056954795EA95E1F781E090E002C0880F29
:102F6000991F4A95E2F7282B28B92FC02BB173E09F
:102F7000569547957A95E1F781E090E002C0880F79
:102F8000991F4A95E2F7282B2BB91FC02EB163E099
:102F9000569547956A95E1F781E090E002C0880F69
:102FA000991F4A95E2F7282B2EB90FC021B333E0C1
:102FB000569547953A95E1F781E090E002C0880F79
:102FC000991F4A95E2F7282B21BB81E090E00895F4
:102FD0008FEF9FEF08958F3F09F486C0482F552744
:102FE0009A012770307022303105C1F1233031054C
:102FF00044F42115310589F02130310509F074C000
:103000001DC02430310509F44BC024303105BCF11A
:103010002530310509F068C054C022B173E05695DF
:1030200047957A95E1F781E090E002C0880F991FFB
:103030004A95E2F78095822382B953C095B163E047
:10304000569547956A95E1F702C0220F331F4A95BE
:10305000E2F7822F8095892385B943C028B133E0F8
:10306000569547953A95E1F781E090E002C0880FC8
:10307000991F4A95E2F78095822388B932C02BB117
:1030800093E0569547959A95E1F781E090E002C06C
:10309000880F991F4A95E2F7809582238BB921C04A
:1030A0002EB183E0569547958A95E1F781E090E04F
:1030B00002C0880F991F4A95E2F7809582238EB946
:1030C00010C021B3B3E056954795BA95E1F781E07A
:1030D00090E002C0880F991F4A95E2F780958223FD
:1030E00081BB81E090E008958FEF9FEF08958F3FBF
:1030F000A9F1282F3327C90187709070823091057C
:10310000A9F0833091052CF4009761F0019731F517
:103110000BC08430910571F0843091054CF0059717
:10312000E9F40AC080B109C083B107C086B105C007
:1031300089B103C08CB101C08FB19927E3E0369506
:103140002795EA95E1F702C0959587952A95E2F7CC
:10315000992787FD90958170907008958FEF9FEF6C
:1031600008958F3F09F403C1282F3327A901477021
:1031700050704230510509F45CC04330510544F4AD
:103180004115510591F04130510509F0F0C034C0AE
:103190004430510509F49BC0443051050CF470C013
:1031A0004530510509F0E3C0B9C080B1A90173E011
:1031B000569547957A95E1F79927042E02C0959583
:1031C00087950A94E2F780FD0BC022B181E090E080
:1031D00002C0880F991F4A95E2F7282B22B9C4C074
:1031E00022B181E090E002C0880F991F4A95E2F772
:1031F0008095822382B9B8C083B163E03695279564
:103200006A95E1F79927022E02C0959587950A9451
:10321000E2F702C0440F551F2A95E2F780FD03C074
:1032200085B1842B04C095B1842F8095892385B9FD
:103230009BC086B1A90193E0569547959A95E1F711
:103240009927042E02C0959587950A94E2F780FD90
:103250000BC028B181E090E002C0880F991F4A9509
:10326000E2F7282B28B980C028B181E090E002C0A5
:10327000880F991F4A95E2F78095822388B974C018
:1032800089B1A901B3E056954795BA95E1F7992719
:10329000042E02C0959587950A94E2F780FD0BC035
:1032A0002BB181E090E002C0880F991F4A95E2F7A8
:1032B000282B2BB959C02BB181E090E002C0880FB8
:1032C000991F4A95E2F7809582238BB94DC08CB146
:1032D000A901A3E056954795AA95E1F79927042EF1
:1032E00002C0959587950A94E2F780FD0BC02EB138
:1032F00081E090E002C0880F991F4A95E2F7282BE1
:103300002EB932C02EB181E090E002C0880F991F23
:103310004A95E2F7809582238EB926C08FB1A90124
:10332000F3E056954795FA95E1F79927042E02C0E8
:10333000959587950A94E2F780FD0BC021B381E053
:1033400090E002C0880F991F4A95E2F7282B21BB15
:103350000BC021B381E090E002C0880F991F4A950D
:10336000E2F78095822381BB81E090E008958FEFA2
:103370009FEF08958F3F09F41BC1482F55276623FF
:1033800009F099C0CA01877090708230910509F4E4
:103390003EC0833091053CF4009789F0813091055F
:1033A00009F006C121C08430910509F45AC0843067
:1033B00091050CF441C0059709F0FAC067C031B11E
:1033C000B3E056954795BA95E1F781E090E002C0E9
:1033D000880F991F4A95E2F7282F2095232321B9BA
:1033E00022B1822B82B9E1C024B1A3E05695479562
:1033F000AA95E1F702C0880F991F4A95E2F7982F26
:103400008095822384B985B1982B95B9CEC037B108
:10341000F3E056954795FA95E1F781E090E002C018
:10342000880F991F4A95E2F7282F2095232327B963
:1034300028B1822B88B9B9C03AB1E3E056954795D7
:10344000EA95E1F781E090E002C0880F991F4A9564
:10345000E2F7282F209523232AB92BB1822B8BB991
:10346000A4C03DB173E0569547957A95E1F781E0A8
:1034700090E002C0880F991F4A95E2F7282F209507
:1034800023232DB92EB1822B8EB98FC030B363E0C8
:10349000569547956A95E1F781E090E002C0880F64
:1034A000991F4A95E2F7282F2095232320BB21B3AB
:1034B000822B81BB7AC09A0127703070223031058F
:1034C000A9F12330310544F42115310589F021306B
:1034D000310509F06DC01CC02430310509F446C027
:1034E000243031059CF12530310509F061C04EC012
:1034F00021B133E0569547953A95E1F781E090E0A8
:1035000002C0880F991F4A95E2F7282B21B94DC0B8
:1035100084B193E0569547959A95E1F702C0220F42
:10352000331F4A95E2F7822B84B93FC027B1B3E03D
:1035300056954795BA95E1F781E090E002C0880F73
:10354000991F4A95E2F7282B27B92FC02AB1A3E08B
:1035500056954795AA95E1F781E090E002C0880F63
:10356000991F4A95E2F7282B2AB91FC02DB1F3E025
:1035700056954795FA95E1F781E090E002C0880FF3
:10358000991F4A95E2F7282B2DB90FC020B3E3E02D
:1035900056954795EA95E1F781E090E002C0880FE3
:1035A000991F4A95E2F7282B20BB81E090E008950F
:1035B0008FEF9FEF0895882319F08FEF9FEF089505
:1035C00080B1992787FD9095809590958827990FD0
:1035D000881F99270895009711F484E109C081306C
:1035E000910511F48CE104C08230910531F484E23C
:1035F0000E94B11881E090E00895039719F08FEFD1
:103600009FEF08958CE20E94B11881E090E0089548
:10361000009711F484E109C08130910511F48CE127
:1036200004C08230910531F484E20E94661781E083
:1036300090E00895039719F08FEF9FEF08958CE2C3
:103640000E94661781E090E00895009711F484E1EC
:1036500009C08130910511F48CE104C082309105DC
:1036600031F484E20E94EB1781E090E00895039723
:1036700019F08FEF9FEF08958CE20E94EB1781E025
:1036800090E00895882319F085B78F7E02C085B732
:10369000806185BF81E090E00895982F8091C000FF
:1036A00085FFFCCF8091C0008F7D8093C0009093F8
:1036B000C6000895982F8091C80085FFFCCF909395
:1036C000CE000895292F33272093C5008093C4008E
:1036D00086E08093C200E1ECF0E080818B7F808304
:1036E000A0ECB0E08C9182608C93808188618083B3
:1036F0000895292F33272093CD008093CC0086E0B6
:103700008093CA00E9ECF0E080818B7F8083A8EC95
:10371000B0E08C9182608C93808188618083089571
:103720008091C00087FFFCCF8091C0008F7780938D
:10373000C0008091C600992708950E94791B6CE013
:1037400077E18AE59BE10E94E03B909395078093A7
:1037500094076CE077E18AE59BE10E94E03B90935F
:103760009307809392070E941222809373048F3FE5
:1037700019F48EE00E9412211092610410926204EA
:103780008091C90080688093C90008958091730476
:103790008F3F19F48EE00E941221809173049927C3
:1037A00087FD90950895CF93DF93EC0107C060915A
:1037B00094077091950799270E942E3CFE0121964F
:1037C00084918823A1F7DF91CF9108951F920F92E2
:1037D0000FB60F9211242F933F934F935F936F93E4
:1037E0007F938F939F93AF93BF93EF93FF938091BA
:1037F000C9008F778093C9008091C80087FFFCCFF4
:103800008091C8008F778093C8009091CE008091FE
:103810006204E82FFF27ED59FB4F90838F5F809361
:103820006204803111F410926204809173040E944A
:10383000A3238091C8008F778093C8008091C9002E
:1038400080688093C900FF91EF91BF91AF919F91E4
:103850008F917F916F915F914F913F912F910F9039
:103860000FBE0F901F901895000000000000000090
:103870000197D1F70895FC01A7E0B0E00E94B53EA2
:10388000802D808381E090E00895FC018081A7E095
:10389000B0E0082E0E94BD3E81E090E00895DC017A
:1038A0000E94B53E802D99270895FC01A0E0B0E06C
:1038B0000E94B53E402D4383A1E0B0E00E94B53E9A
:1038C000802D8283A2E0B0E00E94B53E302D31838E
:1038D000A3E0B0E00E94B53E902D9083A4E0B0E05C
:1038E0000E94B53E202D830F840F890F281719F4ED
:1038F00081E090E008958FEF9FEF0895FC01A5E02F
:10390000B0E00E94B53E802D808381E090E0089574
:10391000FC01A6E0B0E00E94B53E802D808381E0EE
:1039200090E00895AC0120E030E0D90118960E94A3
:10393000B53E802DFA01E20FF31F80832F5F3F4FCA
:103940002031310591F781E090E00895DC01062EE9
:103950000E94BD3E0895FC018081A6E0B0E0082EE3
:103960000E94BD3E81E090E00895AC0120E030E08F
:10397000D9011896FA01E20FF31F8081082E0E94E8
:10398000BD3E2F5F3F4F2031310591F781E090E040
:103990000895F89408957894089585E690E0089540
:1039A0000E94382C0895EF92FF920F931F93CF93AC
:1039B000DF93EC018B017A018985823021F08091BF
:1039C0005607888301C0188280915607843020F002
:1039D00060E087E00E94D1208985823029F08091C3
:1039E00056078F5F8093560780915607882319F4F6
:1039F00081E0809356078881992787FD9095FC0187
:103A000045E0EE0FFF1F4A95E1F7E80FF91FE65377
:103A1000F94F118300838881992787FD9095FC01D8
:103A200035E0EE0FFF1F3A95E1F7E80FF91FE65377
:103A3000F94F888582878881992787FD9095FC01B9
:103A400025E0EE0FFF1F2A95E1F7E80FF91FE65377
:103A5000F94F83E081872881822F992787FD9095F0
:103A6000FC0105E0EE0FFF1F0A95E1F7E80FF91FD3
:103A7000E653F94F20878881992787FD9095FC01AF
:103A800015E0EE0FFF1F1A95E1F7E80FF91FE65357
:103A9000F94F15820881112707FD1095CE010B966D
:103AA0000E948229F801B5E0EE0FFF1FBA95E1F7F9
:103AB000E00FF11FE653F94F948F838F0881112790
:103AC00007FD1095CE014B960E948229F801A5E0D2
:103AD000EE0FFF1FAA95E1F7E00FF11FE653F94F34
:103AE000968B858B8881992787FD9095FC0175E0E1
:103AF000EE0FFF1F7A95E1F7E80FF91FE653F94F34
:103B000085899689238D348D820F931F908F878BA3
:103B10000881112707FD1095CE0143960E94822946
:103B2000F80165E0EE0FFF1F6A95E1F7E00FF11F66
:103B3000E653F94F968F858F8881992787FD909559
:103B4000FC0155E0EE0FFF1F5A95E1F7E80FF91F52
:103B5000E653F94F858D968D928F818F88819927B5
:103B600087FD9095FC0145E0EE0FFF1F4A95E1F7B8
:103B7000E80FF91FE653F94F81E090E090A3878F9B
:103B80008881992787FD9095FC0135E0EE0FFF1F96
:103B90003A95E1F7E80FF91FE653F94FF382E28215
:103BA0008881992787FD9095FC0125E0EE0FFF1F86
:103BB0002A95E1F7E80FF91FE653F94F81E0848772
:103BC00081E090E0DF91CF911F910F91FF90EF90F6
:103BD00008958F929F92AF92BF92CF92DF92EF9211
:103BE000FF920F931F93CF93DF9362EDA62E66E0B3
:103BF000B62ECC24DD244501EC2CF501F080FFEF3E
:103C0000FF1691F0E40100E010E0E01639F0888141
:103C1000F81621F46F2D85E00E94D1200F5F1F4F11
:103C2000A1960430110589F70894C11CD11C81E2CA
:103C300090E0A80EB91E94E0C916D104E9F60E94DE
:103C40003025282F332727FD3095F90155E0EE0F59
:103C5000FF1F5A95E1F7E20FF31FE653F94F328544
:103C60003093690721E28202C00111248653994FE3
:103C7000909368078093670790935907809358073C
:103C800030935A070E9462330E9448330E94863361
:103C9000FFCF0F931F93CF93DF93CDB7DEB7A397DB
:103CA0000FB6F894DEBF0FBECDBF0E9412228093E4
:103CB00057078F3F21F460E08EE00E94D1200E94E0
:103CC0002131082F112700FF04C060E086E00E9428
:103CD000D12001FF04C060E084E10E94D12002FFF6
:103CE00004C060E083E10E94D12010925A07109234
:103CF00068071092670710925907109258071092A0
:103D00006907109266078FEF8093500780935207E0
:103D100080935107809353078093550780935407EE
:103D2000EAECF6E083E682878FEF8087B19627E0A2
:103D3000EE34F207B9F7EAE6F7E0CF01059694838F
:103D40008383F783E683FC0127E08E379207A9F788
:103D500010926C0710926B071092820710928107E5
:103D600010925D0710925C0744979093C906809368
:103D7000C80664E17CE28E010F5F1F4FC8010E94FC
:103D8000063340E850E065E276E0C8010E94673300
:103D900085E58093250619861C861D861E861F864E
:103DA000188A198A1A8A1B8A1C8A1D8A1E8A1F8AE7
:103DB000188E198E1A8E1B8E1C8E1D8E1E8E1F8EB7
:103DC00018A219A21AA21BA291E0988782E08A8702
:103DD0009B87C8010E940D28A3960FB6F894DEBFFA
:103DE0000FBECDBFDF91CF911F910F910895F89431
:103DF000FFCFE0916707F091680784870895E0910D
:103E00006707F0916807848599270895DC01FB0115
:103E100080912406882319F480E090E0089580833F
:103E2000809174058C9381E090E00895CF93DF93A7
:103E3000CDB7DEB721970FB6F894DEBF0FBECDBF6A
:103E4000198207C080ED97E00E94552F89818F5F0E
:103E5000898389818436B0F321960FB6F894DEBF4A
:103E60000FBECDBFDF91CF91089581E090E00E9419
:103E7000251B0E94161F81E090E00E94081B0E94F3
:103E8000161F089581E090E00E94251B0E94161FD6
:103E90000E94161F0E94161F81E090E00E94081BDE
:103EA0000E94161F0895EF92FF920F931F93CF93D6
:103EB000DF93CDB7DEB723970FB6F894DEBF0FBE02
:103EC000CDBF99279F938F938CE492E09F938F931C
:103ED0008E010F5F1F4F1F930F930E94723CEE24C1
:103EE000FF248DB79EB706960FB6F8949EBF0FBEFF
:103EF0008DBF73C0A00FB11F8C918433D1F1853376
:103F000070F48133F9F0823320F4803309F05CC01F
:103F100016C0823311F1833309F056C023C08733B2
:103F2000C9F1883330F4853369F1863309F04CC028
:103F30002CC08833B1F1893309F046C03BC00E94E0
:103F4000421F02C00E94351F0E94421F0E94421F52
:103F50000E94421F0E94421F37C00E94351F0E94CC
:103F6000351FF4CF0E94351F0E94351F0E94351F58
:103F7000EFCF0E94351F0E94351F0E94351F0E94FF
:103F8000351FE8CF0E94351F02C00E94421F0E94C9
:103F9000351F04C00E94421F0E94421F0E94351F0D
:103FA00006C00E94421F0E94421F0E94421F0E94A0
:103FB000351F08C00E94421F0E94421F0E94421FDC
:103FC0000E94421F0E94351F0E94161F0E94161F4A
:103FD0000E94161F0894E11CF11CAE2DBB27F801AE
:103FE00001900020E9F73197E01BF10BAE17BF07F6
:103FF00008F480CF23960FB6F894DEBF0FBECDBF76
:10400000DF91CF911F910F91FF90EF9008950F9343
:104010001F9380912406882309F4BEC00E94C91C06
:104020000E94C91C8EE794E00E94D31B8091740506
:1040300099279F938F938CE492E09F938F930E9494
:104040005B3C8AE794E00E94D31B0F900F900F9087
:104050000F9080912406873110F0109224068091F1
:1040600024069927AA27BB27FC013197E531F105E2
:1040700008F047C0EA59FF4FEE0FFF1F0590F4917B
:10408000E02D099483E594E03EC08FE394E03BC0CB
:1040900089E294E038C08EE094E035C088EF93E088
:1040A00032C080EE93E02FC08DEC93E02CC08AEB01
:1040B00093E029C08CE993E026C087E793E023C012
:1040C0008BE693E020C080E593E01DC081E493E09F
:1040D0001AC08DE293E017C08CE193E014C088E031
:1040E00093E011C088EE92E00EC080ED92E00BC02C
:1040F00085EB92E008C084EA92E005C085E992E091
:1041000002C08EE892E00E94D31B609194077091E8
:1041100095078DE090E00E942E3C6091940770918D
:1041200095078AE090E00E942E3C00E021C082E0EA
:1041300090E00E94251B83E090E00E94081B10E0A5
:1041400088EE93E00E94552F1F5F1436C9F783E075
:1041500090E00E94251B82E090E00E94081B10E086
:1041600088EE93E00E94552F1F5F1436C9F70F5F4A
:104170000431ECF283E090E00E94081B82E090E0C2
:104180000E94081B809174050E94531F8091240691
:104190000E94531F00E0CBCF80E090E01F910F9171
:1041A0000895EF92FF920F931F93E82EF62E8093BF
:1041B0002406609374050E94072000E021C082E07D
:1041C00090E00E94251B83E090E00E94081B10E015
:1041D00088EE93E00E94552F1F5F1436C9F783E0E5
:1041E00090E00E94251B82E090E00E94081B10E0F6
:1041F00088EE93E00E94552F1F5F1436C9F70F5FBA
:104200000431E8F283E090E00E94081B82E090E035
:104210000E94081B8F2D0E94531F8E2D0E94531F3A
:1042200000E0CDCF80932406E0916707F091680706
:104230008085809374050E9407200895992787FD43
:104240009095FC0125E0EE0FFF1F2A95E1F7E80F9E
:10425000F91FE653F94FA281B3818C91853529F07E
:1042600085E58C938FEF9FEF089580819181805039
:10427000924218F481E090E0089582E10E941221B8
:104280008FEF9FEF08956F927F928F929F92AF92E0
:10429000BF92CF92DF92EF92FF920F931F93CF9333
:1042A000DF938AE894E00E94D31BE0916707F091C6
:1042B00068078085992787FD90959F938F938FE45A
:1042C00092E09F938F930E945B3CE0916707F0918F
:1042D0006807028113811F930F9388E592E09F93F3
:1042E0008F930E945B3CF801808199279F938F9365
:1042F00055E6C52E52E0D52EDF92CF920E945B3C50
:10430000E0916707F0916807808191819F938F9377
:1043100042E7E42E42E0F42EFF92EF920E945B3CD3
:1043200080916707909168079F938F930CE712E045
:104330001F930F930E945B3CCAECD6E0AA24BB24D7
:104340008DB79EB744960FB6F8949EBF0FBE8DBF33
:104350003CE8632E32E0732E4601670178010A8142
:104360001B811F930F93BF92AF927F926F920E9417
:104370005B3CF801808199279F938F939F928F9246
:104380000E945B3C888199819F938F93DF92CF92AB
:104390000E945B3CDF93CF93FF92EF920E945B3CC5
:1043A0000894A11CB11CA1968DB79EB742960FB67A
:1043B000F8949EBF0FBE8DBF94E0A916B10479F6A4
:1043C000DF91CF911F910F91FF90EF90DF90CF90F1
:1043D000BF90AF909F908F907F906F900895CF93F4
:1043E000DF93E0916707F0916807C281D3818881EC
:1043F000853539F00E94432181E00E94122185E534
:104400008883E0916707F0916807808191818050EF
:10441000924228F00E94432182E10E941221DF9102
:10442000CF91089540917D0550917E0560917F0563
:104430007091800520E030E0DB01CA01022E04C04B
:10444000B695A795979587950A94D2F78170907045
:10445000892BE9F481E090E0A0E0B0E0022E04C0F6
:10446000880F991FAA1FBB1F0A94D2F7842B952B84
:10447000A62BB72B80937D0590937E05A0937F0597
:10448000B0938005822F992787FD909508952F5F1F
:104490003F4F2032310581F68FEF9FEF0895E09175
:1044A0006707F09168076585768587859089089507
:1044B000EF92FF920F931F9321E030E040E050E035
:1044C00004C0220F331F441F551F8A95D2F7E09175
:1044D0006707F0916807E584F68407851089DA019B
:1044E000C9018E219F21A023B1230097A105B10509
:1044F00019F48FEF9FEF1AC0209530954095509595
:10450000E222F32204231523E586F6860787108B23
:1045100081899289A389B48982239323A423B52313
:10452000818B928BA38BB48B81E090E01F910F91D4
:10453000FF90EF900895682F772767FD7095809121
:104540007D0590917E05A0917F05B0918005062E96
:1045500004C0B695A795979587950A94D2F7817070
:104560009070892B19F48FEF9FEF0895E091670702
:10457000F091680721E030E040E050E004C0220FF5
:10458000331F441F551F6A95D2F785859685A785E9
:10459000B089822B932BA42BB52B85879687A78771
:1045A000B08B81E090E00895382F809166078823D2
:1045B00019F080E090E00895809150078F3F11F44A
:1045C00020E007C0809153078F3F11F022E001C027
:1045D00021E0822F9927FC01EE0FFF1FE80FF91F42
:1045E000E05BF84F32833083618381E0809366071C
:1045F00083E0289FC0011124805B984F089527E035
:104600008035920711F480E007C08355974019F078
:104610008FEF9FEF089581E0992787FD909508958A
:104620000E94FF228F3F11F481E002C0823029F402
:104630000E94F91E8FEF9FEF0895992787FD9095AF
:10464000FC01EE0FFF1FE80FF91FE05BF84F8FEF43
:10465000808382838183809166078150809366077F
:1046600081E090E008950E94FF228F3F11F481E0E5
:1046700002C0823029F40E94F91E8FEF9FEF089547
:10468000992787FD9095FC01EE0FFF1FE80FF91F9A
:10469000E05BF84F8281992787FD909508951F93DD
:1046A000CF93DF930E94FF22182F8F3F11F481E0F8
:1046B00003C0823031F482E00E94F91E8FEF9FEF39
:1046C0003EC0992787FD9095EC01CC0FDD1FC80FE8
:1046D000D91FC05BD84F9A818881981774F50E94C2
:1046E000C91C8A818F5F8A83E0916707F091680710
:1046F0001482E1EDF6E0212F332727FD3095432F7B
:10470000532F8081823091F482859385A485B5856D
:1047100082179307A407B50749F483E082831786BD
:10472000168610821286138614861586B19687E047
:10473000E535F80731F70E94CB1C81E090E0DF916E
:10474000CF911F910895DF92EF92FF920F931F93E5
:10475000E1E0EE2EF12C012D112D04C0EE0CFF1C1A
:10476000001F111F8A95D2F780917D0590917E05DB
:10477000A0917F05B09180058E219F21A023B123B8
:104780000097A105B10511F481E043C00E94C91C46
:10479000E1EDF6E0DD2480818130B9F482859385F6
:1047A000A485B5858E219F21A023B1230097A10563
:1047B000B10559F083E08283178616861082E2865F
:1047C000F38604871587DD24D39480818230A1F499
:1047D00082859385A485B5858E159F05A007B107B1
:1047E00059F483E082831786168610821286138618
:1047F00014861586DD24D394B19687E0E535F80755
:1048000051F60E94CB1CDD2019F081E090E005C03C
:1048100082E00E94F91E8FEF9FEF1F910F91FF9092
:10482000EF90DF900895EF92FF920F931F93CF9335
:10483000DF93C82FDD27C7FDD095F1E0EF2EF12CD7
:10484000012D112D0C2E04C0EE0CFF1C001F111F9A
:104850000A94D2F780917D0590917E05A0917F0505
:10486000B09180058E219F21A023B1230097A1053F
:10487000B10519F48FEF9FEF5DC00E94C91CEAECEF
:10488000F6E0A801970120953095409550958085D8
:104890008F3F41F185859685A785B0898E159F0547
:1048A000A007B10739F4118A128A138A148A178271
:1048B00083E0818785859685A785B08982239323A8
:1048C000A423B52385879687A787B08B8189928992
:1048D000A389B48982239323A423B523818B928B4C
:1048E000A38BB48BB19687E0EE34F80781F62EEFF8
:1048F0003FEF4FEF5FEF04C0220F331F441F551FE0
:10490000CA95D2F780917D0590917E05A0917F0593
:10491000B091800582239323A423B52380937D0542
:1049200090937E05A0937F05B09380050E94CB1CD9
:1049300081E090E0DF91CF911F910F91FF90EF9078
:1049400008951F93CF93DF930E94FF22182F8F3F6C
:1049500011F481E003C0823031F482E00E94F91E3C
:104960008FEF9FEF3EC00E94C91C812F992787FDC2
:104970009095EC01CC0FDD1FC80FD91FC05BD84F3D
:104980008A818823D9F4E0916707F09168078781CD
:1049900082608783E0916707F0916807812F9927EC
:1049A00087FD9095A92FB92F818B928BA38BB48B08
:1049B0000E94CB1C80E090E00E943A278A818150BF
:1049C0008A83E0916707F091680789818387E09186
:1049D0006707F091680781E084830E94CB1C81E027
:1049E00090E0DF91CF911F9108959B01AC01E09180
:1049F0006707F091680785859685A785B08982232A
:104A00009323A423B5230097A105B10529F460E001
:104A100070E080E090E00895218B328B438B548BC3
:104A200081E087830090570704C0569547953795D6
:104A300027950A94D2F7C90181709070892B19F0DB
:104A40000E94DB2604C080E090E00E943A27E091BB
:104A50006707F0916807618972898389948908954D
:104A6000E0915C07F0915D07808199270895E091BE
:104A70005C07F0915D0703C00380F481E02D30975F
:104A8000D9F70895CF93DF93482FC091C806D091EE
:104A9000C906209709F47AC0A0915C07B0915D0720
:104AA0001097B9F1992787FD90959C0165E0220F39
:104AB000331F6A95E1F7280F391F2653394F8C9120
:104AC0009927BC0155E0660F771F5A95E1F7680FEB
:104AD000791F6653794FFB018481882329F09385E0
:104AE000F90182859817A8F0F9018481882331F0B3
:104AF000FB019285F9018385981758F0FB01928597
:104B0000F9018285981728F0FD01A381B4811097DF
:104B1000B1F64883E091C806F091C906238134813B
:104B20003093C9062093C80680915C0790915D0779
:104B3000A817B907A1F4109731F0BC83AB831A8290
:104B40001982FD0105C01C821B821A821982F9019B
:104B5000D283C183D0935D07C0935C0717C0FD016A
:104B600081819281A217B30751F09A838983BC8314
:104B7000AB8381819281FC01D483C38304C01C82F6
:104B80001B829A838983FD01D283C183DF91CF91F8
:104B90000895CF93DF93A0915C07B0915D071097C4
:104BA00009F446C0482F552747FD50958C91992709
:104BB0008417950769F4ED01EB81FC81F0935D07A3
:104BC000E0935C071282118216C0D901232B81F178
:104BD0008C919927FD012381348184179507A9F7CA
:104BE000C181D2813C832B8383819481009719F00A
:104BF000FC01D283C183E091C806F091C9063097C9
:104C000041F4B093C906A093C806ED011C821B8233
:104C100009C0ED01FC83EB83B283A183B093C90685
:104C2000A093C806E091C806F091C90612821182CD
:104C3000DF91CF910895E0916707F0916807808533
:104C4000992708950E94FB32E0916707F091680769
:104C500085818823B9F70895FF920F931F93CF930F
:104C6000DF93CDB7DEB728970FB6F894DEBF0FBE3F
:104C7000CDBF29833A834B835C836D837E838F838F
:104C800098870E94EF210E94C91CE0916707F0916C
:104C9000680781E0858381E090E090A3878F0E9480
:104CA0001B30F82ECE0101960E948229E091670701
:104CB000F09168070F2D1127800F911F968B858B20
:104CC00087EF8F1570F00E94A72F0E5F1F4F992757
:104CD0008017910734F08F2D8E5F8093AA060E9473
:104CE000AC2F0E94CB1C0E94222681E090E02896E7
:104CF0000FB6F894DEBF0FBECDBFDF91CF911F91ED
:104D00000F91FF9008958F929F92AF92BF92CF9292
:104D1000DF92EF92FF920F931F93CF93DF93CDB764
:104D2000DEB760970FB6F894DEBF0FBECDBF298700
:104D30003A874B875C876D877E878F87988BCE01FC
:104D400001960E94B92B89809A80AB80BC80CD806F
:104D5000DE80EF80F88409851A852B853C854D859A
:104D60005E856F857889CE0109960E9463288F3F02
:104D700019F48FEF9FEF0CC029853A854B855C8530
:104D80006D857E858F8598890E942C2681E090E034
:104D900060960FB6F894DEBF0FBECDBFDF91CF9106
:104DA0001F910F91FF90EF90DF90CF90BF90AF9049
:104DB0009F908F9008951F930E94C91CE0916707F0
:104DC000F091680781E0858386830E941B30182F4D
:104DD000883F80F40E94A72F212F33272E5F3F4F5B
:104DE00099278217930734F0812F8E5F8093AA064C
:104DF0000E94AC2F0E94CB1C0E94222681E090E0F2
:104E00001F9108951F93CF93DF93CDB7DEB72897F7
:104E10000FB6F894DEBF0FBECDBF29833A834B8314
:104E20005C836D837E838F8398870E94C91C0E9458
:104E30001B30182FCE0101960E94822983309105E4
:104E400018F48FEF9FEF0CC0E0916707F0916807AF
:104E5000810F911D968B858B0E94CB1C81E090E089
:104E600028960FB6F894DEBF0FBECDBFDF91CF916D
:104E70001F9108950F931F938C010E94C91CE0910C
:104E80006707F091680781E08583168B058B0E9488
:104E90001B30082F883F80F40E94A72F202F332734
:104EA0002E5F3F4F99278217930734F0802F8E5F34
:104EB0008093AA060E94AC2F0E94CB1C0E9422263F
:104EC00081E090E01F910F910895FF920F931F933F
:104ED000CF93DF938C010E94C91CE0916707F0918A
:104EE000680781E085830E941B30F82EE0916707F8
:104EF000F0916807C82FDD270C0F1D1F168B058B3F
:104F000087EF8F1568F00E94A72F229699278C179C
:104F10009D0734F08F2D8E5F8093AA060E94AC2FE0
:104F20000E94CB1C0E94222681E090E0DF91CF916D
:104F30001F910F91FF9008951F93CF93DF93EC0182
:104F40000E94EF21209711F4C1E0D0E00E94C91C1B
:104F5000E0916707F091680781E08583D0A3C78F50
:104F60000E941B30182F883F80F40E94A72F212F0A
:104F700033272E5F3F4F99278217930734F0812FF5
:104F80008E5F8093AA060E94AC2F0E94CB1C0E94C9
:104F9000222681E090E0DF91CF911F9108951F9329
:104FA0000E94EF210E94C91CE0916707F0916807F9
:104FB00081E090E090A3878F81E085830E941B3081
:104FC000182F883F80F40E94A72F212F33272E5FB0
:104FD0003F4F99278217930734F0812F8E5F80937C
:104FE000AA060E94AC2F0E94CB1C0E94222681E0C0
:104FF00090E01F910895E0916707F0916807808520
:105000000E94C925E0916707F091680784E08187D5
:105010000E94CF2781E090E00895EF92FF920F93D6
:105020001F93CF93DF93EC014B815C8169817A817F
:105030008D819E810E940A33BC018F81882369F093
:105040004B815C81EE24FF2400E010E020E030E0A2
:10505000CE010E94D31C1F8216C08881992787FD2C
:105060009095FC01A5E0EE0FFF1FAA95E1F7E80F70
:10507000F91FE653F94F8185833019F08FEF9FEFC9
:105080001BC0718360838881992787FD9095FC01FF
:1050900075E0EE0FFF1F7A95E1F7E80FF91FE65371
:1050A000F94F85899689892B29F482E08187888147
:1050B0000E94422581E090E0DF91CF911F910F91F6
:1050C000FF90EF9008958F929F92AF92BF92CF92F0
:1050D000DF92EF92FF920F931F93CF93DF93CDB7A1
:1050E000DEB760970FB6F894DEBF0FBECDBFFC01F0
:1050F00009831A832B833C834D835E836F83788778
:1051000089869A86AB86BC86CD86DE86EF86F88A4F
:105110002D813E814F81588589819A81AB81BC81E7
:10512000AD84BE84CF84D888E984FA840B851C853D
:105130008E159F05A007B10708F43FC0E816F906D1
:105140000A071B0791F42A153B054C055D05A8F1DC
:105150002A193B094C095D0924833583468357830B
:1051600010821182128213821CC02A153B054C0545
:105170005D05D0F40197A109B1098E199F09A00B13
:10518000B10B80839183A283B3832050364345467D
:10519000544C2A193B094C095D0924833583468305
:1051A000578381E090E00BC08E199F09A00BB10BD3
:1051B00080839183A283B383ECCF8FEF9FEF6096C0
:1051C0000FB6F894DEBF0FBECDBFDF91CF911F9118
:1051D0000F91FF90EF90DF90CF90BF90AF909F9096
:1051E0008F900895FC0113C080509A4CAA49BB438C
:1051F00084839583A683B78380819181A281B381C3
:105200000196A11DB11D80839183A283B383848104
:105210009581A681B78180302AEC92072AE9A207FE
:105220002BE3B20708F708958F929F92AF92BF9237
:10523000CF92DF92EF92FF920F931F93CF93DF9362
:10524000CDB7DEB760970FB6F894DEBF0FBECDBF07
:10525000FC0109831A832B833C834D835E836F8318
:10526000788789869A86AB86BC86CD86DE86EF8671
:10527000F88AAD80BE80CF80D884ED84FE840F850F
:10528000188989859A85AB85BC8529813A814B81AE
:105290005C81820F931FA41FB51F80839183A2831B
:1052A000B383EA0CFB1C0C1D1D1DE482F5820683F2
:1052B0001783CF010E94F22881E090E060960FB63C
:1052C000F894DEBF0FBECDBFDF91CF911F910F913C
:1052D000FF90EF90DF90CF90BF90AF909F908F9016
:1052E000089560935E0770935F07809360079093C3
:1052F00061072093620730936307409364075093DC
:10530000650708952F923F924F925F926F927F921E
:105310008F929F92AF92BF92CF92DF92EF92FF92C5
:105320000F931F93CF93DF93CDB7DEB728970FB6B8
:10533000F894DEBF0FBECDBFFC01C080D180E280FB
:10534000F3806481758186819781C114D104E10461
:10535000F10409F4A6C022E4C216D104E104F10468
:1053600018F080E090E0A4C01B012C016624772493
:1053700088249924AA24BB246EC019828AEC8A83CB
:10538000EAE9EB83FBE3FC831D821E821F82188601
:1053900000E0020D81E0021508F080E01A81130D93
:1053A000A1E0131508F0A0E0810F91E0811708F04B
:1053B00090E0A92B182F2B81240DB1E0241508F0C3
:1053C000B0E08A2F820F91E0821708F090E0B92BAD
:1053D000282F3C81350DA1E0351508F0A0E08B2F7A
:1053E000830F91E0831708F090E0A92B382F4D81AF
:1053F000460DB1E0461508F0B0E08A2F840F91E029
:10540000841708F090E0B92B482F5E81570DA1E07A
:10541000571508F0A0E08B2F850F91E0851708F055
:1054200090E0A92B582F6F81680DF1E0681508F006
:10543000F0E09A2F960F81E0961708F080E08F2B0E
:105440007885790D870F202E312E422E532E642E13
:10545000752E892E982E8A2D9927AA27BB27089466
:10546000A11CB11C8C159D05AE05BF0508F485CFA8
:1054700023EBA22E96EEB92E8EE0C82EDD24EE246C
:10548000FF2400E010E0222D332D442D552D662DF4
:10549000772D882D992D0E94E134A22EB32EC501BF
:1054A00007C023EB36EE4EE050E00E945C3EC9019F
:1054B00028960FB6F894DEBF0FBECDBFDF91CF9117
:1054C0001F910F91FF90EF90DF90CF90BF90AF9022
:1054D0009F908F907F906F905F904F903F902F9014
:1054E00008952F923F924F925F926F927F928F9288
:1054F0009F92AF92BF92CF92DF92EF92FF920F9363
:105500001F93CF93DF93CDB7DEB728970FB6F894EC
:10551000DEBF0FBECDBF7B018C01737080709070B9
:1055200023EB36EE4EE050E00E94163E6D837E8304
:105530008F8398873AE016950795F794E7943A9504
:10554000D1F7E982FA820B831C83988529803A80FF
:105550004B805C806D807E808F80222D332D442D8A
:10556000552D662D772D882D28960FB6F894DEBF21
:105570000FBECDBFDF91CF911F910F91FF90EF90A4
:10558000DF90CF90BF90AF909F908F907F906F9063
:105590005F904F903F902F9008952F923F924F929F
:1055A0005F926F927F928F929F92AF92BF92CF92B3
:1055B000DF92EF92FF920F931F93CF93DF93CDB7BC
:1055C000DEB728970FB6F894DEBF0FBECDBFFC0143
:1055D000C080D180E280F380C114D104E104F104E1
:1055E00009F4A2C024803580468057806624772441
:1055F00088249924AA24BB246EC019828AEC8A8349
:10560000EAE9EB83FBE3FC831D821E821F8218867E
:1056100000E0020D81E0021508F080E01A81130D10
:10562000A1E0131508F0A0E0810F91E0811708F0C8
:1056300090E0A92B182F2B81240DB1E0241508F040
:10564000B0E08A2F820F91E0821708F090E0B92B2A
:10565000282F3C81350DA1E0351508F0A0E08B2FF7
:10566000830F91E0831708F090E0A92B382F4D812C
:10567000460DB1E0461508F0B0E08A2F840F91E0A6
:10568000841708F090E0B92B482F5E81570DA1E0F8
:10569000571508F0A0E08B2F850F91E0851708F0D3
:1056A00090E0A92B582F6F81680DF1E0681508F084
:1056B000F0E09A2F960F81E0961708F080E08F2B8C
:1056C0007885790D870F202E312E422E532E642E91
:1056D000752E892E982E8A2D9927AA27BB270894E4
:1056E000A11CB11C8C159D05AE05BF0508F485CF26
:1056F00063EBA62E56EEB52E4EE0C42EDD24EE242E
:10570000FF2400E010E0222D332D442D552D662D71
:10571000772D882D992D0E94E134A22EB32EC42E10
:10572000D52EA60195010AC0648175818681978175
:1057300023EB36EE4EE050E00E945C3ECA01B90118
:1057400028960FB6F894DEBF0FBECDBFDF91CF9184
:105750001F910F91FF90EF90DF90CF90BF90AF908F
:105760009F908F907F906F905F904F903F902F9081
:105770000895EF92FF920F931F93CF93DF93EC0165
:1057800080915E0790915F07A0916007B0916107DB
:1057900088839983AA83BB83E0906207F0906307B4
:1057A0000091640710916507EC82FD820E831F83D0
:1057B0000E941B309927AA27BB27BC01CD0123EBF0
:1057C00036EE4EE050E00E94163EE60EF71E081F31
:1057D000191FEC82FD820E831F8313C080509A4CE8
:1057E000AA49BB438C839D83AE83BF838881998103
:1057F000AA81BB810196A11DB11D88839983AA83CB
:10580000BB838C819D81AE81BF8180302AEC920761
:105810002AE9A2072BE3B20708F7DF91CF911F9186
:105820000F91FF90EF9008950E94EF210E94A72F03
:105830008B3030F481E080935B070E94FB3209C01B
:105840008AE090E00E94552F82E080935B070E94DF
:10585000EF3280912506853519F088E00E941221EB
:1058600080917E21853501F388E00E941221DCCFF2
:105870008F929F92AF92BF92CF92DF92EF92FF9260
:105880000F931F93CF93DF930E94C91C0E94632F35
:105890000E946B2F4C018AEF0E94AC2F6091AA06E8
:1058A00077278827992723EB36EE4EE050E00E94B9
:1058B000163E7B018C018091620790916307A09155
:1058C0006407B0916507E80EF91E0A1F1B1FC80187
:1058D000B7010E945C3EA8019701261B370B480BBD
:1058E000590B80915E0790915F07A0916007B0917E
:1058F00061071BC0E12C66E3F62E65E6062F64EC1B
:10590000162FE20EF31E041F151FC801B70123EB6B
:1059100036EE4EE050E00E945C3EA8019701261B47
:10592000370B480B590BD601C5015C016D0108947A
:10593000A11CB11CC11CD11C20306AEC36076AE9DD
:1059400046076BE35607B0F680935E0790935F07B8
:10595000A0936007B09361072093620730936307B9
:105960004093640750936507E0916707F0916807DB
:105970008581882319F18185843001F18781823006
:1059800029F0882341F08681882311F485E001C045
:1059900083E081870CC083E08187E0916707F09105
:1059A00068071782E0916707F09168071682E09117
:1059B0006707F091680780850E94C925E091670715
:1059C000F0916807858D968D892B91F1608566230E
:1059D00079F18185843061F1218D328D8091AA0623
:1059E00099272817390750F482E00E94D120E091CE
:1059F0006707F0916807128E118E04C0281B390BBF
:105A0000328F218FE0916707F09168071085818DB3
:105A1000928D892B69F4612F83E00E94D120E0915F
:105A20006707F091680783E08187812F0E94C9256D
:105A3000CAECD6E000E61AEECC24DD24EC2D8885F5
:105A40008F3F09F494C01D82882391F189858430A9
:105A500079F12D893E898091AA069927281739075F
:105A600028F0281B390B3E8B2D8B02C01E8A1D8A05
:105A70002F89388D2817390728F0281B390B388FC4
:105A80002F8B0EC06B8D7C8D8617970728F4681BB3
:105A9000790B788F6F8B04C00E94353E988F8F8B67
:105AA0008F89988D892B21F48B8D9C8D988F8F8B6E
:105AB0008985833009F05BC08D899E89892B09F027
:105AC0004EC08F818823A1F08E81882389F081E0E8
:105AD00090E0A0E0B0E00090570704C0880F991F45
