:100000000C94D8010C946B2D0C94F7010C94F7010F
:100010000C94F7010C94F7010C94F7010C94F70180
:100020000C94BD060C94992D0C94F7010C94F701D7
:100030000C94F7010C94222B0C94F7010C94222BB6
:100040000C94F7010C94552B0C94F7010C94F701C8
:100050000C94F7010C94F7010C94F7010C94F70140
:100060000C94F7010C94F7010C94F7010C94F70130
:100070000C94F7010C94F7010C94F7010C94F70120
:100080000C945F2B0C94F7010C94F7010C94F7017E
:100090000C94F7010C94F7010C94F7010C94F70100
:1000A0000C94F7010C94F7010C94F7010C94F701F0
:1000B0000C94F7010C94F7010C94F7010C94F701E0
:1000C0000C94F7010C94F7010C94F701B51ABB1AC4
:1000D000BE1AC11AC41AC71ACD1ACA1AD01AD31A0C
:1000E000D61ADF1AE21AE51AE81ADC1AB21AB81A96
:1000F000EB1AEE1AD91A4661696C656420746F2098
:100100006C6F6164206D792041444320647269768C
:1001100065720D0A004661696C656420746F206F1A
:1001200070656E2073656E736F7220647269766598
:10013000720D0A00434332343230204552524F523E
:100140003A202052656C65617365206F6620736587
:100150006D6170686F7265206661696C65640D0A17
:1001600000434332343230204552524F523A20201D
:1001700041636365737320746F2073656D6170688C
:100180006F7265206661696C65640D0A00554E4B9F
:100190004F574E0045787465726E616C20526573DE
:1001A00065740042726F776E204F757420446574D9
:1001B000656374004661696C656420746F206372C6
:1001C000656174652053656D6170686F7265004686
:1001D00061696C656420746F206372656174652069
:1001E0005369676E616C004B65726E656C20667555
:1001F0006E6374696F6E206E6F7420696D706C65CC
:100200006D656E746564004465766963652044724B
:1002100069766572204572726F7200576174636807
:10022000646F67205265737461727400535720576E
:1002300061746368646F67205265737461727400DF
:1002400054696D6572204F766572666C6F770055E4
:100250006E68616E646C656420496E746572727557
:10026000707420566563746F72004C6F7720566F00
:100270006C74616765004578747261205461736BBA
:1002800020737461727465642C206973206E726BC4
:100290005F6366672E68206F6B3F0049646C652062
:1002A0006F72204B65726E656C20537461636B20B6
:1002B0004F766572666C6F7700556E657870656312
:1002C0007465642052657374617274004475706C57
:1002D000696361746564205461736B204944005301
:1002E00063686564756C6572204D6973736564201D
:1002F00057616B657570005461736B20526573654F
:100300007276652056696F6C61746564005265731E
:1003100065727665204572726F7220696E20536334
:10032000686564756C657200496E76616C696420FD
:10033000537461636B20506F696E74657200546111
:10034000736B20537461636B204F766572666C6FBC
:100350007700537461636B20776173206E6F742034
:10036000646566696E6564206173206C617267659F
:1003700020656E6F7567682100293A20002A4E5269
:100380004B204552524F5228000D0A535441434BC3
:100390002044554D500D0A004546476566670020CC
:1003A0002B2D2E3031323334353637383968000052
:1003B00011241FBECFEFD1E2DEBFCDBF13E0A0E01E
:1003C000B2E0E2E3F3E700E00BBF02C007900D925A
:1003D000A43CB107D9F715E0A4ECB3E001C01D922D
:1003E000AB39B107E1F70E94EB020C9498390C94F9
:1003F0008D2B61E087ED93E00E943F298F3F21F430
:1004000086EF90E00E948A1608950F931F938DE562
:1004100092E09093D0038093CF030AEC13E040E87E
:1004200050E061EF73E0C8010E946A2E81E0809382
:10043000D2038093D1038093D3038093D40310928B
:10044000D5031092D6031092D7031092D80380E000
:1004500091EEA5EFB5E08093D9039093DA03A093D2
:10046000DB03B093DC031092DD031092DE031092E5
:10047000DF031092E00380E890EFAAEFB2E08093F0
:10048000E1039093E203A093E303B093E40310929B
:10049000E5031092E6031092E7031092E80310922E
:1004A000E9031092EA031092EB031092EC03C801E7
:1004B0000E9410231F910F9108958F929F92AF92E7
:1004C000BF92CF92DF92EF92FF921F93CF93DF9371
:1004D000CDB7DEB722970FB6F894DEBF0FBECDBF03
:1004E0001F921F9280E092E09F938F930E94F736B5
:1004F0000E941E2199279F938F938AE192E09F93F8
:100500008F930E94F73665E081E00E945C29182FE6
:100510008DB79EB708960FB6F8949EBF0FBE8DBFDD
:100520001F3F21F485E191E00E948A167E01089424
:10053000E11CF11C29E2822E22E0922E9FE2A92EDC
:1005400092E0B92E85E3C82E82E0D82E81E090E0BB
:100550000E94B71542E061E0812F0E94CF2942E05E
:10056000B701812F0E94F12989819A819F938F93EE
:100570009F928F920E94F73645E061E0812F0E94A2
:10058000CF2942E0B701812F0E94F12989819A8108
:100590009F938F93BF92AF920E94F73646E061E03F
:1005A000812F0E94CF2942E0B701812F0E94F129BB
:1005B00089819A819F938F93DF92CF920E94F73621
:1005C0000E94D2228DB79EB70C960FB6F8949EBFAC
:1005D0000FBE8DBFBBCFCFEFD1E2DEBFCDBF0E943C
:1005E0002B1287E090E00E9469168CE392E00E9453
:1005F0000E370E94B21820E030E040E050E060E0AA
:1006000070E080E090E00E9474240E94F9010E9452
:1006100005020E94521880E090E00C949839EAE7B5
:10062000F0E083E08083ACE7B0E080E48C938081ED
:10063000806880831092F7048C91807E8C939C91CB
:100640008C91807E892B8C93089588EC90E00E9499
:10065000582A089580917A00806480937A0080916E
:100660007A0084FFFCCF0E94250320917800332775
:10067000809179009927982F8827822B932B0895B2
:10068000FF920F931F93CF93DF93CDB7DEB72297DF
:100690000FB6F894DEBF0FBECDBF0E9496058C0149
:1006A000009711F00E94A41F159AFF248F2D8062DD
:1006B00099279A83898340988BE18EBD0DB407FEFC
:1006C000FDCF89819A81892F99278EBD0DB407FEB0
:1006D000FDCF89819A818EBD0DB407FEFDCF409A72
:1006E00082E090E00E94582A40988BE58EBD0DB4C0
:1006F00007FEFDCF1EBC0DB407FEFDCF8EB59927BA
:10070000982F88279A8389831EBC0DB407FEFDCFDE
:1007100089819A812EB53327282B392B3A83298357
:10072000409A89819A8186FD05C0F3942FE1F216E3
:1007300009F0BCCF0115110519F0C8010E94BF1DB9
:10074000FF20C9F40E942A039A83898389819A81B0
:100750008F3A910530F089819A818E5A90409A8320
:10076000898389819A818A54914098F48AE491E03E
:100770009A8389830EC02DE7F29E9001112488E2AE
:1007800093E2821B930B6BE170E00E9418397A832D
:10079000698389819A8122960FB6F894DEBF0FBED5
:1007A000CDBFDF91CF911F910F91FF900895CF9210
:1007B000DF92EF92FF920F931F93CF93DF93982FC7
:1007C000EA01122F823009F481C0833030F488238B
:1007D00071F0813009F0D2C010C0843009F481C0BA
:1007E000843008F477C0853009F0C8C02DC080E897
:1007F00080BB8F9A0E940F036AC08091F6048130FB
:1008000009F4C3C09093F604772760FF13C08F9854
:100810001092F70480917C00807E80937C00909100
:100820007C0080917C00807E892B80937C0088EE08
:1008300093E09FC061FDA9C062FDA7C067707070A2
:10084000672B09F4A2C097C0822F8150823008F034
:1008500099C09091F704892F8150863018F40E9436
:100860002A0322C0992319F40E9440031DC0973027
:1008700051F5F1E0CF2EF4E0DF2EEE24FF2400E06E
:100880000E942A038C159D0508F46C01E816F906F0
:1008900008F47C018DE790E00E94582A0F5F003435
:1008A00079F7C7018C199D09123031F48883892F9B
:1008B0009927898381E008C0113029F4969587959E
:1008C00096958795888380E08F5F09C08F9A1092F4
:1008D000F60451C0613009F058C08091F70499279F
:1008E00056C0613009F051C02730D9F42093F70485
:1008F00080917C008F7780937C0080917C00806465
:1009000080937C0080917C00807E80937C0090911D
:100910007C0080917C009360807E982B90937C007B
:1009200026C0283020F081E00E9469192EC0209353
:10093000F704213049F480917C008F7780937C000C
:1009400080917C00806403C080917C00806C8093E7
:100950007C0080917C00807E80937C0090917C0064
:1009600080917C00807E892B812B80937C0088EC99
:1009700090E00E94582A81E090E009C060E08CE09D
:100980000E94411B80E090E002C08FEF90E0DF9179
:10099000CF911F910F91FF90EF90DF90CF9008952E
:1009A00099279C01265A3E4B0B97880F991F880F59
:1009B000991F280F391FF894409888E18EBD0DB417
:1009C00007FEFDCF832F99278EBD0DB407FEFDCF07
:1009D0002EBD0DB407FEFDCF409A78940895F8948B
:1009E00040981EBC0DB407FEFDCF8EB5409A78949A
:1009F00086FFF5CF08959093C5038093C4030895AF
:100A0000F894409887E08EBD0DB407FEFDCF409A64
:100A1000409886E08EBD0DB407FEFDCF409A7894D5
:100A2000089580910D0599270895CF93DF93DC01F8
:100A3000409889EC8EBD0DB407FEFDCF80E88EBDD9
:100A40000DB407FEFDCF92E09150FD01E90FF11DBD
:100A500080818EBD0DB407FEFDCF9923A9F7409A82
:100A600040988BEC8EBD0DB407FEFDCF80E88EBDA7
:100A70000DB407FEFDCF92E09D012E5F3F4FE901CF
:100A80009150F901E90FF11D80818EBD0DB407FE73
:100A9000FDCF9923A1F7409A8C9180930E05FD011B
:100AA000818180930F0588818093100583818093D5
:100AB0001105DF91CF910895409889E18EBD0DB465
:100AC00007FEFDCF83E08EBD0DB407FEFDCF86E0AF
:100AD0008EBD0DB407FEFDCF409A40988AE18EBDD1
:100AE0000DB407FEFDCF8EE08EBD0DB407FEFDCF29
:100AF0008EE08EBD0DB407FEFDCF409A81E080935D
:100B0000FE040895409889E18EBD0DB407FEFDCF27
:100B100081E08EBD0DB407FEFDCF84EC8EBD0DB41B
:100B200007FEFDCF409A1092FE0408958091FC04C8
:100B30009091FD0408952091FF04309100053860E4
:100B4000309300052093FF04409881E18EBD0DB4E1
:100B500007FEFDCF832F99278EBD0DB407FEFDCF75
:100B60002EBD0DB407FEFDCF409A08952091FF04DD
:100B700030910005377F309300052093FF044098A3
:100B800081E18EBD0DB407FEFDCF832F99278EBD69
:100B90000DB407FEFDCF2EBD0DB407FEFDCF409A6C
:100BA000089581E080930C052091FF0430910005A9
:100BB0002061309300052093FF04409881E18EBDB1
:100BC0000DB407FEFDCF832F99278EBD0DB407FE10
:100BD000FDCF2EBD0DB407FEFDCF409A08951092B3
:100BE0000C052091FF04309100052F7E3093000505
:100BF0002093FF04409881E18EBD0DB407FEFDCF28
:100C0000832F99278EBD0DB407FEFDCF2EBD0DB4E9
:100C100007FEFDCF409A089589B1992766E0969521
:100C200087956A95E1F78170907008958CB1992746
:100C300087FD90958827990F881F9927089589B176
:100C40009927E6E096958795EA95E1F7817090708F
:100C5000089580911205882319F480E090E00895AA
:100C60008091120510921205992787FD909508959D
:100C7000409888E08EBD0DB407FEFDCF409A4098A5
:100C800088E08EBD0DB407FEFDCF409A08954098D0
:100C900086E08EBD0DB407FEFDCF409A409882E1FC
:100CA0008EBD0DB407FEFDCF85E08EBD0DB407FEF1
:100CB000FDCF81E08EBD0DB407FEFDCF409A0E94AE
:100CC00038060895409882E18EBD0DB407FEFDCF31
:100CD00085E08EBD0DB407FEFDCF84E08EBD0DB462
:100CE00007FEFDCF409A0E9438060895282F33272B
:100CF0002F7030708091FF0490910005807F282B29
:100D0000392B309300052093FF04409881E18EBD7C
:100D10000DB407FEFDCF832F99278EBD0DB407FEBE
:100D2000FDCF2EBD0DB407FEFDCF409A0895282FAC
:100D3000332723703070B6E0220F331FBA95E1F7E6
:100D40008091FF04909100058F73282B392B3093ED
:100D500000052093FF04409881E18EBD0DB407FE8D
:100D6000FDCF832F99278EBD0DB407FEFDCF2EBD7D
:100D70000DB407FEFDCF409A08951F920F920FB653
:100D80000F9211242F933F934F935F936F937F9311
:100D90008F939F93AF93BF93EF93FF93CF93DF9383
:100DA000CDB7DEB72497DEBFCDBF80E88CBB679B95
:100DB00097C1679B1CC031991AC040988FE78EBDC0
:100DC0000DB407FEFDCF1EBC0DB407FEFDCF8EB5E2
:100DD000409A409888E08EBD0DB407FEFDCF409A42
:100DE000409888E08EBD0DB407FEFDCF78C14098D5
:100DF0008FE78EBD0DB407FEFDCF1EBC0DB407FE00
:100E0000FDCF4EB5409A4F774C308CF0E091010504
:100E1000F0910205242F332727FD30952B503040C9
:100E20008481992787FD909582179307ACF54098A8
:100E30008FE78EBD0DB407FEFDCF60E070E0242F7C
:100E4000332727FD309506C01EBC0DB407FEFDCF2D
:100E50006F5F7F4F862F99278217930714F431997C
:100E6000F3CF409A40988FE78EBD0DB407FEFDCFBB
:100E70001EBC0DB407FEFDCF8EB5409A409888E0A9
:100E80008EBD0DB407FEFDCF409A409888E08EBD20
:100E90000DB407FEFDCF23C1E0910105F0910205DD
:100EA0004C50438340988FE78EBD0DB407FEFDCFB5
:100EB000FE0131969E012D5F3F4F1EBC0DB407FE13
:100EC000FDCF8EB58193E217F307B9F7409AE09111
:100ED0000105F091020589819A8125E09695879513
:100EE0002A95E1F78170878340988FE78EBD0DB416
:100EF00007FEFDCF1EBC0DB407FEFDCFE09101053E
:100F0000F09102058EB58083409A40988FE78EBDA0
:100F10000DB407FEFDCF80E007C01EBC0DB407FE78
:100F2000FDCF8F5F843011F03199F7CF409A409810
:100F30008FE78EBD0DB407FEFDCF20E030E01EBC74
:100F40000DB407FEFDCFE0910105F0910205E20F1F
:100F5000F31F8EB581832F5F3F4F2230310579F724
:100F6000409A40988FE78EBD0DB407FEFDCF40E05C
:100F700050E011C01EBC0DB407FEFDCFE09101058D
:100F8000F09102050580F681E02DE60FF11D8EB58A
:100F900080834F5F5F4F642FE0910105F091020560
:100FA000242F33278381992787FD909528173907A8
:100FB0000CF3409A40988FE78EBD0DB407FC0AC031
:100FC000FCCF0DB407FEFDCF5EB5409A40988FE789
:100FD0008EBD02C01EBCF5CF0DB407FEFDCFFE01D5
:100FE00033969E012B5F3F4F1EBC0DB407FEFDCF15
:100FF0008EB58193E217F307B9F7409AE0910105A6
:10100000F09102058B81808740E020E030E00AC04B
:10101000E0910105F091020585819681A80FB91F25
:101020008C91480F822FE0910105F09102052F5F0E
:101030003F4FA82FBB278381992787FD9095A8173D
:10104000B90734F34517D1F040988FE78EBD0DB442
:1010500007FEFDCF1EBC0DB407FEFDCF8EB5409A36
:10106000409888E08EBD0DB407FEFDCF409A4098B1
:1010700088E08EBD0DB407FEFDCF31C08C81882382
:10108000A9F0E091C403F091C503309749F0809135
:101090000105909102050995909302058093010541
:1010A000809112058F5F809312051AC040988FE7D8
:1010B0008EBD0DB407FEFDCF1EBC0DB407FEFDCFE7
:1010C0008EB5409A409888E08EBD0DB407FEFDCFE6
:1010D000409A409888E08EBD0DB407FEFDCF409A3F
:1010E0002496F894DEBFCDBFDF91CF91FF91EF91B1
:1010F000BF91AF919F918F917F916F915F914F9130
:101100003F912F910F900FBE0F901F9018958091D7
:10111000FC049091FD040E94A41F409886E08EBDBF
:101120000DB407FEFDCF409A8091FC049091FD0420
:101130000E94BF1D08958091FC049091FD040E94BF
:10114000A41F409884E08EBD0DB407FEFDCF409AE9
:101150008091FC049091FD040E94BF1D0895809130
:10116000FC049091FD040E94A41F409886E08EBD6F
:101170000DB407FEFDCF409A409882E18EBD0DB4BC
:1011800007FEFDCF85E08EBD0DB407FEFDCF1EBC72
:101190000DB407FEFDCF409A40988EE28EBD0DB48F
:1011A00007FEFDCF1EBC0DB407FEFDCF1EBC0DB467
:1011B00007FEFDCF409A0E9438068091FC04909172
:1011C000FD040E94BF1D08958091FC049091FD04D0
:1011D0000E94A41F409886E08EBD0DB407FEFDCF8F
:1011E000409A409882E18EBD0DB407FEFDCF85E0A8
:1011F0008EBD0DB407FEFDCF88E08EBD0DB407FE99
:10120000FDCF409A40988EE28EBD0DB407FEFDCF13
:1012100088E18EBD0DB407FEFDCF1EBC0DB407FEE8
:10122000FDCF409A0E9438068091FC049091FD0405
:101230000E94BF1D08950F931F93082F8091FC04F7
:101240009091FD040E94A41F112707FD1095302FD7
:1012500022272068409883E18EBD0DB407FEFDCFA4
:10126000832F99278EBD0DB407FEFDCF2EBD0DB483
:1012700007FEFDCF409A8091FC049091FD040E94EE
:10128000BF1D1F910F910895CF93DF93CDB7DEB7A8
:1012900024970FB6F894DEBF0FBECDBF8091FC043B
:1012A0009091FD040E94A41F679B34C210920D050B
:1012B000679B25C0319923C040988FE78EBD0DB440
:1012C00007FEFDCF1EBC0DB407FEFDCF8EB5409AC4
:1012D000409888E08EBD0DB407FEFDCF409A40983F
:1012E00088E08EBD0DB407FEFDCF409A8091FC04CE
:1012F0009091FD040E94BF1D8FEF9FEF13C2409895
:101300008FE78EBD0DB407FEFDCF1EBC0DB407FEEA
:10131000FDCF4EB5409A4F7719F540988FE78EBDB7
:101320000DB407FEFDCF1EBC0DB407FEFDCF8EB57C
:10133000409A409888E08EBD0DB407FEFDCF409ADC
:10134000409888E08EBD0DB407FEFDCF409A809195
:10135000FC049091FD040E94BF1D8EEF9FEFE2C13F
:101360004C308CF0E0910105F0910205242F3327D9
:1013700027FD30952B5030408481992787FD90952B
:1013800082179307F4F540988FE78EBD0DB407FEE2
:10139000FDCF60E070E0242F332727FD309506C095
:1013A0001EBC0DB407FEFDCF6F5F7F4F862F9927C0
:1013B0008217930714F43199F3CF409A40988FE73E
:1013C0008EBD0DB407FEFDCF1EBC0DB407FEFDCFD4
:1013D0008EB5409A409888E08EBD0DB407FEFDCFD3
:1013E000409A409888E08EBD0DB407FEFDCF409A2C
:1013F0008091FC049091FD040E94BF1D8DEF9FEF32
:1014000091C1E0910105F09102054C504383409851
:101410008FE78EBD0DB407FEFDCFFE0131969E0114
:101420002D5F3F4F1EBC0DB407FEFDCF8EB58193DF
:10143000E217F307B9F7409AE0910105F091020530
:1014400089819A8165E0969587956A95E1F7817023
:10145000878340988FE78EBD0DB407FEFDCF1EBC7D
:101460000DB407FEFDCFE0910105F09102058EB5A8
:101470008083409A40988FE78EBD0DB407FEFDCF64
:1014800080E007C01EBC0DB407FEFDCF8F5F843027
:1014900011F03199F7CF409A40988FE78EBD0DB487
:1014A00007FEFDCF20E030E01EBC0DB407FEFDCFEF
:1014B000E0910105F0910205E20FF31F8EB58183E3
:1014C0002F5F3F4F2230310579F7409A89819A8109
:1014D00083FF56C040988FE78EBD0DB407FEFDCF49
:1014E000E8EFF4E01EBC0DB407FEFDCF8EB581938E
:1014F00084E0EC3FF807B1F7409A409889E98EBD47
:101500000DB407FEFDCF80E88EBD0DB407FEFDCF04
:1015100092E09150E92FFF27E850FB4F80818EBD6C
:101520000DB407FEFDCF9923A1F7409A40988BE9AF
:101530008EBD0DB407FEFDCF80E88EBD0DB407FE55
:10154000FDCF92E09150E92FFF27E650FB4F8081BD
:101550008EBD0DB407FEFDCF9923A1F7409A4098A8
:101560008CE08EBD0DB407FEFDCF409A81E08093E4
:101570000D05E0910105F09102058381845083837C
:1015800040988FE78EBD0DB407FEFDCF40E050E0E0
:1015900011C01EBC0DB407FEFDCFE0910105F09116
:1015A00002050580F681E02DE60FF11D8EB58083E2
:1015B0004F5F5F4F642FE0910105F0910205242FEA
:1015C00033278381992787FD9095281739070CF3D6
:1015D000409A40988FE78EBD0DB407FC0AC0FCCF3F
:1015E0000DB407FEFDCF5EB5409A40988FE78EBDE3
:1015F00002C01EBCF5CF0DB407FEFDCFFE01339631
:101600009E012B5F3F4F1EBC0DB407FEFDCF8EB574
:101610008193E217F307B9F7409AE0910105F09141
:1016200002058B81808740E020E030E00AC0E09135
:101630000105F091020585819681A80FB91F8C9153
:10164000480F822FE0910105F09102052F5F3F4F77
:10165000A82FBB278381992787FD9095A817B907E5
:1016600034F3451719F140988FE78EBD0DB407FE8E
:10167000FDCF1EBC0DB407FEFDCF8EB5409A40983D
:1016800088E08EBD0DB407FEFDCF409A409888E0FB
:101690008EBD0DB407FEFDCF409A8091FC04909161
:1016A000FD040E94BF1D8CEF9FEF3CC08C8187FF23
:1016B0000EC0809112058F5F809312058091FC040B
:1016C0009091FD040E94BF1D81E090E02BC04098E6
:1016D0008FE78EBD0DB407FEFDCF1EBC0DB407FE17
:1016E000FDCF8EB5409A409888E08EBD0DB407FEC0
:1016F000FDCF409A409888E08EBD0DB407FEFDCF27
:10170000409A8091FC049091FD040E94BF1D8BEFD4
:101710009FEF08C08091FC049091FD040E94BF1DC2
:1017200080E090E024960FB6F894DEBF0FBECDBFE8
:10173000DF91CF9108958091FC049091FD040E9467
:10174000A41F10920905409886E08EBD0DB407FED7
:10175000FDCF409A109212058091FC049091FD04F7
:101760000E94BF1DEF9808958091FC049091FD04A4
:101770000E94A41F81E080930905409883E08EBDFC
:101780000DB407FEFDCF409A409888E08EBD0DB4A1
:1017900007FEFDCF409A109212058091FC049091B3
:1017A000FD040E94BF1D08958091FC049091FD04EA
:1017B0000E94A41F81E080930905409883E08EBDBC
:1017C0000DB407FEFDCF409A409888E08EBD0DB461
:1017D00007FEFDCF409A109212058091FC04909173
:1017E000FD040E94BF1D80916A00806C80936A0096
:1017F00080E88CBBEF9A08951F93182F8091FC040A
:101800009091FD040E94A41F212F33272F71307067
:10181000206E306A409885E18EBD0DB407FEFDCF85
:10182000832F99278EBD0DB407FEFDCF2EBD0DB4BD
:1018300007FEFDCF409A8091FC049091FD040E9428
:10184000BF1D1F910895EF92FF920F931F93CF93A7
:10185000DF93CDB7DEB722970FB6F894DEBF0FBE89
:10186000CDBF8C018091FC049091FD040E94A41FC7
:101870005091FE04552339F040988DE08EBD0DB493
:1018800007FEFDCF409AF8014281642F772767FD5C
:101890007095A0E020E030E008C0F80183819481D9
:1018A000E80EF91EF7018081A80F822F2F5F3F4FAE
:1018B000E82EFF24E616F70684F3942F945F511167
:1018C0009C5F6799FECF4E99FCCFF894409889E0D1
:1018D0008EBD0DB407FEFDCF409A409889E08EBDC5
:1018E0000DB407FEFDCF409A40988EE38EBD0DB437
:1018F00007FC05C0FCCF0DB407FC30C1FCCF9EBD7A
:10190000FACF81E698E89A838983552329F0898163
:101910009A8188609A83898340988EE38EBD0DB446
:1019200007FEFDCFFE0131969E012D5F3F4F808166
:101930008EBD0DB407FEFDCF3196E217F307B9F760
:10194000409A40988EE38EBD0DB407FC05C0FCCFD5
:101950000DB407FC0EC1FCCF809103058EBDF8CFFE
:101960000DB407FEFDCF20E030E0F901EB5FFA4F48
:1019700080818EBD0DB407FEFDCF2F5F3F4F22301B
:10198000310599F7409A40988EE38EBD0DB407FE5D
:10199000FDCF20E030E0F801E20FF31F80818EBD23
:1019A0000DB407FEFDCF2F5F3F4F2230310599F771
:1019B000409A40988EE38EBD0DB407FEFDCF20E027
:1019C00030E0F901E95FFA4F80818EBD0DB407FE6A
:1019D000FDCF2F5F3F4F2230310599F7409A5523B5
:1019E00099F040988EE38EBD0DB407FEFDCFEEE07A
:1019F000F5E080818EBD0DB407FEFDCF319685E008
:101A0000E231F807B1F7409A40988EE38EBD0DB4ED
:101A100007FEFDCF20E030E00DC0F8018381948106
:101A2000480F591FFA0180818EBD0DB407FEFDCF0E
:101A30002F5F3F4F422F55274617570774F3409AA1
:101A400040988EE38EBD0DB407FC05C0FCCF0DB4ED
:101A500007FC94C0FCCFAEBDFACF80910905882366
:101A600039F4409883E08EBD0DB407FEFDCF409A57
:101A700040981EBC0DB407FEFDCF8EB5409A81FF85
:101A8000F7CF00E0409885E08EBD0DB407FEFDCF96
:101A9000409A40981EBC0DB407FEFDCF1EB5409A7B
:101AA0000F5F053651F478948091FC049091FD0409
:101AB0000E94BF1D80E090E068C084E690E00E9434
:101AC0009D1613FD08C0DECF409884E08EBD0DB496
:101AD00007FEFDCF409A78944E9BFECF4E99FECFE5
:101AE00080910C05882391F084EA92E00E949D1673
:101AF000319B0EC040988FE78EBD0DB407FEFDCF21
:101B00001EBC0DB407FEFDCF8EB5409A11E00FC08C
:101B1000409888E08EBD0DB407FEFDCF409A4098F6
:101B200088E08EBD0DB407FEFDCF409A10E0F8941A
:101B3000409886E08EBD0DB407FEFDCF409A7894A4
:101B4000809103058F5F809303058091FC04909141
:101B5000FD040E94BF1D812F992717C0409A81E480
:101B600098E89A83898380910C05882309F0C9CE6F
:101B7000CCCE409A40988EE38EBDF2CE409AF801CA
:101B80008581882309F069CF9FCF22960FB6F894FC
:101B9000DEBF0FBECDBFDF91CF911F910F91FF90A0
:101BA000EF900895BF92CF92DF92EF92FF920F9342
:101BB0001F93CF93DF93CDB7DEB722970FB6F8947C
:101BC000DEBF0FBECDBF8C016B017A018091FC049A
:101BD0009091FD040E94A41F0E941E2B409888E053
:101BE0008EBD0DB407FEFDCF409A409888E08EBDB3
:101BF0000DB407FEFDCF409A6799FECF4E99FCCFFA
:101C0000F894409889E08EBD0DB407FEFDCF409A50
:101C1000409889E08EBD0DB407FEFDCF409AF801D3
:101C20006281462F552747FD5095BB2420E030E0C8
:101C300007C0F80183819481A80FB91F8C91B80E59
:101C4000822F2F5F3F4FA82FBB27A417B5078CF318
:101C5000962F945F40988EE38EBD0DB407FC05C0AF
:101C6000FCCF0DB407FC16C1FCCF9EBDFACF81E6B8
:101C700098E89A83898340988EE38EBD0DB407FE61
:101C8000FDCFFE0131969E012D5F3F4F80818EBDBD
:101C90000DB407FEFDCF3196E217F307B9F7409A6E
:101CA00040988EE38EBD0DB407FC05C0FCCF0DB48B
:101CB00007FCF9C0FCCF809103058EBDF8CF0DB4B1
:101CC00007FEFDCF20E030E0F901EB5FFA4F8081A5
:101CD0008EBD0DB407FEFDCF2F5F3F4F2230310583
:101CE00099F7409A40988EE38EBD0DB407FEFDCF64
:101CF00020E030E0F801E20FF31F80818EBD0DB4CB
:101D000007FEFDCF2F5F3F4F2230310599F7409AF4
:101D100040988EE38EBD0DB407FEFDCF20E030E08D
:101D2000F901E95FFA4F80818EBD0DB407FEFDCF4A
:101D30002F5F3F4F2230310599F7409AB701C60116
:101D40000E94A32BF80185818823C1F180910905A8
:101D5000882339F4409883E08EBD0DB407FEFDCF93
:101D6000409A40981EBC0DB407FEFDCF8EB5409A38
:101D700081FFF7CFEE24409885E08EBD0DB407FEBD
:101D8000FDCF409A40981EBC0DB407FEFDCFFEB4B7
:101D9000409AE394F5E6EF1651F478948091FC04B0
:101DA0009091FD040E94BF1D80E090E083C084E616
:101DB00090E00E949D16F3FC08C0DDCF409884E0BF
:101DC0008EBD0DB407FEFDCF409A40988EE38EBDC8
:101DD0000DB407FEFDCFF8018281482F552747FD3E
:101DE000509520E030E00CC0F80183819481A80F69
:101DF000B91F8C918EBD0DB407FEFDCF2F5F3F4FF5
:101E0000A22FBB27A417B5077CF3409A40988EE316
:101E10008EBD0DB407FC05C0FCCF0DB407FC48C057
:101E2000FCCFBEBCFACF4E9BFECFF8944E99FECFAE
:101E3000409888E08EBD0DB407FEFDCF409A4098D3
:101E400088E08EBD0DB407FEFDCF409A409889E032
:101E50008EBD0DB407FEFDCF409A409889E08EBD3F
:101E60000DB407FEFDCF409A409886E08EBD0DB4BC
:101E700007FEFDCF409A7894809103058F5F809391
:101E800003058091FC049091FD040E94BF1D81E038
:101E900090E010C0409AF8018681882309F0E7CECF
:101EA00081E498E8E6CE409A40988EE38EBD07CF55
:101EB000409AB9CF22960FB6F894DEBF0FBECDBFC1
:101EC000DF91CF911F910F91FF90EF90DF90CF9016
:101ED000BF900895CF93DF93CDB7DEB722970FB6AB
:101EE000F894DEBF0FBECDBF9A8389839093080517
:101EF0008093070584EF91E00E94582A40988AEE6B
:101F00008EBD0DB407FEFDCF80E88EBD0DB407FE7B
:101F1000FDCFFE0131969E012D5F3F4F80818EBD2A
:101F20000DB407FEFDCF3196E217F307B9F7409ADB
:101F300084EF91E00E94582A22960FB6F894DEBFF3
:101F40000FBECDBFDF91CF9108956F927F928F9298
:101F50009F92AF92BF92CF92DF92EF92FF920F9338
:101F60001F93CF93DF93CDB7DEB722970FB6F894C8
:101F7000DEBF0FBECDBF8C0184E690E00E94582AE0
:101F80007801C12C01E0D02E3E010894611C711C27
:101F900013E0812E912C8C0E9D1EF70180812181F2
:101FA00033279927982F8827282B392B3A83298381
:101FB00084E690E00E94582A40988C2D80688EBD5F
:101FC0000DB407FEFDCFC60195958795807C8EBD2B
:101FD0000DB407FEFDCF83015301F50180818EBD55
:101FE0000DB407FEFDCF0894A11CB11CA814B904C0
:101FF000A1F7409A0894E11CF11C82E090E0C80E21
:10200000D91E90E1C91691E0D90639F684E690E030
:102010000E94582A20E131E040E451E01A821982FE
:102020004098842F80688EBD0DB407FEFDCFCA0195
:1020300095958795807C8EBD0DB407FEFDCFF80188
:1020400080818EBD0DB407FEFDCF3196EA15FB05EC
:10205000B9F7409A4098822F80688EBD0DB407FE74
:10206000FDCFC90195958795807C8EBD0DB407FE87
:10207000FDCFF80180818EBD0DB407FEFDCF3196F6
:10208000EA15FB05B9F7409A2E5F3F4F4E5F5F4F51
:10209000E1E02E313E0711F681E090E09A838983DA
:1020A00040988EEC8EBD0DB407FEFDCF80E88EBD4E
:1020B0000DB407FEFDCFF80180818EBD0DB407FE83
:1020C000FDCF3196EA15FB05B9F7409A40988EE9A5
:1020D0008EBD0DB407FEFDCF80E88EBD0DB407FEAA
:1020E000FDCFF80180818EBD0DB407FEFDCF0F5FDF
:1020F0001F4F0A151B05A9F7409A22960FB6F894B0
:10210000DEBF0FBECDBFDF91CF911F910F91FF902A
:10211000EF90DF90CF90BF90AF909F908F907F9087
:102120006F900895F894409881E08EBD0DB407FE3D
:10213000FDCF409A88EE93E00E94582A7894089543
:102140001F93CF93DF93EC01162F8091FC049091A5
:10215000FD040E94A41F409888E08EBD0DB407FEC8
:10216000FDCF409A409888E08EBD0DB407FEFDCFAC
:10217000409A812F0E94D004D0930205C09301059C
:102180008091FC049091FD040E94BF1DDF91CF91CE
:102190001F9108951F93182F8091FC049091FD04C6
:1021A0000E94A41F812F0E94D0048091FC04909172
:1021B000FD040E94BF1D1F910895DF92EF92FF92D0
:1021C0000F931F93CF93DF93CDB7DEB722970FB650
:1021D000F894DEBF0FBECDBF8C01D62E5A83498343
:1021E000790164E181E00E94441D9093FD04809395
:1021F000FC04892B31F40E941E21682F8FE00E947D
:10220000411B8091FC049091FD040E94A41F8F3F0C
:1022100021F481E691E00E948A16159A88EE93E0F7
:102220000E949D16169881E090E00E949D16169AD5
:1022300084E690E00E949D16F894409881E08EBD5F
:102240000DB407FEFDCF409A82EE92E09093000518
:102250008093FF04409881E18EBD0DB407FEFDCF51
:1022600082E08EBD0DB407FEFDCF82EE8EBD0DB4B3
:1022700007FEFDCF409A409882E18EBD0DB407FE67
:10228000FDCF85E08EBD0DB407FEFDCF1EBC0DB4A5
:1022900007FEFDCF409A40988CE18EBD0DB407FE3D
:1022A000FDCF1EBC0DB407FEFDCF8FE78EBD0DB474
:1022B00007FEFDCF409A409889E18EBD0DB407FE20
:1022C000FDCF81E08EBD0DB407FEFDCF84EC8EBD49
:1022D0000DB407FEFDCF409A409887E18EBD0DB446
:1022E00007FEFDCF8AE18EBD0DB407FEFDCF86E56A
:1022F0008EBD0DB407FEFDCF409A84EF91E00E94A1
:10230000582A409888EE8EBD0DB407FEFDCF80E8B8
:102310008EBD0DB407FEFDCFFE0131969E012D5FEF
:102320003F4F80818EBD0DB407FEFDCF3196E21781
:10233000F307B9F7409A84EF91E00E94582A789405
:102340008D2D0E94D004789410930205009301050E
:1023500089819A819093060580930505F09208057E
:10236000E092070510920305109209050E94EF0400
:102370008091FC049091FD040E94BF1D8F3F39F4B1
:1023800084E391E00E948A1682E00E94691910920B
:102390000C051092FE0410920D0522960FB6F894CB
:1023A000DEBF0FBECDBFDF91CF911F910F91FF9088
:1023B000EF90DF90089580914D020E94321280913B
:1023C0004C020E943212089580914D020E943212F6
:1023D00080914C020E94B71208958FEF9FEF0895ED
:1023E000813051F48091C800992787FD9095882706
:1023F000990F881F99270895882319F080E090E0AD
:1024000008958091C000992787FD90958827990F9E
:10241000881F992708958091C80087FFFCCF80917D
:10242000C8008F778093C8008091CE0099270895C7
:1024300085B7806185BF86E084B985B981E087B9B9
:1024400088B98CE38DB98BE08AB98EE38EB988E7C1
:1024500081B9169A08950E94181280E58CBD81E01A
:102460008DBD08958F3F09F47FC0482F55279A01ED
:102470002770307022303105A9F12330310544F442
:102480002115310589F02130310509F06DC01CC0DE
:102490002430310509F446C0243031059CF1253043
:1024A000310509F061C04EC022B1B3E056954795A1
:1024B000BA95E1F781E090E002C0880F991F4A9534
:1024C000E2F7282B22B94DC085B1A3E05695479578
:1024D000AA95E1F702C0220F331F4A95E2F7822B3B
:1024E00085B93FC028B1F3E056954795FA95E1F7D5
:1024F00081E090E002C0880F991F4A95E2F7282BEF
:1025000028B92FC02BB1E3E056954795EA95E1F73E
:1025100081E090E002C0880F991F4A95E2F7282BCE
:102520002BB91FC02EB173E0569547957A95E1F708
:1025300081E090E002C0880F991F4A95E2F7282BAE
:102540002EB90FC021B363E0569547956A95E1F720
:1025500081E090E002C0880F991F4A95E2F7282B8E
:1025600021BB81E090E008958FEF9FEF08958F3FAA
:1025700009F486C0482F55279A0127703070223001
:102580003105C1F12330310544F42115310589F0BD
:102590002130310509F074C01DC02430310509F423
:1025A0004BC024303105BCF12530310509F068C03D
:1025B00054C022B1E3E056954795EA95E1F781E0F2
:1025C00090E002C0880F991F4A95E2F78095822318
:1025D00082B953C095B173E0569547957A95E1F766
:1025E00002C0220F331F4A95E2F7822F809589237C
:1025F00085B943C028B163E0569547956A95E1F7E0
:1026000081E090E002C0880F991F4A95E2F780951B
:10261000822388B932C02BB133E0569547953A955D
:10262000E1F781E090E002C0880F991F4A95E2F738
:10263000809582238BB921C02EB193E056954795A2
:102640009A95E1F781E090E002C0880F991F4A95C2
:10265000E2F7809582238EB910C021B383E05695AE
:1026600047958A95E1F781E090E002C0880F991FB5
:102670004A95E2F78095822381BB81E090E008953E
:102680008FEF9FEF08958F3FA9F1282F3327C901BE
:102690008770907082309105A9F0833091052CF4F9
:1026A000009761F0019731F50BC08430910571F00E
:1026B000843091054CF00597E9F40AC080B109C057
:1026C00083B107C086B105C089B103C08CB101C018
:1026D0008FB19927F3E036952795FA95E1F702C077
:1026E000959587952A95E2F7992787FD90958170B2
:1026F000907008958FEF9FEF08958F3F09F403C105
:10270000282F3327A901477050704230510509F432
:102710005CC04330510544F44115510591F04130FE
:10272000510509F0F0C034C04430510509F49BC094
:10273000443051050CF470C04530510509F0E3C038
:10274000B9C080B1A90173E0569547957A95E1F734
:102750009927042E02C0959587950A94E2F780FD8B
:102760000BC022B181E090E002C0880F991F4A950A
:10277000E2F7282B22B9C4C022B181E090E002C068
:10278000880F991F4A95E2F78095822382B9B8C0D5
:1027900083B163E0369527956A95E1F79927022E74
:1027A00002C0959587950A94E2F702C0440F551F21
:1027B0002A95E2F780FD03C085B1842B04C095B152
:1027C000842F8095892385B99BC086B1A90123E018
:1027D000569547952A95E1F79927042E02C09595BD
:1027E00087950A94E2F780FD0BC028B181E090E064
:1027F00002C0880F991F4A95E2F7282B28B980C09C
:1028000028B181E090E002C0880F991F4A95E2F755
:102810008095822388B974C089B1A90193E0569547
:1028200047959A95E1F79927042E02C095958795CB
:102830000A94E2F780FD0BC02BB181E090E002C06A
:10284000880F991F4A95E2F7282B2BB959C02BB155
:1028500081E090E002C0880F991F4A95E2F78095C9
:1028600082238BB94DC08CB1A901B3E05695479531
:10287000BA95E1F79927042E02C0959587950A9499
:10288000E2F780FD0BC02EB181E090E002C0880F1E
:10289000991F4A95E2F7282B2EB932C02EB181E05C
:1028A00090E002C0880F991F4A95E2F78095822335
:1028B0008EB926C08FB1A901A3E056954795AA9578
:1028C000E1F79927042E02C0959587950A94E2F7BF
:1028D00080FD0BC021B381E090E002C0880F991FFA
:1028E0004A95E2F7282B21BB0BC021B381E090E091
:1028F00002C0880F991F4A95E2F78095822381BB19
:1029000081E090E008958FEF9FEF08958F3F09F4E5
:102910001BC1482F5527662309F099C0CA0187704B
:1029200090708230910509F43EC0833091053CF4EB
:10293000009789F08130910509F006C121C08430EB
:10294000910509F45AC0843091050CF441C00597F3
:1029500009F0FAC067C031B1B3E056954795BA9512
:10296000E1F781E090E002C0880F991F4A95E2F7F5
:10297000282F2095232321B922B1822B82B9E1C0CF
:1029800024B1A3E056954795AA95E1F702C0880FB8
:10299000991F4A95E2F7982F8095822384B985B1D3
:1029A000982B95B9CEC037B1F3E056954795FA9577
:1029B000E1F781E090E002C0880F991F4A95E2F7A5
:1029C000282F2095232327B928B1822B88B9B9C095
:1029D0003AB1E3E056954795EA95E1F781E090E05A
:1029E00002C0880F991F4A95E2F7282F20952323CC
:1029F0002AB92BB1822B8BB9A4C03DB173E0569597
:102A000047957A95E1F781E090E002C0880F991F21
:102A10004A95E2F7282F209523232DB92EB1822B3A
:102A20008EB98FC030B363E0569547956A95E1F74C
:102A300081E090E002C0880F991F4A95E2F7282FA5
:102A40002095232320BB21B3822B81BB7AC09A011E
:102A50002770307022303105A9F12330310544F45C
:102A60002115310589F02130310509F06DC01CC0F8
:102A70002430310509F446C0243031059CF125305D
:102A8000310509F061C04EC021B133E0569547953C
:102A90003A95E1F781E090E002C0880F991F4A95CE
:102AA000E2F7282B21B94DC084B193E056954795A4
:102AB0009A95E1F702C0220F331F4A95E2F7822B65
:102AC00084B93FC027B1B3E056954795BA95E1F771
:102AD00081E090E002C0880F991F4A95E2F7282B09
:102AE00027B92FC02AB1A3E056954795AA95E1F7DB
:102AF00081E090E002C0880F991F4A95E2F7282BE9
:102B00002AB91FC02DB1F3E056954795FA95E1F724
:102B100081E090E002C0880F991F4A95E2F7282BC8
:102B20002DB90FC020B3E3E056954795EA95E1F73C
:102B300081E090E002C0880F991F4A95E2F7282BA8
:102B400020BB81E090E008958FEF9FEF08958823E8
:102B500019F08FEF9FEF089580B1992787FD909529
:102B6000809590958827990F881F99270895009739
:102B700011F484E109C08130910511F48CE104C0A5
:102B80008230910531F484E20E947D1381E090E06F
:102B90000895039719F08FEF9FEF08958CE20E943C
:102BA0007D1381E090E00895009711F484E109C05D
:102BB0008130910511F48CE104C08230910531F42B
:102BC00084E20E94321281E090E00895039719F0A8
:102BD0008FEF9FEF08958CE20E94321281E090E027
:102BE0000895009711F484E109C08130910511F432
:102BF0008CE104C08230910531F484E20E94B71266
:102C000081E090E00895039719F08FEF9FEF08950A
:102C10008CE20E94B71281E090E00895882319F0B9
:102C200085B78F7E02C085B7806185BF81E090E067
:102C30000895982F8091C00085FFFCCF8091C0003F
:102C40008F7D8093C0009093C6000895982F809147
:102C5000C80085FFFCCF9093CE000895292F33271D
:102C60002093C5008093C40086E08093C200E1EC0D
:102C7000F0E080818B7F8083A0ECB0E08C9182605B
:102C80008C938081886180830895292F3327209336
:102C9000CD008093CC0086E08093CA00E9ECF0E0A0
:102CA00080818B7F8083A8ECB0E08C9182608C93D4
:102CB00080818861808308958091C00087FFFCCF68
:102CC0008091C0008F778093C0008091C6009927C3
:102CD0000895EF92FF920F931F930E9445160BE009
:102CE00012E156E2E52E56E1F52EB801C7010E9429
:102CF0007C369093940580939305B801C7010E9498
:102D00007C3690939205809391051F910F91FF90CF
:102D1000EF900895CF93DF93EC0107C06091930586
:102D20007091940599270E94CA36FE0121968491DC
:102D30008823A1F7DF91CF910895000000000000E3
:102D400000000197D1F70895FC01A7E0B0E00E94D0
:102D50008439802D808381E090E00895FC0180819A
:102D6000A7E0B0E0082E0E948C3981E090E0089541
:102D7000DC010E948439802D99270895FC01A0E090
:102D8000B0E00E948439402D4383A1E0B0E00E946E
:102D90008439802D8283A2E0B0E00E948439302DF6
:102DA0003183A3E0B0E00E948439902D9083A4E0A9
:102DB000B0E00E948439202D830F840F890F2817DB
:102DC00019F481E090E008958FEF9FEF0895FC01E2
:102DD000A5E0B0E00E948439802D808381E090E0FE
:102DE0000895FC01A6E0B0E00E948439802D808324
:102DF00081E090E00895AC0120E030E0D901189620
:102E00000E948439802DFA01E20FF31F80832F5F27
:102E10003F4F2031310591F781E090E00895DC01CA
:102E2000062E0E948C390895FC018081A6E0B0E056
:102E3000082E0E948C3981E090E00895AC0120E0DA
:102E400030E0D9011896FA01E20FF31F8081082EB5
:102E50000E948C392F5F3F4F2031310591F781E07F
:102E600090E00895F89408957894089585E690E0A8
:102E700008950E943B270895EF92FF920F931F93AE
:102E8000CF93DF93EC018B017A018985823021F0A9
:102E900080915F05888301C0188280915F05823030
:102EA00020F060E087E00E94411B8985823029F094
:102EB00080915F058F5F80935F0580915F05882318
:102EC00019F481E080935F058881992787FD9095AB
:102ED000FC0145E0EE0FFF1F4A95E1F7E80FF91FEF
:102EE000EB5EFA4F118300838881992787FD9095C7
:102EF000FC0135E0EE0FFF1F3A95E1F7E80FF91FEF
:102F0000EB5EFA4F888582878881992787FD9095A7
:102F1000FC0125E0EE0FFF1F2A95E1F7E80FF91FEE
:102F2000EB5EFA4F83E081872881822F992787FD06
:102F30009095FC0105E0EE0FFF1F0A95E1F7E80F01
:102F4000F91FEB5EFA4F20878881992787FD9095BE
:102F5000FC0115E0EE0FFF1F1A95E1F7E80FF91FCE
:102F6000EB5EFA4F15820881112707FD1095CE01FF
:102F70000B960E948524F801B5E0EE0FFF1FBA956D
:102F8000E1F7E00FF11FEB5EFA4F948F838F08811A
:102F9000112707FD1095CE014B960E948524F8015C
:102FA000A5E0EE0FFF1FAA95E1F7E00FF11FEB5E22
:102FB000FA4F968B858B8881992787FD9095FC0128
:102FC00075E0EE0FFF1F7A95E1F7E80FF91FEB5E52
:102FD000FA4F85899689238D348D820F931F908FA8
:102FE000878B0881112707FD1095CE0143960E941B
:102FF0008524F80165E0EE0FFF1F6A95E1F7E00F09
:10300000F11FEB5EFA4F968F858F8881992787FD98
:103010009095FC0155E0EE0FFF1F5A95E1F7E80F80
:10302000F91FEB5EFA4F858D968D928F818F888187
:10303000992787FD9095FC0145E0EE0FFF1F4A950B
:10304000E1F7E80FF91FEB5EFA4F81E090E090A303
:10305000878F8881992787FD9095FC0135E0EE0FD9
:10306000FF1F3A95E1F7E80FF91FEB5EFA4FF38285
:10307000E2828881992787FD9095FC0125E0EE0F7B
:10308000FF1F2A95E1F7E80FF91FEB5EFA4F81E089
:10309000848781E090E0DF91CF911F910F91FF90A5
:1030A000EF9008958F929F92AF92BF92CF92DF924E
:1030B000EF92FF920F931F93CF93DF936DE1A62EB4
:1030C00065E0B62ECC24DD244501EC2CF501F08022
:1030D000FFEFFF1691F0E40100E010E0E01639F098
:1030E0008881F81621F46F2D85E00E94411B0F5F47
:1030F0001F4FA1960230110589F70894C11CD11CFD
:1031000081E290E0A80EB91E92E0C916D104E9F65A
:103110000E943320282F332727FD3095F90155E0F1
:10312000EE0FFF1F5A95E1F7E20FF31FEB5EFA4F28
:1031300032853093720521E28202C00111248B5E38
:103140009A4F9093710580937005909362058093D8
:103150006105309363050E94652E0E944B2E0E94EC
:10316000892EFFCF0F931F93CF93DF93CDB7DEB799
:10317000A3970FB6F894DEBF0FBECDBF0E94821C8E
:10318000809360058F3F21F460E08EE00E94411B38
:103190000E94242C082F112700FF04C060E086E065
:1031A0000E94411B01FF04C060E084E10E94411BBA
:1031B00002FF04C060E083E10E94411B109263059E
:1031C00010927105109270051092620510926105BF
:1031D0001092720510926F058FEF809359058093BE
:1031E0005B0580935A0580935C0580935E05809310
:1031F0005D0593E690931F0580931D059093400510
:1032000080933E0588E795E0909377058093760557
:103210009C012550304030937A052093790505961E
:1032200090937C0580937B05059790937F05809311
:103230007E0510927505109274051092810510920A
:103240008005109266051092650530931405209351
:10325000130567E177E28E010F5F1F4FC8010E94DF
:10326000092E40E850E066E774E0C8010E946A2E2B
:1032700085E58093760419861C861D861E861F862A
:10328000188A198A1A8A1B8A1C8A1D8A1E8A1F8A12
:10329000188E198E1A8E1B8E1C8E1D8E1E8E1F8EE2
:1032A00018A219A21AA21BA291E0988782E08A872D
:1032B0009B87C8010E941023A3960FB6F894DEBF27
:1032C0000FBECDBFDF91CF911F910F910895F8945C
:1032D000FFCFE0917005F091710584870895E0912A
:1032E0007005F0917105848599270895DC01FB0133
:1032F00080917504882319F480E090E0089580831C
:103300008091C8038C9381E090E00895CF93DF9380
:10331000CDB7DEB721970FB6F894DEBF0FBECDBF95
:10332000198207C080ED97E00E94582A89818F5F3B
:10333000898389818436B0F321960FB6F894DEBF75
:103340000FBECDBFDF91CF91089581E090E00E9444
:10335000F1150E94861981E090E00E94D4150E9428
:103360008619089581E090E00E94F1150E94861967
:103370000E9486190E94861981E090E00E94D4156F
:103380000E9486190895EF92FF920F931F93CF9397
:10339000DF93CDB7DEB723970FB6F894DEBF0FBE2D
:1033A000CDBF99279F938F938DE692E09F938F9344
:1033B0008E010F5F1F4F1F930F930E944137EE2422
:1033C000FF248DB79EB706960FB6F8949EBF0FBE2A
:1033D0008DBF73C0A00FB11F8C918433D1F18533A1
:1033E00070F48133F9F0823320F4803309F05CC04B
:1033F00016C0823311F1833309F056C023C08733DE
:10340000C9F1883330F4853369F1863309F04CC053
:103410002CC08833B1F1893309F046C03BC00E940B
:10342000B21902C00E94A5190E94B2190E94B219D5
:103430000E94B2190E94B21937C00E94A5190E94B9
:10344000A519F4CF0E94A5190E94A5190E94A519DB
:10345000EFCF0E94A5190E94A5190E94A5190E94EC
:10346000A519E8CF0E94A51902C00E94B2190E94B6
:10347000A51904C00E94B2190E94B2190E94A51990
:1034800006C00E94B2190E94B2190E94B2190E948D
:10349000A51908C00E94B2190E94B2190E94B2195F
:1034A0000E94B2190E94A5190E9486190E948619CD
:1034B0000E9486190894E11CF11CAE2DBB27F8016F
:1034C00001900020E9F73197E01BF10BAE17BF0721
:1034D00008F480CF23960FB6F894DEBF0FBECDBFA1
:1034E000DF91CF911F910F91FF90EF9008950F936F
:1034F0001F9380917504882309F4BEC00E9432177F
:103500000E9432178DE793E00E948A168091C803CB
:1035100099279F938F938DE692E09F938F930E94BC
:10352000F73689E793E00E948A160F900F900F906C
:103530000F9080917504873110F01092750480917E
:1035400075049927AA27BB27FC013197E531F105BE
:1035500008F047C0EA59FF4FEE0FFF1F0590F491A6
:10356000E02D099482E593E03EC08EE393E03BC0FA
:1035700088E293E038C08DE093E035C087EF92E0B9
:1035800032C08FED92E02FC08CEC92E02CC089EB22
:1035900092E029C08BE992E026C086E792E023C042
:1035A0008AE692E020C08FE492E01DC080E492E0C1
:1035B0001AC08CE292E017C08BE192E014C087E061
:1035C00092E011C087EE91E00EC08FEC91E00BC04D
:1035D00084EB91E008C083EA91E005C084E991E0C2
:1035E00002C08DE891E00E948A1660919305709167
:1035F00094058DE090E00E94CA3660919305709129
:1036000094058AE090E00E94CA3600E021C082E082
:1036100090E00E94F11583E090E00E94D41510E044
:1036200088EE93E00E94582A1F5F1436C9F783E0A2
:1036300090E00E94F11582E090E00E94D41510E025
:1036400088EE93E00E94582A1F5F1436C9F70F5F77
:103650000431ECF283E090E00E94D41582E090E027
:103660000E94D4158091C8030E94C31980917504EB
:103670000E94C31900E0CBCF80E090E01F910F9132
:103680000895EF92FF920F931F93E82EF62E8093EA
:1036900075046093C8030E94771A00E021C082E09D
:1036A00090E00E94F11583E090E00E94D41510E0B4
:1036B00088EE93E00E94582A1F5F1436C9F783E012
:1036C00090E00E94F11582E090E00E94D41510E095
:1036D00088EE93E00E94582A1F5F1436C9F70F5FE7
:1036E0000431E8F283E090E00E94D41582E090E09B
:1036F0000E94D4158F2D0E94C3198E2D0E94C319CC
:1037000000E0CDCF80937504E0917005F0917105D4
:1037100080858093C8030E94771A0895992787FDB2
:103720009095FC0125E0EE0FFF1F2A95E1F7E80FC9
:10373000F91FEB5EFA4FA281B3818C91853529F098
:1037400085E58C938FEF9FEF089580819181805064
:10375000924218F481E090E0089582E10E94821B79
:103760008FEF9FEF08956F927F928F929F92AF920B
:10377000BF92CF92DF92EF92FF920F931F93CF935E
:10378000DF9389E893E00E948A16E0917005F0913A
:1037900071058085992787FD90959F938F9380E78A
:1037A00092E09F938F930E94F736E0917005F0911D
:1037B0007105028113811F930F9389E792E09F9314
:1037C0008F930E94F736F801808199279F938F93FA
:1037D00056E8C52E52E0D52EDF92CF920E94F736E2
:1037E000E0917005F0917105808191819F938F9395
:1037F00043E9E42E42E0F42EFF92EF920E94F73666
:1038000080917005909171059F938F930DE912E05F
:103810001F930F930E94F736C5E1D5E0AA24BB247D
:103820008DB79EB744960FB6F8949EBF0FBE8DBF5E
:103830003DEA632E32E0732E4601670178010A816A
:103840001B811F930F93BF92AF927F926F920E9442
:10385000F736F801808199279F938F939F928F92DB
:103860000E94F736888199819F938F93DF92CF9240
:103870000E94F736DF93CF93FF92EF920E94F736C4
:103880000894A11CB11CA1968DB79EB742960FB6A5
:10389000F8949EBF0FBE8DBF92E0A916B10479F6D1
:1038A000DF91CF911F910F91FF90EF90DF90CF901C
:1038B000BF90AF909F908F907F906F900895CF931F
:1038C000DF93E0917005F0917105C281D381888109
:1038D000853539F00E94B31B81E00E94821B85E58B
:1038E0008883E0917005F09171058081918180500D
:1038F000924228F00E94B31B82E10E94821BDF915A
:10390000CF9108954091ED035091EE036091EF0344
:103910007091F00320E030E0DB01CA01022E04C008
:10392000B695A795979587950A94D2F78170907070
:10393000892BE9F481E090E0A0E0B0E0022E04C021
:10394000880F991FAA1FBB1F0A94D2F7842B952BAF
:10395000A62BB72B8093ED039093EE03A093EF0378
:10396000B093F003822F992787FD909508952F5FDC
:103970003F4F2032310581F68FEF9FEF0895E091A0
:103980007005F09171056585768587859089089524
:10399000EF92FF920F931F9321E030E040E050E060
:1039A00004C0220F331F441F551F8A95D2F7E091A0
:1039B0007005F0917105E584F68407851089DA01B8
:1039C000C9018E219F21A023B1230097A105B10534
:1039D00019F48FEF9FEF1AC02095309540955095C0
:1039E000E222F32204231523E586F6860787108B4F
:1039F00081899289A389B48982239323A423B5233F
:103A0000818B928BA38BB48B81E090E01F910F91FF
:103A1000FF90EF900895682F772767FD709580914C
:103A2000ED039091EE03A091EF03B091F003062E09
:103A300004C0B695A795979587950A94D2F781709B
:103A40009070892B19F48FEF9FEF0895E091700526
:103A5000F091710521E030E040E050E004C0220F19
:103A6000331F441F551F6A95D2F785859685A78514
:103A7000B089822B932BA42BB52B85879687A7879C
:103A8000B08B81E090E00895382F80916F058823F6
:103A900019F080E090E00895809159058F3F11F46E
:103AA00020E007C080915C058F3F11F022E001C04B
:103AB00021E0822F9927FC01EE0FFF1FE80FF91F6D
:103AC000E75AFA4F32833083618381E080936F0538
:103AD00083E0289FC0011124875A9A4F089525E05A
:103AE0008935920711F480E007C08C55954019F094
:103AF0008FEF9FEF089581E0992787FD90950895B6
:103B00000E946F1D8F3F11F481E002C0823029F4C2
:103B10000E9469198FEF9FEF0895992787FD90956F
:103B2000FC01EE0FFF1FE80FF91FE75AFA4F8FEF66
:103B300080838283818380916F05815080936F059C
:103B400081E090E008950E946F1D8F3F11F481E0A5
:103B500002C0823029F40E9469198FEF9FEF089507
:103B6000992787FD9095FC01EE0FFF1FE80FF91FC5
:103B7000E75AFA4F8281992787FD909508951F9300
:103B8000CF93DF930E946F1D182F8F3F11F481E0B8
:103B900003C0823031F482E00E9469198FEF9FEFF9
:103BA0006DC0992787FD9095EC01CC0FDD1FC80FE4
:103BB000D91FC75ADA4F9A81888198170CF05CC0D8
:103BC0000E9432178A818F5F8A83E0917005F0919D
:103BD0007105148280911C05823021F5212F332735
:103BE00027FD3095432F532F80912605909127056F
:103BF000A0912805B091290582179307A407B5075E
:103C000089F483E080931E0510922B0510922A05FB
:103C100010921C0510922605109227051092280577
:103C20001092290580913D05823021F5212F3327FF
:103C300027FD3095432F532F8091470590914805DC
:103C4000A0914905B0914A0582179307A407B507CB
:103C500089F483E080933F0510924C0510924B0548
:103C600010923D05109247051092480510924905A3
:103C700010924A050E94341781E090E0DF91CF91C5
:103C80001F910895DF92EF92FF920F931F93E1E04F
:103C9000EE2EF12C012D112D04C0EE0CFF1C001F87
:103CA000111F8A95D2F78091ED039091EE03A091B8
:103CB000EF03B091F0038E219F21A023B123009741
:103CC000A105B10511F481E043C00E943217ECE177
:103CD000F5E0DD2480818130B9F482859385A48567
:103CE000B5858E219F21A023B1230097A105B105A1
:103CF00059F083E08283178616861082E286F38667
:103D000004871587DD24D39480818230A1F48285D5
:103D10009385A485B5858E159F05A007B10759F435
:103D200083E0828317861686108212861386148695
:103D30001586DD24D394B19685E0EE35F80751F66B
:103D40000E943417DD2019F081E090E005C082E088
:103D50000E9469198FEF9FEF1F910F91FF90EF90D5
:103D6000DF900895EF92FF920F931F93CF93DF930D
:103D7000C82FDD27C7FDD095F1E0EF2EF12C012DE6
:103D8000112D0C2E04C0EE0CFF1C001F111F0A94F5
:103D9000D2F78091ED039091EE03A091EF03B091E3
:103DA000F0038E219F21A023B1230097A105B10527
:103DB00019F48FEF9FEFC1C00E94321780911D054B
:103DC0008F3F09F44AC08091220590912305A0916C
:103DD0002405B09125058E159F05A007B10779F13F
:103DE000D801C70180959095A095B09520912205A6
:103DF000309123054091240550912505282339232E
:103E00004A235B2320932205309323054093240506
:103E100050932505209126053091270540912805CE
:103E20005091290582239323A423B523809326054B
:103E300090932705A0932805B09329050EC01092F2
:103E40002605109227051092280510922905109238
:103E50001C0583E080931E05C3CF80913E058F3FF4
:103E600009F448C08091430590914405A09145050F
:103E7000B09146058E159F05A007B10769F4109211
:103E80004705109248051092490510924A05109274
:103E90003D0583E080933F05D801C701809590954B
:103EA000A095B0952091430530914405409145057A
:103EB00050914605282339234A235B232093430549
:103EC000309344054093450550934605209147059E
:103ED000309148054091490550914A05822393232A
:103EE000A423B5238093470590934805A0934905E3
:103EF000B0934A052EEF3FEF4FEF5FEF04C0220F64
:103F0000331F441F551FCA95D2F78091ED0390913E
:103F1000EE03A091EF03B091F00382239323A42337
:103F2000B5238093ED039093EE03A093EF03B0933A
:103F3000F0030E94341781E090E0DF91CF911F9150
:103F40000F91FF90EF9008951F93CF93DF930E94FE
:103F50006F1D182F8F3F11F481E003C0823031F4C0
:103F600082E00E9469198FEF9FEF3EC00E943217D6
:103F7000812F992787FD9095EC01CC0FDD1FC80F8D
:103F8000D91FC75ADA4F8A818823D9F4E091700586
:103F9000F0917105878182608783E0917005F091CF
:103FA0007105812F992787FD9095A92FB92F818BB6
:103FB000928BA38BB48B0E94341780E090E00E9418
:103FC0003D228A8181508A83E0917005F0917105CC
:103FD00089818387E0917005F091710581E0848388
:103FE0000E94341781E090E0DF91CF911F910895F6
:103FF0009B01AC01E0917005F09171058585968576
:10400000A785B08982239323A423B5230097A10514
:10401000B10529F460E070E080E090E00895218B24
:10402000328B438B548B81E087830090600504C002
:1040300056954795379527950A94D2F7C90181700F
:104040009070892B19F00E94DE2104C080E090E07E
:104050000E943D22E0917005F0917105618972899D
:10406000838994890895E0916505F09166058081C2
:1040700099270895E0916505F091660503C00380D6
:10408000F481E02D3097D9F70895CF93DF93482F2F
:10409000C0911305D0911405209709F47AC0A0911E
:1040A0006505B09166051097B9F1992787FD909540
:1040B0009C0165E0220F331F6A95E1F7280F391F35
:1040C0002B5E3A4F8C919927BC0155E0660F771F04
:1040D0005A95E1F7680F791F6B5E7A4FFB01848177
:1040E000882329F09385F90182859817A8F0F901B2
:1040F0008481882331F0FB019285F901838598172B
:1041000058F0FB019285F9018285981728F0FD018E
:10411000A381B4811097B1F64883E0911305F09123
:104120001405238134813093140520931305809165
:10413000650590916605A817B907A1F4109731F0AD
:10414000BC83AB831A821982FD0105C01C821B82CD
:104150001A821982F901D283C183D0936605C09374
:10416000650517C0FD0181819281A217B30751F047
:104170009A838983BC83AB8381819281FC01D48340
:10418000C38304C01C821B829A838983FD01D2836E
:10419000C183DF91CF910895CF93DF93A0916505FF
:1041A000B0916605109709F446C0482F552747FD82
:1041B00050958C9199278417950769F4ED01EB814F
:1041C000FC81F0936605E09365051282118216C0AA
:1041D000D901232B81F18C919927FD012381348111
:1041E00084179507A9F7C181D2813C832B838381F2
:1041F0009481009719F0FC01D283C183E0911305EB
:10420000F0911405309741F4B0931405A093130571
:10421000ED011C821B8209C0ED01FC83EB83B2839C
:10422000A183B0931405A0931305E0911305F091B9
:10423000140512821182DF91CF910895E0917005EB
:10424000F09171058085992708950E94FE2DE091D7
:104250007005F091710585818823B9F70895FF9263
:104260000F931F93CF93DF93CDB7DEB728970FB689
:10427000F894DEBF0FBECDBF29833A834B835C83A6
:104280006D837E838F8398870E945F1C0E94321704
:10429000E0917005F091710581E0858381E090E007
:1042A00090A3878F0E941E2BF82ECE0101960E94AC
:1042B0008524E0917005F09171050F2D1127800F75
:1042C000911F968B858B87EF8F1570F00E94AA2A1D
:1042D0000E5F1F4F99278017910734F08F2D8E5F47
:1042E000809374040E94AF2A0E9434170E942521F3
:1042F00081E090E028960FB6F894DEBF0FBECDBFE8
:10430000DF91CF911F910F91FF9008958F929F920F
:10431000AF92BF92CF92DF92EF92FF920F931F93D3
:10432000CF93DF93CDB7DEB760970FB6F894DEBFBB
:104330000FBECDBF29873A874B875C876D877E8705
:104340008F87988BCE0101960E94BC2689809A8027
:10435000AB80BC80CD80DE80EF80F88409851A8533
:104360002B853C854D855E856F857889CE010996C4
:104370000E9466238F3F19F48FEF9FEF0CC02985B1
:104380003A854B855C856D857E858F8598890E94F1
:104390002F2181E090E060960FB6F894DEBF0FBE4B
:1043A000CDBFDF91CF911F910F91FF90EF90DF90E4
:1043B000CF90BF90AF909F908F9008951F930E94D1
:1043C0003217E0917005F091710581E08583868355
:1043D0000E941E2B182F883F80F40E94AA2A212FAA
:1043E00033272E5F3F4F99278217930734F0812F91
:1043F0008E5F809374040E94AF2A0E9434170E943B
:10440000252181E090E01F9108951F93CF93DF93C2
:10441000CDB7DEB728970FB6F894DEBF0FBECDBF7D
:1044200029833A834B835C836D837E838F83988754
:104430000E9432170E941E2B182FCE0101960E9457
:1044400085248330910518F48FEF9FEF0CC0E09125
:104450007005F0917105810F911D968B858B0E94DF
:10446000341781E090E028960FB6F894DEBF0FBEB7
:10447000CDBFDF91CF911F9108950F931F938C01B2
:104480000E943217E0917005F091710581E08583FB
:10449000168B058B0E941E2B082F883F80F40E94EC
:1044A000AA2A202F33272E5F3F4F99278217930781
:1044B00034F0802F8E5F809374040E94AF2A0E9494
:1044C00034170E94252181E090E01F910F910895FB
:1044D000FF920F931F93CF93DF938C010E943217AB
:1044E000E0917005F091710581E085830E941E2B9B
:1044F000F82EE0917005F0917105C82FDD270C0FA3
:104500001D1F168B058B87EF8F1568F00E94AA2A56
:10451000229699278C179D0734F08F2D8E5F8093FC
:1045200074040E94AF2A0E9434170E94252181E062
:1045300090E0DF91CF911F910F91FF9008951F930D
:10454000CF93DF93EC010E945F1C209711F4C1E030
:10455000D0E00E943217E0917005F091710581E082
:104560008583D0A3C78F0E941E2B182F883F80F40D
:104570000E94AA2A212F33272E5F3F4F99278217A7
:10458000930734F0812F8E5F809374040E94AF2ACA
:104590000E9434170E94252181E090E0DF91CF91A5
:1045A0001F9108951F930E945F1C0E943217E09193
:1045B0007005F091710581E090E090A3878F81E014
:1045C00085830E941E2B182F883F80F40E94AA2A00
:1045D000212F33272E5F3F4F99278217930734F0FF
:1045E000812F8E5F809374040E94AF2A0E9434173B
:1045F0000E94252181E090E01F910895E0917005CF
:10460000F091710580850E94CC20E0917005F091B9
:10461000710584E081870E94D22281E090E00895B4
:10462000EF92FF920F931F93CF93DF93EC014B8197
:104630005C8169817A818D819E810E940D2EBC01F1
:104640008F81882369F04B815C81EE24FF2400E098
:1046500010E020E030E0CE010E943C171F8216C01F
:104660008881992787FD9095FC01A5E0EE0FFF1F3B
:10467000AA95E1F7E80FF91FEB5EFA4F81858330C9
:1046800019F08FEF9FEF1BC071836083888199279A
:1046900087FD9095FC0175E0EE0FFF1F7A95E1F71D
:1046A000E80FF91FEB5EFA4F85899689892B29F46B
:1046B00082E0818788810E94452081E090E0DF913F
:1046C000CF911F910F91FF90EF9008958F929F923D
:1046D000AF92BF92CF92DF92EF92FF920F931F9310
:1046E000CF93DF93CDB7DEB760970FB6F894DEBFF8
:1046F0000FBECDBFFC0109831A832B833C834D83FE
:104700005E836F83788789869A86AB86BC86CD86E2
:10471000DE86EF86F88A2D813E814F81588589811A
:104720009A81AB81BC81AD84BE84CF84D888E98472
:10473000FA840B851C858E159F05A007B10708F428
:104740003FC0E816F9060A071B0791F42A153B0536
:104750004C055D05A8F12A193B094C095D09248324
:1047600035834683578310821182128213821CC0C4
:104770002A153B054C055D05D0F40197A109B10947
:104780008E199F09A00BB10B80839183A283B38301
:10479000205036434546544C2A193B094C095D09C3
:1047A000248335834683578381E090E00BC08E19C4
:1047B0009F09A00BB10B80839183A283B383ECCFBD
:1047C0008FEF9FEF60960FB6F894DEBF0FBECDBFA0
:1047D000DF91CF911F910F91FF90EF90DF90CF90DD
:1047E000BF90AF909F908F900895FC0113C08050B0
:1047F0009A4CAA49BB4384839583A683B78380815F
:104800009181A281B3810196A11DB11D8083918305
:10481000A283B38384819581A681B78180302AECFD
:1048200092072AE9A2072BE3B20708F708958F92AF
:104830009F92AF92BF92CF92DF92EF92FF920F932F
:104840001F93CF93DF93CDB7DEB760970FB6F89481
:10485000DEBF0FBECDBFFC0109831A832B833C83CF
:104860004D835E836F83788789869A86AB86BC8604
:10487000CD86DE86EF86F88AAD80BE80CF80D88474
:10488000ED84FE840F85188989859A85AB85BC8562
:1048900029813A814B815C81820F931FA41FB51F30
:1048A00080839183A283B383EA0CFB1C0C1D1D1D26
:1048B000E482F58206831783CF010E94F52381E00D
:1048C00090E060960FB6F894DEBF0FBECDBFDF91CB
:1048D000CF911F910F91FF90EF90DF90CF90BF90FD
:1048E000AF909F908F9008956093670570936805CF
:1048F0008093690590936A0520936B0530936C054E
:1049000040936D0550936E0508952F923F924F92FC
:104910005F926F927F928F929F92AF92BF92CF924F
:10492000DF92EF92FF920F931F93CF93DF93CDB758
:10493000DEB728970FB6F894DEBF0FBECDBFFC01DF
:10494000C080D180E280F380648175818681978107
:10495000C114D104E104F10409F4A6C022E4C21692
:10496000D104E104F10418F080E090E0A4C01B0140
:104970002C016624772488249924AA24BB246EC0A1
:1049800019828AEC8A83EAE9EB83FBE3FC831D82CC
:104990001E821F82188600E0020D81E0021508F0D9
:1049A00080E01A81130DA1E0131508F0A0E0810F3B
:1049B00091E0811708F090E0A92B182F2B81240D8E
:1049C000B1E0241508F0B0E08A2F820F91E0821741
:1049D00008F090E0B92B282F3C81350DA1E035156A
:1049E00008F0A0E08B2F830F91E0831708F090E090
:1049F000A92B382F4D81460DB1E0461508F0B0E0E7
:104A00008A2F840F91E0841708F090E0B92B482F8B
:104A10005E81570DA1E0571508F0A0E08B2F850FA0
:104A200091E0851708F090E0A92B582F6F81680D51
:104A3000F1E0681508F0F0E09A2F960F81E09617E4
:104A400008F080E08F2B7885790D870F202E312E8E
:104A5000422E532E642E752E892E982E8A2D99273C
:104A6000AA27BB270894A11CB11C8C159D05AE0577
:104A7000BF0508F485CF23EBA22E96EEB92E8EE06B
:104A8000C82EDD24EE24FF2400E010E0222D332D7B
:104A9000442D552D662D772D882D992D0E94E42FBC
:104AA000A22EB32EC50107C023EB36EE4EE050E038
:104AB0000E942B39C90128960FB6F894DEBF0FBEAD
:104AC000CDBFDF91CF911F910F91FF90EF90DF90BD
:104AD000CF90BF90AF909F908F907F906F905F909E
:104AE0004F903F902F9008952F923F924F925F9258
:104AF0006F927F928F929F92AF92BF92CF92DF92EE
:104B0000EF92FF920F931F93CF93DF93CDB7DEB752
:104B100028970FB6F894DEBF0FBECDBF7B018C0186
:104B200073708070907023EB36EE4EE050E00E9480
:104B3000E5386D837E838F8398873AE016950795D5
:104B4000F794E7943A95D1F7E982FA820B831C83B4
:104B5000988529803A804B805C806D807E808F8034
:104B6000222D332D442D552D662D772D882D2896F9
:104B70000FB6F894DEBF0FBECDBFDF91CF911F916E
:104B80000F91FF90EF90DF90CF90BF90AF909F90EC
:104B90008F907F906F905F904F903F902F900895EF
:104BA0002F923F924F925F926F927F928F929F923D
:104BB000AF92BF92CF92DF92EF92FF920F931F932B
:104BC000CF93DF93CDB7DEB728970FB6F894DEBF4B
:104BD0000FBECDBFFC01C080D180E280F380C11444
:104BE000D104E104F10409F4A2C024803580468098
:104BF00057806624772488249924AA24BB246EC075
:104C000019828AEC8A83EAE9EB83FBE3FC831D8249
:104C10001E821F82188600E0020D81E0021508F056
:104C200080E01A81130DA1E0131508F0A0E0810FB8
:104C300091E0811708F090E0A92B182F2B81240D0B
:104C4000B1E0241508F0B0E08A2F820F91E08217BE
:104C500008F090E0B92B282F3C81350DA1E03515E7
:104C600008F0A0E08B2F830F91E0831708F090E00D
:104C7000A92B382F4D81460DB1E0461508F0B0E064
:104C80008A2F840F91E0841708F090E0B92B482F09
:104C90005E81570DA1E0571508F0A0E08B2F850F1E
:104CA00091E0851708F090E0A92B582F6F81680DCF
:104CB000F1E0681508F0F0E09A2F960F81E0961762
:104CC00008F080E08F2B7885790D870F202E312E0C
:104CD000422E532E642E752E892E982E8A2D9927BA
:104CE000AA27BB270894A11CB11C8C159D05AE05F5
:104CF000BF0508F485CF63EBA62E56EEB52E4EE029
:104D0000C42EDD24EE24FF2400E010E0222D332DFC
:104D1000442D552D662D772D882D992D0E94E42F39
:104D2000A22EB32EC42ED52EA60195010AC06481F1
:104D300075818681978123EB36EE4EE050E00E942C
:104D40002B39CA01B90128960FB6F894DEBF0FBE01
:104D5000CDBFDF91CF911F910F91FF90EF90DF902A
:104D6000CF90BF90AF909F908F907F906F905F900B
:104D70004F903F902F900895EF92FF920F931F93C3
:104D8000CF93DF93EC018091670590916805A09126
:104D90006905B0916A0588839983AA83BB83E090F3
:104DA0006B05F0906C0500916D0510916E05EC821D
:104DB000FD820E831F830E941E2B9927AA27BB27E3
:104DC000BC01CD0123EB36EE4EE050E00E94E53809
:104DD000E60EF71E081F191FEC82FD820E831F834B
:104DE00013C080509A4CAA49BB438C839D83AE83E9
:104DF000BF8388819981AA81BB810196A11DB11DC4
:104E000088839983AA83BB838C819D81AE81BF8176
:104E100080302AEC92072AE9A2072BE3B20708F7B1
:104E2000DF91CF911F910F91FF90EF9008950E9415
:104E30005F1C0E94AA2A8B3030F481E080936405C5
:104E40000E94FE2D09C08AE090E00E94582A82E06C
:104E5000809364050E94F22D80917604853519F0C7
:104E600088E00E94821B80917E21853501F388E0D5
:104E70000E94821BDCCF8F929F92AF92BF92CF9203
:104E8000DF92EF92FF920F931F93CF93DF930E94D5
:104E900032170E94662A0E946E2A4C018AEF0E94F5
:104EA000AF2A6091740477278827992723EB36EE81
:104EB0004EE050E00E94E5387B018C0180916B054B
:104EC00090916C05A0916D05B0916E05E80EF91EEC
:104ED0000A1F1B1FC801B7010E942B39A8019701A7
:104EE000261B370B480B590B80916705909168057D
:104EF000A0916905B0916A051BC0E12C66E3F62E0E
:104F000065E6062F64EC162FE20EF31E041F151F34
:104F1000C801B70123EB36EE4EE050E00E942B397A
:104F2000A8019701261B370B480B590BD601C50169
:104F30005C016D010894A11CB11CC11CD11C203066
:104F40006AEC36076AE946076BE35607B0F68093CA
:104F5000670590936805A0936905B0936A0520934F
:104F60006B0530936C0540936D0550936E05E09191
:104F70007005F09171058581882319F18185843050
:104F800001F18781823029F0882341F086818823CE
:104F900011F485E001C083E081870CC083E0818744
:104FA000E0917005F09171051782E0917005F09124
:104FB00071051682E0917005F091710580850E945F
:104FC000CC20E0917005F0917105858D968D892B2F
:104FD00091F16085662379F18185843061F1218DBD
:104FE000328D8091740499272817390750F482E094
:104FF0000E94411BE0917005F0917105128E118E97
:1050000004C0281B390B328F218FE0917005F0917D
:1050100071051085818D928D892B69F4612F83E054
:105020000E94411BE0917005F091710583E081873A
:10503000812F0E94CC20C5E1D5E000E61AEECC24F9
:10504000DD24EC2D88858F3F09F494C01D828823D0
:1050500091F18985843079F12D893E89809174049C
:1050600099272817390728F0281B390B3E8B2D8BE1
:1050700002C01E8A1D8A2F89388D2817390728F00B
:10508000281B390B388F2F8B0EC06B8D7C8D8617AC
:10509000970728F4681B790B788F6F8B04C00E94E8
:1050A0000439988F8F8B8F89988D892B21F48B8D64
:1050B0009C8D988F8F8B8985833009F05BC08D899B
:1050C0009E89892B09F04EC08F818823A1F08E81A3
:1050D000882389F081E090E0A0E0B0E000906005D6
:1050E00004C0880F991FAA1FBB1F0A94D2F7898B8F
:1050F0009A8BAB8BBC8B1F821E821D828F8D98A1D9
:105100004B8D5C8D2D8D3E8D8130910591F43A8FC4
:10511000298F82E089878F89988D9E8B8D8B452B77
:1051200021F48AEF90E09E8B8D8B8E2F0E9445207C
:1051300019C03A8F298F01979C01249FC001259F98
:10514000900D349F900D11249E8B8D8B988F8F8B9B
:10515000452B21F48AEF90E09E8B8D8B81E090E0CF
:1051600098A38F8F8D899E89009721F080179107D2
:1051700008F48C010894C11CD11CA19632E0C3161E
:10518000D10409F05ECF0E943320E82E992787FDD5
:105190009095FC0125E0EE0FFF1F2A95E1F7E80F3F
:1051A000F91FEB5EFA4F42854093720581E26E2D46
:1051B0006802900111242B5E3A4F309362052093D0
:1051C0006105EE2091F0858D968D892B51F0818DB2
:1051D000928D8A3F910528F480179107E0F48C01A5
:1051E0001AC00B3F1105B8F014C00B30110598F030
:1051F000C8010A978A3F910530F48C01099758F449
:1052000009E010E008C00550114018F400EF10E06C
:1052100002C00AEF10E040936305309371052093BC
:105220007005009374040E941E2B99270196801725
:10523000910740F00E941E2B082F11270E5F1F4F71
:1052400000937404EE2011F010926405802F0E94E8
:10525000AF2A6EEE72E0C4010E94A32B0E945C2E66
:105260000E94892EDF91CF911F910F91FF90EF90B7
:10527000DF90CF90BF90AF909F908F900895209136
:10528000830512161CF48FEF9FEF0895E22FFF277E
:10529000E7FDF095EE0FFF1FEE0FFF1FDF01AC578C
:1052A000BA4F6C93EA57FA4F918380832F5F209314
:1052B000830581E090E008950F931F93CF93DF93D0
:1052C000062F90918305A92FBB27A7FDB09540E03D
:1052D00050E0682F772734C04F5F5F4FE901CC0F54
:1052E000DD1FCC0FDD1FFE01EC57FA4F808199279F
:1052F00087FD90958617970719F5F901E857FA4F3A
:105300008081882371F481E08083FE01EA57FA4F9F
:105310000190F081E02D20E040E050E0602F80E03F
:105320000995CA57DA4FE881F98120E040E050E062
:10533000602F81E00995812F992787FD909508C0FE
:10534000142F242F33272A173B0734F28FEF9FEFB8
:10535000DF91CF911F910F910895E82FFF27809142
:105360008305992787FD90958E179F0734F481E078
:105370000E9469198FEF9FEF0895EE0FFF1FEE0F48
:10538000FF1FEA57FA4F0190F081E02D20E040E046
:1053900050E083E00995992787FD90950895242F83
:1053A000E82FFF2780918305992787FD90958E1719
:1053B0009F0734F481E00E9469198FEF9FEF0895F1
:1053C000EE0FFF1FEE0FFF1FEA57FA4F0190F0811B
:1053D000E02D40E050E084E00995992787FD909505
:1053E0000895242FE82FFF2780918305992787FDB3
:1053F00090958E179F0734F481E00E9469198FEF12
:105400009FEF0895EE0FFF1FEE0FFF1FEA57FA4FB1
:105410000190F081E02DAB0160E085E009959927CE
:1054200087FD90950895242FE82FFF27809183050D
:10543000992787FD90958E179F0734F481E00E948D
:1054400069198FEF9FEF0895EE0FFF1FEE0FFF1FFB
:10545000EA57FA4F0190F081E02DAB0160E086E061
:105460000995992787FD90950895E82FFF2780914A
:105470008305992787FD90958E179F0734F481E067
:105480000E9469198FEF9FEF0895EE0FFF1FEE0F37
:10549000FF1FEA57FA4F0190F081E02D20E040E035
:1054A00050E060E082E00995992787FD9095089586
:1054B00000000000000000000197D1F7089510924D
:1054C0008100089581E080938100089583B5816013
:1054D00083BD10928500109284000895CF93DF93CE
:1054E000CDB7DEB722970FB6F894DEBF0FBECDBFA3
:1054F00080918400909185009A83898389819A8123
:1055000022960FB6F894DEBF0FBECDBFDF91CF91CC
:1055100008951092B100E0E7F0E080818D7F8083F4
:1055200080818E7F808308958093B2000895E0E7A4
:10553000F0E080818360808383E08093B1000895F0
:1055400083B5826083BD1092B2001092C90310929D
:10555000740408958091B3008F5F99270895815056
:105560008093B3000895882311F4109271008FEF97
:105570009FEF0895882319F08FEF9FEF0895109201
:1055800095001092940081E090E00895882319F02E
:1055900080E090E0089580919400909195000895A6
:1055A000882319F08FEF9FEF089582E080937100B8
:1055B00081E090E00895882319F08FEF9FEF089520
:1055C000CB010197059710F460937304109290003B
:1055D00088E080939100852F9927809399004093CC
:1055E00098003093C7032093C603809173048130E1
:1055F00021F48091910081600BC0823021F4809170
:105600009100826005C0833031F480919100836005
:105610008093910008C0843021F4809191008460CF
:10562000F7CF853019F081E090E0089580919100E6
:1056300085608093910081E090E008958091B200B0
:10564000992708950F920FB60F921F922F923F92B3
:105650004F925F926F927F928F929F92AF92BF9282
:10566000CF92DF92EF92FF920F931F932F933F936E
:105670004F935F936F937F938F939F93AF93BF935A
:10568000CF93DF93EF93FF93A0917005B0917105D5
:105690000DB60D920EB60D921F92A0917104B091AD
:1056A00072041E90BEBFADBF08951F920F920FB639
:1056B0000F9211240F900FBE0F901F9018951F92FC
:1056C0000F920FB60F9211242F933F934F935F9336
:1056D0006F937F938F939F93AF93BF93EF93FF93BA
:1056E000E091C603F091C703309711F0099504C00B
:1056F00060E08AE00E94411BFF91EF91BF91AF9162
:105700009F918F917F916F915F914F913F912F91D9
:105710000F900FBE0F901F9018951F920F920FB60B
:105720000F9211242F933F934F935F936F937F9327
:105730008F939F93AF93BF93EF93FF9360E08AE0C3
:105740000E94411BFFCFCF93DF93CDB7DEB72297E7
:105750000FB6F894DEBF0FBECDBFFC018FEFE93767
:10576000F80710F0E0E0F0E09F0144275527CB0157
:10577000AA27BB27280F391F4A1F5B1F213080E053
:10578000380781E0480780E0580778F0809184006E
:10579000909185009A83898389819A81E817F90716
:1057A000A8F32050304041405040809184009091B7
:1057B00085009A83898389819A8182179307A8F348
:1057C00022960FB6F894DEBF0FBECDBFDF91CF910A
:1057D0000895EF92FF921F939EEF9093740480E2DE
:1057E0008093B6009093B30013E017BB82E08093E0
:1057F000B00091EBE92EF12CF701108383B58260A4
:1058000083BD17BB14BD83B5826083BD1092800039
:1058100081E080938100109285001092840083B50E
:10582000826083BD83B5816083BD0E94A02AE0E7CA
:10583000F0E0808183608083F70110831092C903B8
:105840001F91FF90EF90089504B603FE02C090E10F
:1058500001C090E004B602FE06C084B78B7F84BF0F
:1058600004B600FE946004B601FE04C084B78D7FC8
:1058700084BF9260992319F0892F9927089504B65F
:1058800000FC02C091E003C084B78E7F84BF80918A
:10589000B00081119160892F99270895882311F410
:1058A000E89A33C0813011F4E99A2FC0823011F4A4
:1058B000EA9A2BC0833021F480916B00816023C071
:1058C000843021F480916B0082601DC0853021F40A
:1058D00080916B00846017C0863021F480916B004A
:1058E000886011C0873021F480916B0080610BC00B
:1058F000883021F480916B00806205C0893041F4CA
:1059000080916B00806480936B0081E090E008954B
:105910008A3019F08FEF9FEF089580916B008068B7
:1059200080936B0081E090E00895882311F4E8985B
:1059300031C0813011F0823011F4E9982BC08330EE
:1059400021F480916B008E7F23C0843021F48091FC
:105950006B008D7F1DC0853021F480916B008B7FA3
:1059600017C0863021F480916B00877F11C087308B
:1059700021F480916B008F7E0BC0883021F48091E0
:105980006B008F7D05C0893041F480916B008F7B67
:1059900080936B0081E090E008958A3019F08FEFDA
:1059A0009FEF089580916B008F7780936B0081E06B
:1059B00090E00895882339F550938C0540938B052A
:1059C000662321F4809169008C7F45C0613049F4E1
:1059D000809169008D7F809369008091690081606A
:1059E0003AC0623049F48091690082608093690016
:1059F000809169008E7F2FC0633009F069C080916B
:105A00006900836028C0813049F550938A0540932E
:105A10008905662321F480916900837F1CC0613071
:105A200049F480916900877F8093690080916900C3
:105A3000846011C0623049F480916900886080936D
:105A40006900809169008B7F06C0633009F040C017
:105A5000809169008C608093690037C0823031F595
:105A600050938A0540938905662321F4809169004B
:105A70008F7CF1CF613049F4809169008F7D8093F4
:105A80006900809169008061E6CF623049F48091BD
:105A90006900806280936900809169008F7EDBCF0E
:105AA0006330B1F4809169008063D5CF8350883032
:105AB00018F08FEF9FEF08958091680081608093C8
:105AC00068005093900540938F0581E090E0089521
:105AD00081E090E008951F920F920FB60F9211246B
