:100000000C9435020C94CB2E0C9454020C94540294
:100010000C9454020C9454020C9454020C94540208
:100020000C945E090C94F92E0C9454020C94540216
:100030000C9454020C94822C0C9454020C94822C38
:100040000C9454020C94B52C0C9454020C9454024D
:100050000C9454020C9454020C9454020C945402C8
:100060000C9454020C9454020C9454020C945402B8
:100070000C9454020C9454020C9454020C945402A8
:100080000C94BF2C0C9454020C9454020C94540203
:100090000C9468190C9454020C9454020C9454025D
:1000A0000C9454020C9454020C9454020C94540278
:1000B0000C9454020C9454020C9454020C94540268
:1000C0000C9454020C9454020C945402F41DF81D28
:1000D000FA1DFC1DFE1D001E051E021E081E0B1E25
:1000E0000E1E171E1A1E1D1E201E141EF21DF61DAA
:1000F000231E261E111E4552524F522073657474E2
:10010000696E6720626D616320726174650D0A001B
:100110004661696C656420746F20726567697374E9
:100120006572207369676E616C0D0A00424D414330
:100130002054583A20576F6B65207570206F6E20E1
:1001400077726F6E67207369676E616C0D0A00428B
:100150004D41432054583A204572726F72206361BA
:100160006C6C696E67206576656E74207761697462
:100170000D0A00424D4143204552524F523A2063EE
:1001800072656174696E6720656E61626C6520736B
:1001900069676E616C206661696C65640D0A004276
:1001A0004D4143204552524F523A2063726561746B
:1001B000696E67207478207369676E616C20666170
:1001C000696C65640D0A00424D4143204552524F0F
:1001D000523A206372656174696E67207278207389
:1001E00069676E616C206661696C65640D0A004325
:1001F0004332343230204552524F523A2020526519
:100200006C65617365206F662073656D6170686FE2
:100210007265206661696C65640D0A00434332347F
:100220003230204552524F523A2020416363657369
:100230007320746F2073656D6170686F72652066DE
:1002400061696C65640D0A00554E4B4F574E004571
:10025000787465726E616C205265736574004272C9
:100260006F776E204F757420446574656374004623
:1002700061696C656420746F2063726561746520C8
:1002800053656D6170686F7265004661696C656485
:1002900020746F20637265617465205369676E61B5
:1002A0006C004B65726E656C2066756E6374696F69
:1002B0006E206E6F7420696D706C656D656E74650F
:1002C00064004465766963652044726976657220CE
:1002D0004572726F72005761746368646F67205271
:1002E0006573746172740053572057617463686456
:1002F0006F6720526573746172740054696D657222
:10030000204F766572666C6F7700556E68616E641B
:100310006C656420496E74657272757074205665E0
:1003200063746F72004C6F7720566F6C74616765F1
:10033000004578747261205461736B20737461722C
:100340007465642C206973206E726B5F6366672E20
:1003500068206F6B3F0049646C65206F72204B65AD
:10036000726E656C20537461636B204F76657266A4
:100370006C6F7700556E65787065637465642052A4
:10038000657374617274004475706C69636174653F
:1003900064205461736B204944005363686564753D
:1003A0006C6572204D69737365642057616B657568
:1003B00070005461736B20526573657276652056C8
:1003C000696F6C617465640052657365727665204F
:1003D0004572726F7220696E205363686564756C34
:1003E000657200496E76616C696420537461636B59
:1003F00020506F696E746572005461736B20537482
:1004000061636B204F766572666C6F770053746121
:10041000636B20776173206E6F7420646566696E0C
:100420006564206173206C6172676520656E6F750D
:1004300067682100293A20002A4E524B204552522B
:100440004F5228000D0A535441434B2044554D5000
:100450000D0A0045464765666700202B2D2E30317A
:100460003233343536373839680011241FBECFEFA8
:10047000D1E2DEBFCDBF13E0A0E0B2E0E4E0F7E7F9
:1004800000E00BBF02C007900D92AA39B107D9F75F
:1004900017E0AAE9B3E001C01D92A630B107E1F769
:1004A0000E940A030C94813B0C94ED2C83EB92E0A8
:1004B0009093700580936F0587EE94E090936C05A0
:1004C00080936B0588E694E090936E0580936D05AC
:1004D00082E08093720581E08093710580937305BB
:1004E0008093740581E090E0A0E0B0E08093750512
:1004F00090937605A0937705B093780510927905CF
:1005000010927A0510927B0510927C0580937D05F0
:1005100090937E05A0937F05B093800580E095E6DB
:10052000ADECBDE18093810590938205A093830596
:10053000B093840510928505109286051092870568
:10054000109288051092890510928A0510928B05E9
:1005500010928C058AE695E00E94892580E092E061
:100560000E94DC380895CF92DF92EF92FF920F93B2
:100570001F93CF93DF93CDB7DEB722970FB6F894D2
:10058000DEBF0FBECDBF0E94972399279F938F9305
:100590008DE092E09F938F930E94BE3889E10E9484
:1005A000E7050F900F900F900F901F3F21F486EFFB
:1005B00090E00E94551964E784EF94E00E944B0399
:1005C00082E0C82ED12CCC0EDD1E7E010894E11CE9
:1005D000F11C0E94D40680E090E00E94A718B601AA
:1005E000C7010E94FC0600E010E007C0FF27EC50A6
:1005F000FB4F808199270E94D538E02F0F5F1F4F56
:100600008981E81798F380E090E00E948A180E94A0
:100610007A03DFCFCFEFD1E2DEBFCDBF0E94E1147E
:1006200087E090E00E941F190E94CB1B80E090E0C1
:100630000E948A1881E090E00E948A1882E090E08F
:100640000E948A1883E090E00E948A1820E030E03F
:1006500040E050E060E070E080E090E00E94ED2635
:100660000E94ED030E9456020E946B1B80E090E006
:100670000C94813B08958FEF9FEF089580E090E008
:1006800008959093E9048093E80481E090E0089550
:1006900080934F040895009719F48FEF9FEF08950A
:1006A00090939305809392056093910581E08093E8
:1006B000420481E090E008959C01809141048130E2
:1006C00019F48FEF9FEF089581E0809341043093F8
:1006D000EC042093EB046093EA0481E090E0089539
:1006E00020E030E080914204882311F421E030E0E2
:1006F000C901089581E08093420481E090E008956B
:10070000CF93DF93CDB7DEB728970FB6F894DEBF4F
:100710000FBECDBF29833A834B835C836D837E8379
:100720008F8398872D813E814F81588589819A8159
:10073000AB81BC810097A105B10559F420306DE271
:10074000360761E3460761E0560718F48FEF9FEF25
:1007500012C08093470490934804A0934904B09337
:100760004A0420934B0430934C0440934D0450931F
:100770004E0481E090E028960FB6F894DEBF0FBEDD
:10078000CDBFDF91CF91089580914304992787FDD4
:100790009095089580913D0490913E0408951092A3
:1007A0003D0410923E0410923F041092400481E0F8
:1007B00090E00895823018F481E090E00895883048
:1007C00008F086E091E020E030E0990F2F5F3F4F86
:1007D0002817D8F3892F992708950F931F930AE9B3
:1007E00013E062E177E0C8010E94692F40E850E021
:1007F0006DEB73E0C8010E94CA2F84E18093A203CD
:1008000081E08093A1038093A3038093A4031092BB
:10081000A5031092A6031092A7031092A80380E0EC
:100820009DE2A1E3B1E08093A9039093AA03A09372
:10083000AB03B093AC0385E090E0A0E0B0E0809320
:10084000AD039093AE03A093AF03B093B0031092A7
:10085000B1031092B2031092B3031092B40310923A
:10086000B5031092B6031092B7031092B80310921A
:10087000B9031092BA031092BB031092BC03C801D3
:100880000E9489251F910F9108951F930E94550E74
:100890008AEF90E00E94B82B89B1992724E09695C1
:1008A00087952A95E1F7182F117080FF02C00E94EA
:1008B0003C0E812F99271F910895EF92FF920F937D
:1008C0001F93CF93DF9380914F04882309F44AC08C
:1008D00087E494E00E94FE268C010E9428386AE09A
:1008E00070E00E94E63ABC016F5F7F4FC8010E9432
:1008F000D23ACB010E94B624FF24F394C7E4D4E09B
:100900000E944504E82E0E943C0E81E0E81651F159
:100910000E9428388C018F2D0E94DA03682F7727D8
:10092000C8010E94E63A99270E941825CE010E942C
:10093000FE268C010E9428386AE070E00E94E63AA8
:10094000BC016F5F7F4FC8010E94D23ACB010E9469
:10095000B624EE2039F4F39486E08F1588F636E05D
:10096000F32ECECF0E94850B0E943C0B20914704B2
:10097000309148044091490450914A0460914B04DD
:1009800070914C0480914D0490914E040E94A823D4
:100990000E94280B0E94500B0E943C0E88EE94E0AF
:1009A0000E94C40E809344040E943C0E10924104A5
:1009B000809117060E941F2181E090E0DF91CF9186
:1009C0001F910F91FF90EF9008950F931F936091E7
:1009D00045048DE895E00E9441130E94550E10E0F9
:1009E00026C01F5F2091470430914804409149047C
:1009F00050914A0460914B0470914C0480914D04D5
:100A000090914E040E94A823133089F480913D04F4
:100A100090913E04A0913F04B09140048F3F2FEF8E
:100A2000920720E0A20720E0B20700F514C00E9460
:100A3000B7088823B1F21DC01F5F84E690E00E94D2
:100A4000B82B1333B9F480913D0490913E04A091EA
:100A50003F04B09140040196A11DB11D80933D0457
:100A600090933E04A0933F04B09340040E943C0E38
:100A700022C010E00E94E50B082F8823E9F20E94B3
:100A80003C0E013029F41092420481E090E015C040
:100A900080913D0490913E04A0913F04B0914004A8
:100AA0000196A11DB11D80933D0490933E04A09337
:100AB0003F04B093400480E090E01F910F910895AF
:100AC000809117060E94172080911706992787FDAD
:100AD000909508958091F3040E9417208091F3046B
:100AE000992787FD90950895EF92FF920F931F939A
:100AF0008C01F62E80914104813009F43FC0809131
:100B000017060E94172081E0809341041093EC04A3
:100B10000093EB04F092EA0461E070E080E090E082
:100B20000090170604C0660F771F881F991F0A944C
:100B3000D2F70E9471227B018C016115710581053C
:100B4000910521F48FE491E00E945519D801C70165
:100B50000090170604C0B695A795979587950A94B7
:100B6000D2F780FD04C08CE291E00E94551980917B
:100B70004404882319F081E090E002C08FEF9FEFDA
:100B80001F910F91FF90EF90089581E080934604AC
:100B90000E943313809167040E941F2108951092D0
:100BA00046040E94A1070895682F8B3118F08FEF3B
:100BB0009FEF08958093450420E030E04FEF5FEF12
:100BC0008DE895E00E947E1381E090E008951F93E8
:100BD000182F109243048FEF8093500481E080938C
:100BE0004F0410923D0410923E0410923F04109264
:100BF0004004109247041092480410924904109245
:100C00004A0480E091EEA5EFB5E080934B04909309
:100C10004C04A0934D04B0934E040E948E1F809309
:100C2000F3048F3F19F487EC91E008C00E948E1FF7
:100C3000809317068F3F79F48FE991E00E94551950
:100C4000E091D706F091D80660858EE00E94871E5D
:100C50008FEF9FEF5BC00E948E1F809367048F3FD2
:100C600019F483E791E0EACF109241041092420414
:100C700010929305109292051092910520E030E0B9
:100C80004FEF5FEF612F8DE895E00E947E13109388
:100C90004504409883E18EBD0DB407FEFDCF85EE7F
:100CA0008EBD0DB407FEFDCF80E88EBD0DB407FEEE
:100CB000FDCF409A409885E18EBD0DB407FEFDCF73
:100CC00080E88EBD0DB407FEFDCF8FEF8EBD0DB455
:100CD00007FEFDCF409A409887E18EBD0DB407FE18
:100CE000FDCF8AE08EBD0DB407FEFDCF86E58EBD3B
:100CF0000DB407FEFDCF409A83ED0E94BC0B81E04E
:100D0000809343048093460481E090E01F9108950E
:100D10000E94BC0B81E090E00895803218F08FEFC4
:100D20009FEF08950E949D0E81E090E008950E943B
:100D3000230881E090E008950E94FD0781E090E0A3
:100D40000895603119F08FEF9FEF08950E944612C9
:100D500081E090E008950E94B207992787FD909561
:100D600008950E940B1281E090E008950E943C08D3
:100D700081E090E008950E94570881E090E0089596
:100D80000E94720881E090E008950E94900881E03E
:100D900090E00895643019F08FEF9FEF08950E945E
:100DA000B60781E090E0089580914204882309F11C
:100DB0008091F3040E94172061E070E080E090E0F1
:100DC0000090F30404C0660F771F881F991F0A94D0
:100DD000D2F70E9471220090F30404C09695879583
:100DE000779567950A94D2F760FD03C08FEF9FEF68
:100DF000089581E090E00895FC01DB0180914204B8
:100E0000882329F010821C9280E090E00895809160
:100E100090058083809195058C93809192059091A7
:100E20009305089502C00E944B25809143048823B6
:100E3000D1F3809167040E9417208F3F21F480E155
:100E400091E00E94551980914604882359F18091C0
:100E50004204813041F40E944504882341F40E94F9
:100E6000E504813021F48091F3040E941F218091D8
:100E70004104813021F40E943C0E0E945D042091C7
:100E80004704309148044091490450914A046091CC
:100E90004B0470914C0480914D0490914E040E943B
:100EA000A823D1CF809167040E94172061E070E0F1
:100EB00080E090E00090670404C0660F771F881FF1
:100EC000991F0A94D2F70E9471220090670404C00F
:100ED00096958795779567950A94D2F760FDB3CF7D
:100EE000E1CF99279C01265A3E4B0B97880F991FFB
:100EF000880F991F280F391FF894409888E18EBDFC
:100F00000DB407FEFDCF832F99278EBD0DB407FECC
:100F1000FDCF2EBD0DB407FEFDCF409A7894089505
:100F2000F89440981EBC0DB407FEFDCF8EB5409AD4
:100F3000789486FFF5CF08959093520480935104DE
:100F40000895F894409887E08EBD0DB407FEFDCF5C
:100F5000409A409886E08EBD0DB407FEFDCF409AC2
:100F6000789408958091320699270895CF93DF935E
:100F7000DC01409889EC8EBD0DB407FEFDCF80E802
:100F80008EBD0DB407FEFDCF92E09150FD01E90F3B
:100F9000F11D80818EBD0DB407FEFDCF9923A9F709
:100FA000409A40988BEC8EBD0DB407FEFDCF80E8D3
:100FB0008EBD0DB407FEFDCF92E09D012E5F3F4F29
:100FC000E9019150F901E90FF11D80818EBD0DB449
:100FD00007FEFDCF9923A1F7409A8C9180933306A9
:100FE000FD01818180933406888180933506838159
:100FF00080933606DF91CF910895409889E18EBDA8
:101000000DB407FEFDCF83E08EBD0DB407FEFDCF0E
:1010100086E08EBD0DB407FEFDCF409A40988AE170
:101020008EBD0DB407FEFDCF8EE08EBD0DB407FE64
:10103000FDCF8EE08EBD0DB407FEFDCF409A81E05E
:10104000809323060895409889E18EBD0DB407FE74
:10105000FDCF81E08EBD0DB407FEFDCF84EC8EBDCB
:101060000DB407FEFDCF409A10922306089580919B
:10107000210690912206089520912406309125069C
:1010800038603093250620932406409881E18EBD78
:101090000DB407FEFDCF832F99278EBD0DB407FE3B
:1010A000FDCF2EBD0DB407FEFDCF409A08952091CF
:1010B000240630912506377F309325062093240699
:1010C000409881E18EBD0DB407FEFDCF832F992797
:1010D0008EBD0DB407FEFDCF2EBD0DB407FEFDCFB6
:1010E000409A089581E08093310620912406309142
:1010F000250620613093250620932406409881E13F
:101100008EBD0DB407FEFDCF832F99278EBD0DB484
:1011100007FEFDCF2EBD0DB407FEFDCF409A08950A
:101120001092310620912406309125062F7E3093AF
:10113000250620932406409881E18EBD0DB407FE5C
:10114000FDCF832F99278EBD0DB407FEFDCF2EBD99
:101150000DB407FEFDCF409A089589B1992766E046
:10116000969587956A95E1F78170907008958CB196
:10117000992787FD90958827990F881F99270895AB
:1011800089B19927E6E096958795EA95E1F7817010
:101190009070089580913706882319F480E090E0DC
:1011A00008958091370610923706992787FD90950C
:1011B0000895409888E08EBD0DB407FEFDCF409A9B
:1011C000409888E08EBD0DB407FEFDCF409A08958B
:1011D000409886E08EBD0DB407FEFDCF409A409842
:1011E00082E18EBD0DB407FEFDCF85E08EBD0DB44E
:1011F00007FEFDCF81E08EBD0DB407FEFDCF409A06
:101200000E94D9080895409882E18EBD0DB407FE72
:10121000FDCF85E08EBD0DB407FEFDCF84E08EBD11
:101220000DB407FEFDCF409A0E94D9080895282FDB
:1012300033272F7030708091240690912506807F8F
:10124000282B392B3093250620932406409881E1E2
:101250008EBD0DB407FEFDCF832F99278EBD0DB433
:1012600007FEFDCF2EBD0DB407FEFDCF409A0895B9
:10127000282F332723703070B6E0220F331FBA9522
:10128000E1F780912406909125068F73282B392B46
:101290003093250620932406409881E18EBD0DB43D
:1012A00007FEFDCF832F99278EBD0DB407FEFDCF1E
:1012B0002EBD0DB407FEFDCF409A08951F920F92E8
:1012C0000FB60F9211242F933F934F935F936F9319
:1012D0007F938F939F93AF93BF93EF93FF93CF939E
:1012E000DF93CDB7DEB72497DEBFCDBF80E88CBBE0
:1012F000679B97C1679B1CC031991AC040988FE7C4
:101300008EBD0DB407FEFDCF1EBC0DB407FEFDCF94
:101310008EB5409A409888E08EBD0DB407FEFDCF93
:10132000409A409888E08EBD0DB407FEFDCF78C18D
:1013300040988FE78EBD0DB407FEFDCF1EBC0DB4E7
:1013400007FEFDCF4EB5409A4F774C308CF0E091C0
:101350002606F0912706242F332727FD30952B50A2
:1013600030408481992787FD909582179307ACF5CB
:1013700040988FE78EBD0DB407FEFDCF60E070E0B2
:10138000242F332727FD309506C01EBC0DB407FE61
:10139000FDCF6F5F7F4F862F99278217930714F435
:1013A0003199F3CF409A40988FE78EBD0DB407FE78
:1013B000FDCF1EBC0DB407FEFDCF8EB5409A409800
:1013C00088E08EBD0DB407FEFDCF409A409888E0BE
:1013D0008EBD0DB407FEFDCF23C1E0912606F0912E
:1013E00027064C50438340988FE78EBD0DB407FE0F
:1013F000FDCFFE0131969E012D5F3F4F1EBC0DB407
:1014000007FEFDCF8EB58193E217F307B9F7409A37
:10141000E0912606F091270689819A8125E096952C
:1014200087952A95E1F78170878340988FE78EBD75
:101430000DB407FEFDCF1EBC0DB407FEFDCFE0913D
:101440002606F09127068EB58083409A40988FE754
:101450008EBD0DB407FEFDCF80E007C01EBC0DB4ED
:1014600007FEFDCF8F5F843011F03199F7CF409A9E
:1014700040988FE78EBD0DB407FEFDCF20E030E031
:101480001EBC0DB407FEFDCFE0912606F0912706A5
:10149000E20FF31F8EB581832F5F3F4F223031055E
:1014A00079F7409A40988FE78EBD0DB407FEFDCFC7
:1014B00040E050E011C01EBC0DB407FEFDCFE0912E
:1014C0002606F09127060580F681E02DE60FF11D36
:1014D0008EB580834F5F5F4F642FE0912606F091B9
:1014E0002706242F33278381992787FD9095281776
:1014F00039070CF3409A40988FE78EBD0DB407FC76
:101500000AC0FCCF0DB407FEFDCF5EB5409A4098EF
:101510008FE78EBD02C01EBCF5CF0DB407FEFDCF18
:10152000FE0133969E012B5F3F4F1EBC0DB407FE9C
:10153000FDCF8EB58193E217F307B9F7409AE0919A
:101540002606F09127068B81808740E020E030E07E
:101550000AC0E0912606F091270685819681A80FA2
:10156000B91F8C91480F822FE0912606F091270633
:101570002F5F3F4FA82FBB278381992787FD909529
:10158000A817B90734F34517D1F040988FE78EBDFF
:101590000DB407FEFDCF1EBC0DB407FEFDCF8EB50A
:1015A000409A409888E08EBD0DB407FEFDCF409A6A
:1015B000409888E08EBD0DB407FEFDCF31C08C8110
:1015C0008823A9F0E0915104F0915204309749F03A
:1015D000809126069091270609959093270680937F
:1015E0002606809137068F5F809337061AC0409891
:1015F0008FE78EBD0DB407FEFDCF1EBC0DB407FEF8
:10160000FDCF8EB5409A409888E08EBD0DB407FEA0
:10161000FDCF409A409888E08EBD0DB407FEFDCF07
:10162000409A2496F894DEBFCDBFDF91CF91FF9111
:10163000EF91BF91AF919F918F917F916F915F914A
:101640004F913F912F910F900FBE0F901F901895C3
:1016500080912106909122060E941D22409886E0EA
:101660008EBD0DB407FEFDCF409A8091210690916A
:1016700022060E94CB200895809121069091220697
:101680000E941D22409884E08EBD0DB407FEFDCF60
:10169000409A80912106909122060E94CB200895C5
:1016A00080912106909122060E941D22409886E09A
:1016B0008EBD0DB407FEFDCF409A409882E18EBDED
:1016C0000DB407FEFDCF85E08EBD0DB407FEFDCF46
:1016D0001EBC0DB407FEFDCF409A40988EE28EBD31
:1016E0000DB407FEFDCF1EBC0DB407FEFDCF1EBC22
:1016F0000DB407FEFDCF409A0E94D90880912106C3
:10170000909122060E94CB2008958091210690910D
:1017100022060E941D22409886E08EBD0DB407FE71
:10172000FDCF409A409882E18EBD0DB407FEFDCFFB
:1017300085E08EBD0DB407FEFDCF88E08EBD0DB4F3
:1017400007FEFDCF409A40988EE28EBD0DB407FE95
:10175000FDCF88E18EBD0DB407FEFDCF1EBC0DB4DC
:1017600007FEFDCF409A0E94D908809121069091F2
:1017700022060E94CB2008950F931F93082F80917B
:101780002106909122060E941D22112707FD109527
:10179000302F22272068409883E18EBD0DB407FECC
:1017A000FDCF832F99278EBD0DB407FEFDCF2EBD33
:1017B0000DB407FEFDCF409A80912106909122063C
:1017C0000E94CB201F910F910895CF93DF93CDB747
:1017D000DEB724970FB6F894DEBF0FBECDBF809161
:1017E0002106909122060E941D22679B34C210920E
:1017F0003206679B25C0319923C040988FE78EBD84
:101800000DB407FEFDCF1EBC0DB407FEFDCF8EB597
:10181000409A409888E08EBD0DB407FEFDCF409AF7
:10182000409888E08EBD0DB407FEFDCF409A8091B0
:101830002106909122060E94CB208FEF9FEF13C2CA
:1018400040988FE78EBD0DB407FEFDCF1EBC0DB4D2
:1018500007FEFDCF4EB5409A4F7719F540988FE7B8
:101860008EBD0DB407FEFDCF1EBC0DB407FEFDCF2F
:101870008EB5409A409888E08EBD0DB407FEFDCF2E
:10188000409A409888E08EBD0DB407FEFDCF409A87
:1018900080912106909122060E94CB208EEF9FEF2F
:1018A000E2C14C308CF0E0912606F0912706242FFF
:1018B000332727FD30952B5030408481992787FDB1
:1018C000909582179307F4F540988FE78EBD0DB47D
:1018D00007FEFDCF60E070E0242F332727FD309511
:1018E00006C01EBC0DB407FEFDCF6F5F7F4F862F75
:1018F00099278217930714F43199F3CF409A4098AF
:101900008FE78EBD0DB407FEFDCF1EBC0DB407FEE4
:10191000FDCF8EB5409A409888E08EBD0DB407FE8D
:10192000FDCF409A409888E08EBD0DB407FEFDCFF4
:10193000409A80912106909122060E94CB208DEF43
:101940009FEF91C1E0912606F09127064C5043830A
:1019500040988FE78EBD0DB407FEFDCFFE01319696
:101960009E012D5F3F4F1EBC0DB407FEFDCF8EB50F
:101970008193E217F307B9F7409AE0912606F091B8
:10198000270689819A8165E0969587956A95E1F7A2
:101990008170878340988FE78EBD0DB407FEFDCF21
:1019A0001EBC0DB407FEFDCFE0912606F091270680
:1019B0008EB58083409A40988FE78EBD0DB407FEA8
:1019C000FDCF80E007C01EBC0DB407FEFDCF8F5FCA
:1019D000843011F03199F7CF409A40988FE78EBD4F
:1019E0000DB407FEFDCF20E030E01EBC0DB407FEB5
:1019F000FDCFE0912606F0912706E20FF31F8EB58A
:101A000081832F5F3F4F2230310579F7409A8981DA
:101A10009A8183FF56C040988FE78EBD0DB407FEB4
:101A2000FDCFEDE1F6E01EBC0DB407FEFDCF8EB597
:101A3000819386E0E132F807B1F7409A409889E94E
:101A40008EBD0DB407FEFDCF80E88EBD0DB407FE40
:101A5000FDCF92E09150E92FFF27E35EF94F80819F
:101A60008EBD0DB407FEFDCF9923A1F7409A409893
:101A70008BE98EBD0DB407FEFDCF80E88EBD0DB4A1
:101A800007FEFDCF92E09150E92FFF27E15EF94F6D
:101A900080818EBD0DB407FEFDCF9923A1F7409A3A
:101AA00040988CE08EBD0DB407FEFDCF409A81E0DA
:101AB00080933206E0912606F091270683818450B8
:101AC000838340988FE78EBD0DB407FEFDCF40E0C5
:101AD00050E011C01EBC0DB407FEFDCFE0912606FC
:101AE000F09127060580F681E02DE60FF11D8EB5F9
:101AF00080834F5F5F4F642FE0912606F0912706A9
:101B0000242F33278381992787FD9095281739073C
:101B10000CF3409A40988FE78EBD0DB407FC0AC0C5
:101B2000FCCF0DB407FEFDCF5EB5409A40988FE71D
:101B30008EBD02C01EBCF5CF0DB407FEFDCFFE0169
:101B400033969E012B5F3F4F1EBC0DB407FEFDCFA9
:101B50008EB58193E217F307B9F7409AE091260614
:101B6000F09127068B81808740E020E030E00AC0BA
:101B7000E0912606F091270685819681A80FB91F6E
:101B80008C91480F822FE0912606F09127062F5F57
:101B90003F4FA82FBB278381992787FD9095A817D2
:101BA000B90734F3451719F140988FE78EBD0DB48E
:101BB00007FEFDCF1EBC0DB407FEFDCF8EB5409ACB
:101BC000409888E08EBD0DB407FEFDCF409A409846
:101BD00088E08EBD0DB407FEFDCF409A80912106AE
:101BE000909122060E94CB208CEF9FEF3CC08C810D
:101BF00087FF0EC0809137068F5F809337068091F4
:101C00002106909122060E94CB2081E090E02BC01B
:101C100040988FE78EBD0DB407FEFDCF1EBC0DB4FE
:101C200007FEFDCF8EB5409A409888E08EBD0DB47A
:101C300007FEFDCF409A409888E08EBD0DB407FEA8
:101C4000FDCF409A80912106909122060E94CB20E0
:101C50008BEF9FEF08C080912106909122060E9491
:101C6000CB2080E090E024960FB6F894DEBF0FBE44
:101C7000CDBFDF91CF9108958091210690912206EA
:101C80000E941D2210922E06409886E08EBD0DB453
:101C900007FEFDCF409A1092370680912106909161
:101CA00022060E94CB20EF98089580912106909102
:101CB00022060E941D2281E080932E06409883E038
:101CC0008EBD0DB407FEFDCF409A409888E08EBDD2
:101CD0000DB407FEFDCF409A109237068091210681
:101CE000909122060E94CB20089580912106909128
:101CF00022060E941D2281E080932E06409883E0F8
:101D00008EBD0DB407FEFDCF409A409888E08EBD91
:101D10000DB407FEFDCF409A109237068091210640
:101D2000909122060E94CB2080916A00806C809363
:101D30006A0080E88CBBEF9A08951F93182F80915A
:101D40002106909122060E941D22212F33272F71F8
:101D50003070206E306A409885E18EBD0DB407FE6C
:101D6000FDCF832F99278EBD0DB407FEFDCF2EBD6D
:101D70000DB407FEFDCF409A809121069091220676
:101D80000E94CB201F910895EF92FF920F931F9313
:101D9000CF93DF93CDB7DEB722970FB6F894DEBFAF
:101DA0000FBECDBF8C0180912106909122060E942A
:101DB0001D2250912306552339F040988DE08EBDA9
:101DC0000DB407FEFDCF409AF8014281642F7727BA
:101DD00067FD7095A0E020E030E008C0F801838145
:101DE0009481E80EF91EF7018081A80F822F2F5FE2
:101DF0003F4FE82EFF24E616F70684F3942F945FF6
:101E000051119C5F6799FECF4E99FCCFF894409892
:101E100089E08EBD0DB407FEFDCF409A409889E061
:101E20008EBD0DB407FEFDCF409A40988EE38EBD67
:101E30000DB407FC05C0FCCF0DB407FC30C1FCCFCE
:101E40009EBDFACF81E698E89A838983552329F0CD
:101E500089819A8188609A83898340988EE38EBDB8
:101E60000DB407FEFDCFFE0131969E012D5F3F4F61
:101E700080818EBD0DB407FEFDCF3196E217F307CA
:101E8000B9F7409A40988EE38EBD0DB407FC05C0AB
:101E9000FCCF0DB407FC0EC1FCCF809128068EBD8F
:101EA000F8CF0DB407FEFDCF20E030E0F901E65D8C
:101EB000F94F80818EBD0DB407FEFDCF2F5F3F4FE0
:101EC0002230310599F7409A40988EE38EBD0DB4CB
:101ED00007FEFDCF20E030E0F801E20FF31F808124
:101EE0008EBD0DB407FEFDCF2F5F3F4F2230310571
:101EF00099F7409A40988EE38EBD0DB407FEFDCF52
:101F000020E030E0F901E45DF94F80818EBD0DB431
:101F100007FEFDCF2F5F3F4F2230310599F7409AE2
:101F2000552399F040988EE38EBD0DB407FEFDCF8A
:101F3000E3E3F6E080818EBD0DB407FEFDCF319660
:101F400086E0E733F807B1F7409A40988EE38EBDFC
:101F50000DB407FEFDCF20E030E00DC0F801838115
:101F60009481480F591FFA0180818EBD0DB407FE80
:101F7000FDCF2F5F3F4F422F55274617570774F36A
:101F8000409A40988EE38EBD0DB407FC05C0FCCF8F
:101F90000DB407FC94C0FCCFAEBDFACF80912E06E5
:101FA000882339F4409883E08EBD0DB407FEFDCF41
:101FB000409A40981EBC0DB407FEFDCF8EB5409AE6
:101FC00081FFF7CF00E0409885E08EBD0DB407FE9D
:101FD000FDCF409A40981EBC0DB407FEFDCF1EB544
:101FE000409A0F5F053651F47894809121069091C4
:101FF00022060E94CB2080E090E068C084E690E05A
:102000000E94B61913FD08C0DECF409884E08EBD53
:102010000DB407FEFDCF409A78944E9BFECF4E99AB
:10202000FECF80913106882391F084EA92E00E94ED
:10203000B619319B0EC040988FE78EBD0DB407FED8
:10204000FDCF1EBC0DB407FEFDCF8EB5409A11E04A
:102050000FC0409888E08EBD0DB407FEFDCF409ABA
:10206000409888E08EBD0DB407FEFDCF409A10E089
:10207000F894409886E08EBD0DB407FEFDCF409ADF
:102080007894809128068F5F80932806809121069E
:10209000909122060E94CB20812F992717C0409A49
:1020A00081E498E89A83898380913106882309F036
:1020B000C9CECCCE409A40988EE38EBDF2CE409AE7
:1020C000F8018581882309F069CF9FCF22960FB64A
:1020D000F894DEBF0FBECDBFDF91CF911F910F915E
:1020E000FF90EF900895BF92CF92DF92EF92FF9210
:1020F0000F931F93CF93DF93CDB7DEB722970FB621
:10210000F894DEBF0FBECDBF8C016B017A018091C8
:102110002106909122060E941D220E947E2C40984A
:1021200088E08EBD0DB407FEFDCF409A409888E050
:102130008EBD0DB407FEFDCF409A6799FECF4E9934
:10214000FCCFF894409889E08EBD0DB407FEFDCF1A
:10215000409A409889E08EBD0DB407FEFDCF409AAD
:10216000F8016281462F552747FD5095BB2420E09A
:1021700030E007C0F80183819481A80FB91F8C91CA
:10218000B80E822F2F5F3F4FA82FBB27A417B5078C
:102190008CF3962F945F40988EE38EBD0DB407FCB0
:1021A00005C0FCCF0DB407FC16C1FCCF9EBDFACF15
:1021B00081E698E89A83898340988EE38EBD0DB4BA
:1021C00007FEFDCFFE0131969E012D5F3F4F8081BE
:1021D0008EBD0DB407FEFDCF3196E217F307B9F7B8
:1021E000409A40988EE38EBD0DB407FC05C0FCCF2D
:1021F0000DB407FCF9C0FCCF809128068EBDF8CF46
:102200000DB407FEFDCF20E030E0F901E65DF94FA7
:1022100080818EBD0DB407FEFDCF2F5F3F4F223072
:10222000310599F7409A40988EE38EBD0DB407FEB4
:10223000FDCF20E030E0F801E20FF31F80818EBD7A
:102240000DB407FEFDCF2F5F3F4F2230310599F7C8
:10225000409A40988EE38EBD0DB407FEFDCF20E07E
:1022600030E0F901E45DF94F80818EBD0DB407FEC9
:10227000FDCF2F5F3F4F2230310599F7409AB701CC
:10228000C6010E94032DF80185818823C1F1809148
:102290002E06882339F4409883E08EBD0DB407FEE6
:1022A000FDCF409A40981EBC0DB407FEFDCF8EB501
:1022B000409A81FFF7CFEE24409885E08EBD0DB4A3
:1022C00007FEFDCF409A40981EBC0DB407FEFDCF1F
:1022D000FEB4409AE394F5E6EF1651F478948091B9
:1022E0002106909122060E94CB2080E090E083C0DE
:1022F00084E690E00E94B619F3FC08C0DDCF409858
:1023000084E08EBD0DB407FEFDCF409A40988EE369
:102310008EBD0DB407FEFDCFF8018281482F5527F1
:1023200047FD509520E030E00CC0F8018381948196
:10233000A80FB91F8C918EBD0DB407FEFDCF2F5F86
:102340003F4FA22FBB27A417B5077CF3409A4098B4
:102350008EE38EBD0DB407FC05C0FCCF0DB407FCA9
:1023600048C0FCCFBEBCFACF4E9BFECFF8944E992E
:10237000FECF409888E08EBD0DB407FEFDCF409A99
:10238000409888E08EBD0DB407FEFDCF409A40987E
:1023900089E08EBD0DB407FEFDCF409A409889E0DC
:1023A0008EBD0DB407FEFDCF409A409886E08EBDED
:1023B0000DB407FEFDCF409A7894809128068F5F78
:1023C0008093280680912106909122060E94CB20BE
:1023D00081E090E010C0409AF8018681882309F0DE
:1023E000E7CE81E498E8E6CE409A40988EE38EBD31
:1023F00007CF409AB9CF22960FB6F894DEBF0FBE32
:10240000CDBFDF91CF911F910F91FF90EF90DF90A3
:10241000CF90BF900895CF93DF93CDB7DEB72297CB
:102420000FB6F894DEBF0FBECDBF9A838983909319
:102430002D0680932C0684EF91E00E94B82B4098E3
:102440008AEE8EBD0DB407FEFDCF80E88EBD0DB4C3
:1024500007FEFDCFFE0131969E012D5F3F4F80812B
:102460008EBD0DB407FEFDCF3196E217F307B9F725
:10247000409A84EF91E00E94B82B22960FB6F89410
:10248000DEBF0FBECDBFDF91CF9108956F927F92D7
:102490008F929F92AF92BF92CF92DF92EF92FF9274
:1024A0000F931F93CF93DF93CDB7DEB722970FB66D
:1024B000F894DEBF0FBECDBF8C0184E690E00E9491
:1024C000B82B7801C12C01E0D02E3E010894611C8C
:1024D000711C13E0812E912C8C0E9D1EF7018081C2
:1024E000218133279927982F8827282B392B3A8346
:1024F000298384E690E00E94B82B40988C2D806858
:102500008EBD0DB407FEFDCFC60195958795807CE5
:102510008EBD0DB407FEFDCF83015301F50180810F
:102520008EBD0DB407FEFDCF0894A11CB11CA814EC
:10253000B904A1F7409A0894E11CF11C82E090E0F4
:10254000C80ED91E90E1C91691E0D90639F684E685
:1025500090E00E94B82B20E131E040E451E01A8283
:1025600019824098842F80688EBD0DB407FEFDCF80
:10257000CA0195958795807C8EBD0DB407FEFDCF71
:10258000F80180818EBD0DB407FEFDCF3196EA15AE
:10259000FB05B9F7409A4098822F80688EBD0DB434
:1025A00007FEFDCFC90195958795807C8EBD0DB442
:1025B00007FEFDCFF80180818EBD0DB407FEFDCF73
:1025C0003196EA15FB05B9F7409A2E5F3F4F4E5FF3
:1025D0005F4FE1E02E313E0711F681E090E09A83F3
:1025E000898340988EEC8EBD0DB407FEFDCF80E848
:1025F0008EBD0DB407FEFDCFF80180818EBD0DB4F8
:1026000007FEFDCF3196EA15FB05B9F7409A4098D1
:102610008EE98EBD0DB407FEFDCF80E88EBD0DB4F2
:1026200007FEFDCFF80180818EBD0DB407FEFDCF02
:102630000F5F1F4F0A151B05A9F7409A22960FB688
:10264000F894DEBF0FBECDBFDF91CF911F910F91E8
:10265000FF90EF90DF90CF90BF90AF909F908F90C2
:102660007F906F900895F894409881E08EBD0DB4EE
:1026700007FEFDCF409A88EE93E00E94B82B789435
:1026800008951F93CF93DF93EC01162F80912106BD
:10269000909122060E941D22409888E08EBD0DB4C4
:1026A00007FEFDCF409A409888E08EBD0DB407FE2E
:1026B000FDCF409A812F0E947107D0932706C093C7
:1026C000260680912106909122060E94CB20DF9160
:1026D000CF911F9108951F93182F809121069091FB
:1026E00022060E941D22812F0E94710780912106DF
:1026F000909122060E94CB201F910895DF92EF92C5
:10270000FF920F931F93CF93DF93CDB7DEB722973E
:102710000FB6F894DEBF0FBECDBF8C01D62E5A8304
:10272000498379016AE081E00E945020909322065B
:1027300080932106892B31F40E949723682F8FE024
:102740000E94871E80912106909122060E941D22E0
:102750008F3F21F48CE192E00E945519159A88EE82
:1027600093E00E94B619169881E090E00E94B61995
:10277000169A84E690E00E94B619F894409881E099
:102780008EBD0DB407FEFDCF409A82EE92E090938D
:10279000250680932406409881E18EBD0DB407FE86
:1027A000FDCF82E08EBD0DB407FEFDCF82EE8EBD63
:1027B0000DB407FEFDCF409A409882E18EBD0DB466
:1027C00007FEFDCF85E08EBD0DB407FEFDCF1EBC1C
:1027D0000DB407FEFDCF409A40988CE18EBD0DB43C
:1027E00007FEFDCF1EBC0DB407FEFDCF8FE78EBDEB
:1027F0000DB407FEFDCF409A409889E18EBD0DB41F
:1028000007FEFDCF81E08EBD0DB407FEFDCF84EC49
:102810008EBD0DB407FEFDCF409A409887E18EBD76
:102820000DB407FEFDCF8AE18EBD0DB407FEFDCFCE
:1028300086E58EBD0DB407FEFDCF409A84EF91E092
:102840000E94B82B409888EE8EBD0DB407FEFDCFD8
:1028500080E88EBD0DB407FEFDCFFE0131969E01CE
:102860002D5F3F4F80818EBD0DB407FEFDCF3196A9
:10287000E217F307B9F7409A84EF91E00E94B82B72
:1028800078948D2D0E9471077894109327060093F9
:10289000260689819A8190932B0680932A06F092CE
:1028A0002D06E0922C061092280610922E060E9409
:1028B000900780912106909122060E94CB208F3FA5
:1028C00039F48FEE91E00E94551982E00E947B1C42
:1028D00010923106109223061092320622960FB6FD
:1028E000F894DEBF0FBECDBFDF91CF911F910F9146
:1028F000FF90EF90DF90089580911F020E94E814EE
:1029000080911E020E94E814089580911F020E9487
:10291000E81480911E020E946D15089520915304C1
:1029200080915404281781F0E22FFF27EB5AFB4FC8
:10293000E081822F8F5F80935304803111F41092D5
:1029400053048E2F992708958091C80087FFFCCFEC
:102950008091C8008F778093C8008091CE0099271E
:102960000895882351F48091C000992787FD9095A0
:102970008827990F881F99270895813019F080E0E2
:1029800090E0089520E030E0909153048091540449
:10299000981711F021E030E0C901089585B78061F2
:1029A00085BF86E084B985B981E087B988B98CE3B1
:1029B0008DB98BE08AB98EE38EB988E781B9169A12
:1029C00008950E94CE1480E58CBD81E08DBD0895F0
:1029D0008F3F09F47FC0482F55279A012770307028
:1029E00022303105A9F12330310544F42115310598
:1029F00089F02130310509F06DC01CC0243031054B
:102A000009F446C0243031059CF12530310509F028
:102A100061C04EC022B1A3E056954795AA95E1F753
:102A200081E090E002C0880F991F4A95E2F7282BB9
:102A300022B94DC085B1F3E056954795FA95E1F777
:102A400002C0220F331F4A95E2F7822B85B93FC09F
:102A500028B1E3E056954795EA95E1F781E090E0EB
:102A600002C0880F991F4A95E2F7282B28B92FC07A
:102A70002BB173E0569547957A95E1F781E090E0A8
:102A800002C0880F991F4A95E2F7282B2BB91FC067
:102A90002EB163E0569547956A95E1F781E090E0A5
:102AA00002C0880F991F4A95E2F7282B2EB90FC054
:102AB00021B333E0569547953A95E1F781E090E0F0
:102AC00002C0880F991F4A95E2F7282B21BB81E0AD
:102AD00090E008958FEF9FEF08958F3F09F486C02F
:102AE000482F55279A012770307022303105C1F1E7
:102AF0002330310544F42115310589F021303105A9
:102B000009F074C01DC02430310509F44BC02430D5
:102B10003105BCF12530310509F068C054C022B13F
:102B200073E0569547957A95E1F781E090E002C011
:102B3000880F991F4A95E2F78095822382B953C086
:102B400095B163E0569547956A95E1F702C0220F6B
:102B5000331F4A95E2F7822F8095892385B943C0B8
:102B600028B133E0569547953A95E1F781E090E03A
:102B700002C0880F991F4A95E2F78095822388B991
:102B800032C02BB193E0569547959A95E1F781E0D5
:102B900090E002C0880F991F4A95E2F78095822342
:102BA0008BB921C02EB183E0569547958A95E1F700
:102BB00081E090E002C0880F991F4A95E2F7809566
:102BC00082238EB910C021B3B3E056954795BA95CC
:102BD000E1F781E090E002C0880F991F4A95E2F783
:102BE0008095822381BB81E090E008958FEF9FEF75
:102BF00008958F3FA9F1282F3327C901877090705E
:102C000082309105A9F0833091052CF4009761F092
:102C1000019731F50BC08430910571F08430910536
:102C20004CF00597E9F40AC080B109C083B107C030
:102C300086B105C089B103C08CB101C08FB199279D
:102C4000E3E036952795EA95E1F702C095958795DB
:102C50002A95E2F7992787FD9095817090700895E5
:102C60008FEF9FEF08958F3F09F403C1282F33277B
:102C7000A901477050704230510509F45CC04330DF
:102C8000510544F44115510591F04130510509F0C9
:102C9000F0C034C04430510509F49BC044305105A4
:102CA0000CF470C04530510509F0E3C0B9C080B1E3
:102CB000A90173E0569547957A95E1F79927042E77
:102CC00002C0959587950A94E2F780FD0BC022B16A
:102CD00081E090E002C0880F991F4A95E2F7282B07
:102CE00022B9C4C022B181E090E002C0880F991FD0
:102CF0004A95E2F78095822382B9B8C083B163E038
:102D0000369527956A95E1F79927022E02C0959589
:102D100087950A94E2F702C0440F551F2A95E2F7FF
:102D200080FD03C085B1842B04C095B1842F8095AC
:102D3000892385B99BC086B1A90193E05695479533
:102D40009A95E1F79927042E02C0959587950A94E4
:102D5000E2F780FD0BC028B181E090E002C0880F4F
:102D6000991F4A95E2F7282B28B980C028B181E045
:102D700090E002C0880F991F4A95E2F78095822360
:102D800088B974C089B1A901B3E056954795BA9541
:102D9000E1F79927042E02C0959587950A94E2F7EA
:102DA00080FD0BC02BB181E090E002C0880F991F1D
:102DB0004A95E2F7282B2BB959C02BB181E090E05E
:102DC00002C0880F991F4A95E2F7809582238BB93C
:102DD0004DC08CB1A901A3E056954795AA95E1F79E
:102DE0009927042E02C0959587950A94E2F780FDF5
:102DF0000BC02EB181E090E002C0880F991F4A9568
:102E0000E2F7282B2EB932C02EB181E090E002C04B
:102E1000880F991F4A95E2F7809582238EB926C0C4
:102E20008FB1A901F3E056954795FA95E1F79927F7
:102E3000042E02C0959587950A94E2F780FD0BC099
:102E400021B381E090E002C0880F991F4A95E2F714
:102E5000282B21BB0BC021B381E090E002C0880F7A
:102E6000991F4A95E2F78095822381BB81E090E02B
:102E700008958FEF9FEF08958F3F09F41BC1482FEE
:102E80005527662309F099C0CA0187709070823077
:102E9000910509F43EC0833091053CF4009789F018
:102EA0008130910509F006C121C08430910509F4F3
:102EB0005AC0843091050CF441C0059709F0FAC05E
:102EC00067C031B1B3E056954795BA95E1F781E017
:102ED00090E002C0880F991F4A95E2F7282F2095AD
:102EE000232321B922B1822B82B9E1C024B1A3E00E
:102EF00056954795AA95E1F702C0880F991F4A9504
:102F0000E2F7982F8095822384B985B1982B95B9E3
:102F1000CEC037B1F3E056954795FA95E1F781E0D9
:102F200090E002C0880F991F4A95E2F7282F20955C
:102F3000232327B928B1822B88B9B9C03AB1E3E07D
:102F400056954795EA95E1F781E090E002C0880F39
:102F5000991F4A95E2F7282F209523232AB92BB1F0
:102F6000822B8BB9A4C03DB173E0569547957A95F5
:102F7000E1F781E090E002C0880F991F4A95E2F7DF
:102F8000282F209523232DB92EB1822B8EB98FC0E7
:102F900030B363E0569547956A95E1F781E090E09C
:102FA00002C0880F991F4A95E2F7282F2095232306
:102FB00020BB21B3822B81BB7AC09A01277030706D
:102FC00022303105A9F12330310544F421153105B2
:102FD00089F02130310509F06DC01CC02430310565
:102FE00009F446C0243031059CF12530310509F043
:102FF00061C04EC021B133E0569547953A95E1F74F
:1030000081E090E002C0880F991F4A95E2F7282BD3
:1030100021B94DC084B193E0569547959A95E1F753
:1030200002C0220F331F4A95E2F7822B84B93FC0BA
:1030300027B1B3E056954795BA95E1F781E090E066
:1030400002C0880F991F4A95E2F7282B27B92FC095
:103050002AB1A3E056954795AA95E1F781E090E063
:1030600002C0880F991F4A95E2F7282B2AB91FC082
:103070002DB1F3E056954795FA95E1F781E090E0A0
:1030800002C0880F991F4A95E2F7282B2DB90FC06F
:1030900020B3E3E056954795EA95E1F781E090E0AB
:1030A00002C0880F991F4A95E2F7282B20BB81E0C8
:1030B00090E008958FEF9FEF0895882319F08FEF28
:1030C0009FEF089580B1992787FD90958095909501
:1030D0008827990F881F99270895009711F484E194
:1030E00009C08130910511F48CE104C08230910552
:1030F00031F484E20E94331681E090E00895039752
:1031000019F08FEF9FEF08958CE20E94331681E053
:1031100090E00895009711F484E109C08130910591
:1031200011F48CE104C08230910531F484E20E94F4
:10313000E81481E090E00895039719F08FEF9FEF76
:1031400008958CE20E94E81481E090E008950097D1
:1031500011F484E109C08130910511F48CE104C0BF
:103160008230910531F484E20E946D1581E090E097
:103170000895039719F08FEF9FEF08958CE20E9456
:103180006D1581E090E00895882319F085B78F7E52
:1031900002C085B7806185BF81E090E00895982FD7
:1031A0008091C00085FFFCCF8091C0008F7D80930F
:1031B000C0009093C6000895982F8091C80085FFA5
:1031C000FCCF9093CE000895292F33272093C5007C
:1031D0008093C40086E08093C200E1ECF0E080813F
:1031E0008B7F8083A0ECB0E08C9182608C93808197
:1031F000886180830895292F33272093CD00809301
:10320000CC0086E08093CA00E9ECF0E080818B7FFF
:103210008083A8ECB0E08C9182608C93808188617F
:10322000808308958091C00087FFFCCF8091C0000B
:103230008F778093C0008091C600992708950E94DF
:10324000FB186EE874E18CED98E10E94433890938E
:10325000FF068093FE066EE874E18CED98E10E9413
:1032600043389093FD068093FC060E948E1F809346
:1032700065048F3F19F48EE00E948E1E1092530455
:10328000109254048091C90080688093C900089509
:10329000809165048F3F19F48EE00E948E1E80910C
:1032A0006504992787FD90950895CF93DF93EC01EE
:1032B00007C06091FE067091FF0699270E94913821
:1032C000FE01219684918823A1F7DF91CF91089583
:1032D0001F920F920FB60F9211242F933F934F938B
:1032E0005F936F937F938F939F93AF93BF93EF936E
:1032F000FF938091C9008F778093C9008091C800A7
:1033000087FFFCCF8091C8008F778093C800909191
:10331000CE0080915404E82FFF27EB5AFB4F908397
:103320008F5F80935404803111F410925404809183
:1033300065040E941F218091C8008F778093C80088
:103340008091C90080688093C900FF91EF91BF917F
:10335000AF919F918F917F916F915F914F913F912D
:103360002F910F900FBE0F901F9018950000000036
:10337000000000000197D1F70895FC01A7E0B0E03C
:103380000E94523B802D808381E090E00895FC01F3
:103390008081A7E0B0E0082E0E945A3B81E090E0D7
:1033A0000895DC010E94523B802D99270895FC016D
:1033B000A0E0B0E00E94523B402D4383A1E0B0E08A
:1033C0000E94523B802D8283A2E0B0E00E94523BDB
:1033D000302D3183A3E0B0E00E94523B902D9083CA
:1033E000A4E0B0E00E94523B202D830F840F890F90
:1033F000281719F481E090E008958FEF9FEF08956A
:10340000FC01A5E0B0E00E94523B802D808381E06A
:1034100090E00895FC01A6E0B0E00E94523B802DB0
:10342000808381E090E00895AC0120E030E0D90194
:1034300018960E94523B802DFA01E20FF31F808301
:103440002F5F3F4F2031310591F781E090E00895E3
:10345000DC01062E0E945A3B0895FC018081A6E003
:10346000B0E0082E0E945A3B81E090E00895AC0144
:1034700020E030E0D9011896FA01E20FF31F8081B5
:10348000082E0E945A3B2F5F3F4F2031310591F7A4
:1034900081E090E00895F89408957894089585E681
:1034A00090E008950E94B4290895EF92FF920F933F
:1034B0001F93CF93DF93EC018B017A0189858230D2
:1034C00021F08091C606888301C018828091C606CB
:1034D000843020F060E087E00E94871E898582307A
:1034E00029F08091C6068F5F8093C6068091C6063C
:1034F000882319F481E08093C6068881992787FD87
:103500009095FC0145E0EE0FFF1F4A95E1F7E80FAB
:10351000F91FE65CF94F118300838881992787FDA5
:103520009095FC0135E0EE0FFF1F3A95E1F7E80FAB
:10353000F91FE65CF94F888582878881992787FD86
:103540009095FC0125E0EE0FFF1F2A95E1F7E80FAB
:10355000F91FE65CF94F83E081872881822F992744
:1035600087FD9095FC0105E0EE0FFF1F0A95E1F73E
:10357000E80FF91FE65CF94F20878881992787FDBE
:103580009095FC0115E0EE0FFF1F1A95E1F7E80F8B
:10359000F91FE65CF94F15820881112707FD109588
:1035A000CE010B960E94FE26F801B5E0EE0FFF1F3C
:1035B000BA95E1F7E00FF11FE65CF94F948F838F26
:1035C0000881112707FD1095CE014B960E94FE261B
:1035D000F801A5E0EE0FFF1FAA95E1F7E00FF11F3C
:1035E000E65CF94F968B858B8881992787FD9095AE
:1035F000FC0175E0EE0FFF1F7A95E1F7E80FF91F68
:10360000E65CF94F85899689238D348D820F931F4F
:10361000908F878B0881112707FD1095CE01439667
:103620000E94FE26F80165E0EE0FFF1F6A95E1F7A4
:10363000E00FF11FE65CF94F968F858F88819927FF
:1036400087FD9095FC0155E0EE0FFF1F5A95E1F7BD
:10365000E80FF91FE65CF94F858D968D928F818F6B
:103660008881992787FD9095FC0145E0EE0FFF1FAB
:103670004A95E1F7E80FF91FE65CF94F81E090E029
:1036800090A3878F8881992787FD9095FC0135E06D
:10369000EE0FFF1F3A95E1F7E80FF91FE65CF94FCF
:1036A000F382E2828881992787FD9095FC0125E0CD
:1036B000EE0FFF1F2A95E1F7E80FF91FE65CF94FBF
:1036C00081E0848781E090E0DF91CF911F910F919D
:1036D000FF90EF9008958F929F92AF92BF92CF92FA
:1036E000DF92EF92FF920F931F93CF93DF9362E4E9
:1036F000A62E66E0B62ECC24DD244501EC2CF50187
:10370000F080FFEFFF1691F0E40100E010E0E0161A
:1037100039F08881F81621F46F2D85E00E94871E0C
:103720000F5F1F4FA1960430110589F70894C11C43
:10373000D11C81E290E0A80EB91E94E0C916D10414
:10374000E9F60E94AC22282F332727FD3095F90196
:1037500055E0EE0FFF1F5A95E1F7E20FF31FE65C0D
:10376000F94F32853093D90621E28202C00111243B
:10377000865C994F9093D8068093D7069093C9069C
:103780008093C8063093CA060E94C52F0E94AB2FB3
:103790000E94E92FFFCF0F931F93CF93DF93CDB7F5
:1037A000DEB7A3970FB6F894DEBF0FBECDBF0E9461
:1037B0008E1F8093C7068F3F21F460E08EE00E9449
:1037C000871E0E94842D082F112700FF04C060E08F
:1037D00086E00E94871E01FF04C060E084E10E9431
:1037E000871E02FF04C060E083E10E94871E1092E2
:1037F000CA061092D8061092D7061092C9061092E7
:10380000C8061092D9061092D6068FEF8093C00694
:103810008093C2068093C1068093C3068093C50639
:103820008093C406EAE3F6E083E682878FEF808721
:10383000B19626E0EE3BF207B9F7EAEDF6E0CF01EC
:10384000059694838383F783E683FC0126E08E3E0E
:103850009207A9F71092DC061092DB061092F2068E
:103860001092F1061092CD061092CC0644979093D8
:1038700039068093380660E979E28E010F5F1F4FA9
:10388000C8010E94692F40E850E067E975E0C8016F
:103890000E94CA2F85E58093970519861C861D8690
:1038A0001E861F86188A198A1A8A1B8A1C8A1D8AF4
:1038B0001E8A1F8A188E198E1A8E1B8E1C8E1D8EC4
:1038C0001E8E1F8E18A219A21AA21BA291E0988721
:1038D00082E08A879B87C8010E948925A3960FB63C
:1038E000F894DEBF0FBECDBFDF91CF911F910F9136
:1038F0000895F894FFCFE091D706F091D806848719
:103900000895E091D706F091D80684859927089507
:10391000DC01FB0180919605882319F480E090E09A
:1039200008958083809166048C9381E090E00895EF
:10393000CF93DF93CDB7DEB721970FB6F894DEBFF4
:103940000FBECDBF198207C080ED97E00E94B82B53
:1039500089818F5F898389818436B0F321960FB680
:10396000F894DEBF0FBECDBFDF91CF91089581E007
:1039700090E00E94A7180E94981C81E090E00E94AD
:103980008A180E94981C089581E090E00E94A71870
:103990000E94981C0E94981C0E94981C81E090E054
:1039A0000E948A180E94981C0895EF92FF920F932C
:1039B0001F93CF93DF93CDB7DEB723970FB6F8945D
:1039C000DEBF0FBECDBF99279F938F938FE392E009
:1039D0009F938F938E010F5F1F4F1F930F930E9432
:1039E0000F39EE24FF248DB79EB706960FB6F894D4
:1039F0009EBF0FBE8DBF73C0A00FB11F8C918433CB
:103A0000D1F1853370F48133F9F0823320F48033BF
:103A100009F05CC016C0823311F1833309F056C03F
:103A200023C08733C9F1883330F4853369F1863395
:103A300009F04CC02CC08833B1F1893309F046C07D
:103A40003BC00E94C41C02C00E94B71C0E94C41C40
:103A50000E94C41C0E94C41C0E94C41C37C00E9447
:103A6000B71C0E94B71CF4CF0E94B71C0E94B71C61
:103A70000E94B71CEFCF0E94B71C0E94B71C0E9487
:103A8000B71C0E94B71CE8CF0E94B71C02C00E945E
:103A9000C41C0E94B71C04C00E94C41C0E94C41C09
:103AA0000E94B71C06C00E94C41C0E94C41C0E9435
:103AB000C41C0E94B71C08C00E94C41C0E94C41CE5
:103AC0000E94C41C0E94C41C0E94B71C0E94981C27
:103AD0000E94981C0E94981C0894E11CF11CAE2DB9
:103AE000BB27F80101900020E9F73197E01BF10BAB
:103AF000AE17BF0708F480CF23960FB6F894DEBF49
:103B00000FBECDBFDF91CF911F910F91FF90EF902E
:103B100008952F923F924F925F926F927F928F9271
:103B20009F92AF92BF92CF92DF92EF92FF920F934C
:103B30001F93CF93DF9380919605882309F4D2C019
:103B40000E944B1A0E944B1A64E7262E63E0362E21
:103B500057E8452E53E0552E4AE9642E43E0742E73
:103B600032EB832E33E0932E28ECA22E23E0B22EEC
:103B700093EEC92E93E0D92E89EFE82E83E0F82E3C
:103B8000CDE0D4E088E394E00E945519809166046A
:103B900099279F938F938FE392E09F938F930E9437
:103BA000BE3884E394E00E9455190F900F900F9057
:103BB0000F9080919605873110F0109296058091B4
:103BC00096059927AA27BB27FC013197E531F10516
:103BD00008F03FC0EA59FF4FEE0FFF1F0590F49128
:103BE000E02D0994CE0137C0C70135C0C60133C0EE
:103BF000C50131C0C4012FC0C3012DC0C2012BC0FB
:103C0000C10129C086E593E026C081E393E023C08B
:103C100085E293E020C08AE093E01DC08BEF92E044
:103C20001AC087EE92E017C086ED92E014C082ECD5
:103C300092E011C082EA92E00EC08AE892E00BC0E6
:103C40008FE692E008C08EE592E005C08FE492E036
:103C500002C088E492E00E9455196091FE067091BE
:103C6000FF068DE090E00E9491386091FE06709111
:103C7000FF068AE090E00E94913800E082E090E048
:103C80000E94A71883E090E00E948A1810E088EE56
:103C900093E00E94B82B1F5F1436C9F783E090E0D1
:103CA0000E94A71882E090E00E948A1810E088EE37
:103CB00093E00E94B82B1F5F1436C9F70F5F0431E1
:103CC000E9F682E090E00E948A1883E090E00E948A
:103CD0008A18809166040E94D51C809196050E94E6
:103CE000D51C50CF80E090E0DF91CF911F910F91D4
:103CF000FF90EF90DF90CF90BF90AF909F908F900C
:103D00007F906F905F904F903F902F900895809399
:103D10009605609366040E94891D08958093960518
:103D2000E091D706F091D8068085809366040E94C2
:103D3000891D0895992787FD9095FC0125E0EE0FD8
:103D4000FF1F2A95E1F7E80FF91FE65CF94FA28102
:103D5000B3818C91853529F085E58C938FEF9FEFAA
:103D60000895808191818050924218F481E090E022
:103D7000089582E10E948E1E8FEF9FEF08956F924B
:103D80007F928F929F92AF92BF92CF92DF92EF92EB
:103D9000FF920F931F93CF93DF9384E494E00E94EC
:103DA0005519E091D706F091D8068085992787FDAF
:103DB00090959F938F9382E492E09F938F930E94BC
:103DC000BE38E091D706F091D806028113811F9387
:103DD0000F938BE492E09F938F930E94BE38F8017B
:103DE000808199279F938F9358E5C52E52E0D52E59
:103DF000DF92CF920E94BE38E091D706F091D806AC
:103E0000808191819F938F9345E6E42E42E0F42ECA
:103E1000FF92EF920E94BE388091D7069091D8060B
:103E20009F938F930FE612E01F930F930E94BE386B
:103E3000CAE3D6E0AA24BB248DB79EB744960FB63A
:103E4000F8949EBF0FBE8DBF3FE7632E32E0732E06
:103E50004601670178010A811B811F930F93BF926E
:103E6000AF927F926F920E94BE38F80180819927AD
:103E70009F938F939F928F920E94BE3888819981E1
:103E80009F938F93DF92CF920E94BE38DF93CF93A0
:103E9000FF92EF920E94BE380894A11CB11CA1961B
:103EA0008DB79EB742960FB6F8949EBF0FBE8DBFDA
:103EB00094E0A916B10479F6DF91CF911F910F918B
:103EC000FF90EF90DF90CF90BF90AF909F908F903A
:103ED0007F906F900895CF93DF93E091D706F09194
:103EE000D806C281D3818881853539F00E94BF1EF2
:103EF00081E00E948E1E85E58883E091D706F091CF
:103F0000D806808191818050924228F00E94BF1E85
:103F100082E10E948E1EDF91CF9108954091EF04BF
:103F20005091F0046091F1047091F20420E030E0CF
:103F3000DB01CA01022E04C0B695A7959795879517
:103F40000A94D2F781709070892BE9F481E090E0B7
:103F5000A0E0B0E0022E04C0880F991FAA1FBB1F6B
:103F60000A94D2F7842B952BA62BB72B8093EF04C2
:103F70009093F004A093F104B093F204822F992758
:103F800087FD909508952F5F3F4F2032310581F6D0
:103F90008FEF9FEF0895E091D706F091D8066585E1
:103FA0007685878590890895EF92FF920F931F93EE
:103FB00021E030E040E050E004C0220F331F441FF6
:103FC000551F8A95D2F7E091D706F091D806E5847F
:103FD000F68407851089DA01C9018E219F21A0236B
:103FE000B1230097A105B10519F48FEF9FEF1AC017
:103FF0002095309540955095E222F3220423152315
:10400000E586F6860787108B81899289A389B48912
:1040100082239323A423B523818B928BA38BB48B10
:1040200081E090E01F910F91FF90EF900895682F2D
:10403000772767FD70958091EF049091F004A0912F
:10404000F104B091F204062E04C0B695A795979599
:1040500087950A94D2F781709070892B19F48FEFAD
:104060009FEF0895E091D706F091D80621E030E067
:1040700040E050E004C0220F331F441F551F6A95D3
:10408000D2F785859685A785B089822B932BA42BA3
:10409000B52B85879687A787B08B81E090E0089540
:1040A000382F8091D606882319F080E090E008959B
:1040B0008091C0068F3F11F420E007C08091C306B5
:1040C0008F3F11F022E001C021E0822F9927FC01EF
:1040D000EE0FFF1FE80FF91FE054F94F32833083D2
:1040E000618381E08093D60683E0289FC00111247C
:1040F0008054994F089526E0803C920711F480E0A7
:1041000007C0835C964019F08FEF9FEF089581E020
:10411000992787FD909508950E947B208F3F11F489
:1041200081E002C0823029F40E947B1C8FEF9FEF58
:104130000895992787FD9095FC01EE0FFF1FE80F6A
:10414000F91FE054F94F8FEF808382838183809140
:10415000D60681508093D60681E090E008950E94B3
:104160007B208F3F11F481E002C0823029F40E944D
:104170007B1C8FEF9FEF0895992787FD9095FC0199
:10418000EE0FFF1FE80FF91FE054F94F82819927C6
:1041900087FD909508951F93CF93DF930E947B2016
:1041A000182F8F3F11F481E003C0823031F482E098
:1041B0000E947B1C8FEF9FEF3EC0992787FD909553
:1041C000EC01CC0FDD1FC80FD91FC054D94F9A8105
:1041D0008881981774F50E944B1A8A818F5F8A83B1
:1041E000E091D706F091D8061482E1E4F6E0212FA1
:1041F000332727FD3095432F532F8081823091F450
:1042000082859385A485B58582179307A407B50792
:1042100049F483E0828317861686108212861386FD
:1042200014861586B19686E0E53CF80731F70E94C2
:104230004D1A81E090E0DF91CF911F910895DF92B8
:10424000EF92FF920F931F93E1E0EE2EF12C012DE0
:10425000112D04C0EE0CFF1C001F111F8A95D2F710
:104260008091EF049091F004A091F104B091F204D8
:104270008E219F21A023B1230097A105B10511F440
:1042800081E043C00E944B1AE1E4F6E0DD24808126
:104290008130B9F482859385A485B5858E219F21CF
:1042A000A023B1230097A105B10559F083E08283D3
:1042B000178616861082E286F38604871587DD242A
:1042C000D39480818230A1F482859385A485B585BD
:1042D0008E159F05A007B10759F483E082831786E6
:1042E000168610821286138614861586DD24D394D2
:1042F000B19686E0E53CF80751F60E944D1ADD20A4
:1043000019F081E090E005C082E00E947B1C8FEFF5
:104310009FEF1F910F91FF90EF90DF900895EF9224
:10432000FF920F931F93CF93DF93C82FDD27C7FD15
:10433000D095F1E0EF2EF12C012D112D0C2E04C0A3
:10434000EE0CFF1C001F111F0A94D2F78091EF049E
:104350009091F004A091F104B091F2048E219F217C
:10436000A023B1230097A105B10519F48FEF9FEFAA
:104370005DC00E944B1AEAE3F6E0A8019701209580
:1043800030954095509580858F3F41F18585968584
:10439000A785B0898E159F05A007B10739F4118A4A
:1043A000128A138A148A178283E08187858596850D
:1043B000A785B08982239323A423B5238587968775
:1043C000A787B08B81899289A389B489822393239B
:1043D000A423B523818B928BA38BB48BB19686E0FB
:1043E000EE3BF80781F62EEF3FEF4FEF5FEF04C093
:1043F000220F331F441F551FCA95D2F78091EF0437
:104400009091F004A091F104B091F20482239323DF
:10441000A423B5238093EF049093F004A093F104B8
:10442000B093F2040E944D1A81E090E0DF91CF91A9
:104430001F910F91FF90EF9008951F93CF93DF93FB
:104440000E947B20182F8F3F11F481E003C082303F
:1044500031F482E00E947B1C8FEF9FEF3EC00E94F0
:104460004B1A812F992787FD9095EC01CC0FDD1F0A
:10447000C80FD91FC054D94F8A818823D9F4E0913D
:10448000D706F091D806878182608783E091D706AE
:10449000F091D806812F992787FD9095A92FB92FE4
:1044A000818B928BA38BB48B0E944D1A80E090E09D
:1044B0000E94B6248A8181508A83E091D706F091C8
:1044C000D80689818387E091D706F091D80681E0EC
:1044D00084830E944D1A81E090E0DF91CF911F917B
:1044E00008959B01AC01E091D706F091D80685852F
:1044F0009685A785B08982239323A423B5230097AB
:10450000A105B10529F460E070E080E090E0089535
:10451000218B328B438B548B81E087830090C706BD
:1045200004C056954795379527950A94D2F7C90147
:1045300081709070892B19F00E94572404C080E08C
:1045400090E00E94B624E091D706F091D8066189E8
:104550007289838994890895E091CC06F091CD0603
:10456000808199270895E091CC06F091CD0603C093
:104570000380F481E02D3097D9F70895CF93DF932E
:10458000482FC0913806D0913906209709F47AC097
:10459000A091CC06B091CD061097B9F1992787FD6F
:1045A00090959C0165E0220F331F6A95E1F7280F73
:1045B000391F265C394F8C919927BC0155E0660F55
:1045C000771F5A95E1F7680F791F665C794FFB01F9
:1045D0008481882329F09385F90182859817A8F0B2
:1045E000F9018481882331F0FB019285F9018385EB
:1045F000981758F0FB019285F9018285981728F0E9
:10460000FD01A381B4811097B1F64883E09138068B
:10461000F09139062381348130933906209338068E
:104620008091CC069091CD06A817B907A1F41097F8
:1046300031F0BC83AB831A821982FD0105C01C8254
:104640001B821A821982F901D283C183D093CD06CD
:10465000C093CC0617C0FD0181819281A217B307D8
:1046600051F09A838983BC83AB8381819281FC0161
:10467000D483C38304C01C821B829A838983FD0177
:10468000D283C183DF91CF910895CF93DF93A0911F
:10469000CC06B091CD06109709F446C0482F552797
:1046A00047FD50958C9199278417950769F4ED0182
:1046B000EB81FC81F093CD06E093CC06128211824F
:1046C00016C0D901232B81F18C919927FD012381FB
:1046D000348184179507A9F7C181D2813C832B834C
:1046E00083819481009719F0FC01D283C183E0910A
:1046F0003806F0913906309741F4B0933906A0930B
:104700003806ED011C821B8209C0ED01FC83EB839E
:10471000B283A183B0933906A0933806E09138069E
:10472000F091390612821182DF91CF910895E091C4
:10473000D706F091D8068085992708950E945E2FAC
:10474000E091D706F091D80685818823B9F70895BE
:10475000FF920F931F93CF93DF93CDB7DEB72897C8
:104760000FB6F894DEBF0FBECDBF29833A834B83CB
:104770005C836D837E838F8398870E946B1F0E946A
:104780004B1AE091D706F091D80681E0858381E04D
:1047900090E090A3878F0E947E2CF82ECE01019688
:1047A0000E94FE26E091D706F091D8060F2D112722
:1047B000800F911F968B858B87EF8F1570F00E946D
:1047C0000A2C0E5F1F4F99278017910734F08F2D09
:1047D0008E5F80931C060E940F2C0E944D1A0E942F
:1047E0009E2381E090E028960FB6F894DEBF0FBEBE
:1047F000CDBFDF91CF911F910F91FF9008958F92C0
:104800009F92AF92BF92CF92DF92EF92FF920F935F
:104810001F93CF93DF93CDB7DEB760970FB6F894B1
:10482000DEBF0FBECDBF29873A874B875C876D8778
:104830007E878F87988BCE0101960E9435298980CB
:104840009A80AB80BC80CD80DE80EF80F8840985C3
:104850001A852B853C854D855E856F857889CE01CF
:1048600009960E94DF258F3F19F48FEF9FEF0CC050
:1048700029853A854B855C856D857E858F859889F0
:104880000E94A82381E090E060960FB6F894DEBF06
:104890000FBECDBFDF91CF911F910F91FF90EF9091
:1048A000DF90CF90BF90AF909F908F9008951F930F
:1048B0000E944B1AE091D706F091D80681E08583DB
:1048C00086830E947E2C182F883F80F40E940A2C39
:1048D000212F33272E5F3F4F99278217930734F0FC
:1048E000812F8E5F80931C060E940F2C0E944D1A10
:1048F0000E949E2381E090E01F9108951F93CF9323
:10490000DF93CDB7DEB728970FB6F894DEBF0FBEA2
:10491000CDBF29833A834B835C836D837E838F83F2
:1049200098870E944B1A0E947E2C182FCE01019668
:104930000E94FE268330910518F48FEF9FEF0CC084
:10494000E091D706F091D806810F911D968B858B4B
:104950000E944D1A81E090E028960FB6F894DEBFD1
:104960000FBECDBFDF91CF911F9108950F931F937D
:104970008C010E944B1AE091D706F091D80681E095
:104980008583168B058B0E947E2C082F883F80F430
:104990000E940A2C202F33272E5F3F4F9927821722
:1049A000930734F0802F8E5F80931C060E940F2C9B
:1049B0000E944D1A0E949E2381E090E01F910F916A
:1049C0000895FF920F931F93CF93DF938C010E9462
:1049D0004B1AE091D706F091D80681E085830E94BA
:1049E0007E2CF82EE091D706F091D806C82FDD274F
:1049F0000C0F1D1F168B058B87EF8F1568F00E941B
:104A00000A2C229699278C179D0734F08F2D8E5FE4
:104A100080931C060E940F2C0E944D1A0E949E2318
:104A200081E090E0DF91CF911F910F91FF90089569
:104A30001F93CF93DF93EC010E946B1F209711F41B
:104A4000C1E0D0E00E944B1AE091D706F091D80661
:104A500081E08583D0A3C78F0E947E2C182F883FCA
:104A600080F40E940A2C212F33272E5F3F4F992775
:104A70008217930734F0812F8E5F80931C060E946B
:104A80000F2C0E944D1A0E949E2381E090E0DF913E
:104A9000CF911F9108951F930E946B1F0E944B1A84
:104AA000E091D706F091D80681E090E090A3878F3F
:104AB00081E085830E947E2C182F883F80F40E941D
:104AC0000A2C212F33272E5F3F4F992782179307F8
:104AD00034F0812F8E5F80931C060E940F2C0E9461
:104AE0004D1A0E949E2381E090E01F910895E0916D
:104AF000D706F091D80680850E944523E091D7061D
:104B0000F091D80684E081870E944B2581E090E0F7
:104B10000895EF92FF920F931F93CF93DF93EC01D1
:104B20004B815C8169817A818D819E810E946D2F8C
:104B3000BC018F81882369F04B815C81EE24FF24C6
:104B400000E010E020E030E0CE010E94551A1F8204
:104B500016C08881992787FD9095FC01A5E0EE0F8E
:104B6000FF1FAA95E1F7E80FF91FE65CF94F818571
:104B7000833019F08FEF9FEF1BC0718360838881B2
:104B8000992787FD9095FC0175E0EE0FFF1F7A9540
:104B9000E1F7E80FF91FE65CF94F85899689892BC3
:104BA00029F482E0818788810E94BE2281E090E022
:104BB000DF91CF911F910F91FF90EF9008958F9209
:104BC0009F92AF92BF92CF92DF92EF92FF920F939C
:104BD0001F93CF93DF93CDB7DEB760970FB6F894EE
:104BE000DEBF0FBECDBFFC0109831A832B833C833C
:104BF0004D835E836F83788789869A86AB86BC8671
:104C0000CD86DE86EF86F88A2D813E814F815885DC
:104C100089819A81AB81BC81AD84BE84CF84D888E0
:104C2000E984FA840B851C858E159F05A007B107C2
:104C300008F43FC0E816F9060A071B0791F42A1585
:104C40003B054C055D05A8F12A193B094C095D0996
:104C50002483358346835783108211821282138204
:104C60001CC02A153B054C055D05D0F40197A10930
:104C7000B1098E199F09A00BB10B80839183A28388
:104C8000B383205036434546544C2A193B094C09FE
:104C90005D09248335834683578381E090E00BC010
:104CA0008E199F09A00BB10B80839183A283B383DC
:104CB000ECCF8FEF9FEF60960FB6F894DEBF0FBE7C
:104CC000CDBFDF91CF911F910F91FF90EF90DF90BB
:104CD000CF90BF90AF909F908F900895FC0113C02C
:104CE00080509A4CAA49BB4384839583A683B7839B
:104CF00080819181A281B3810196A11DB11D808324
:104D00009183A283B38384819581A681B78180300A
:104D10002AEC92072AE9A2072BE3B20708F70895C5
:104D20008F929F92AF92BF92CF92DF92EF92FF92BB
:104D30000F931F93CF93DF93CDB7DEB760970FB676
:104D4000F894DEBF0FBECDBFFC0109831A832B830D
:104D50003C834D835E836F83788789869A86AB8692
:104D6000BC86CD86DE86EF86F88AAD80BE80CF8099
:104D7000D884ED84FE840F85188989859A85AB8552
:104D8000BC8529813A814B815C81820F931FA41FCE
:104D9000B51F80839183A283B383EA0CFB1C0C1D97
:104DA0001D1DE482F58206831783CF010E946E26C3
:104DB00081E090E060960FB6F894DEBF0FBECDBFE5
:104DC000DF91CF911F910F91FF90EF90DF90CF90E7
:104DD000BF90AF909F908F9008956093CE06709390
:104DE000CF068093D0069093D1062093D2063093BD
:104DF000D3064093D4065093D50608952F923F9240
:104E00004F925F926F927F928F929F92AF92BF92DA
:104E1000CF92DF92EF92FF920F931F93CF93DF9386
:104E2000CDB7DEB728970FB6F894DEBF0FBECDBF63
:104E3000FC01C080D180E280F3806481758186812D
:104E40009781C114D104E104F10409F4A6C022E45D
:104E5000C216D104E104F10418F080E090E0A4C08F
:104E60001B012C016624772488249924AA24BB24BE
:104E70006EC019828AEC8A83EAE9EB83FBE3FC8348
:104E80001D821E821F82188600E0020D81E002153D
:104E900008F080E01A81130DA1E0131508F0A0E0DE
:104EA000810F91E0811708F090E0A92B182F2B813A
:104EB000240DB1E0241508F0B0E08A2F820F91E0B4
:104EC000821708F090E0B92B282F3C81350DA1E026
:104ED000351508F0A0E08B2F830F91E0831708F0C1
:104EE00090E0A92B382F4D81460DB1E0461508F012
:104EF000B0E08A2F840F91E0841708F090E0B92B7E
:104F0000482F5E81570DA1E0571508F0A0E08B2FC8
:104F1000850F91E0851708F090E0A92B582F6F813D
:104F2000680DF1E0681508F0F0E09A2F960F81E027
:104F3000961708F080E08F2B7885790D870F202E4B
:104F4000312E422E532E642E752E892E982E8A2DA8
:104F50009927AA27BB270894A11CB11C8C159D0575
:104F6000AE05BF0508F485CF23EBA22E96EEB92E31
:104F70008EE0C82EDD24EE24FF2400E010E0222D78
:104F8000332D442D552D662D772D882D992D0E947A
:104F90004431A22EB32EC50107C023EB36EE4EE0FE
:104FA00050E00E94F93AC90128960FB6F894DEBF86
:104FB0000FBECDBFDF91CF911F910F91FF90EF906A
:104FC000DF90CF90BF90AF909F908F907F906F9029
:104FD0005F904F903F902F9008952F923F924F9265
:104FE0005F926F927F928F929F92AF92BF92CF9279
:104FF000DF92EF92FF920F931F93CF93DF93CDB782
:10500000DEB728970FB6F894DEBF0FBECDBF7B0189
:105010008C0173708070907023EB36EE4EE050E0A0
:105020000E94B33A6D837E838F8398873AE016950A
:105030000795F794E7943A95D1F7E982FA820B83C2
:105040001C83988529803A804B805C806D807E80AF
:105050008F80222D332D442D552D662D772D882DB3
:1050600028960FB6F894DEBF0FBECDBFDF91CF916B
:105070001F910F91FF90EF90DF90CF90BF90AF9076
:105080009F908F907F906F905F904F903F902F9068
:1050900008952F923F924F925F926F927F928F92DC
:1050A0009F92AF92BF92CF92DF92EF92FF920F93B7
:1050B0001F93CF93DF93CDB7DEB728970FB6F89441
:1050C000DEBF0FBECDBFFC01C080D180E280F38087
:1050D000C114D104E104F10409F4A2C02480358094
:1050E000468057806624772488249924AA24BB24E8
:1050F0006EC019828AEC8A83EAE9EB83FBE3FC83C6
:105100001D821E821F82188600E0020D81E00215BA
:1051100008F080E01A81130DA1E0131508F0A0E05B
:10512000810F91E0811708F090E0A92B182F2B81B7
:10513000240DB1E0241508F0B0E08A2F820F91E031
:10514000821708F090E0B92B282F3C81350DA1E0A3
:10515000351508F0A0E08B2F830F91E0831708F03E
:1051600090E0A92B382F4D81460DB1E0461508F08F
:10517000B0E08A2F840F91E0841708F090E0B92BFB
:10518000482F5E81570DA1E0571508F0A0E08B2F46
:10519000850F91E0851708F090E0A92B582F6F81BB
:1051A000680DF1E0681508F0F0E09A2F960F81E0A5
:1051B000961708F080E08F2B7885790D870F202EC9
:1051C000312E422E532E642E752E892E982E8A2D26
:1051D0009927AA27BB270894A11CB11C8C159D05F3
:1051E000AE05BF0508F485CF63EBA62E56EEB52EAF
:1051F0004EE0C42EDD24EE24FF2400E010E0222D3A
:10520000332D442D552D662D772D882D992D0E94F7
:105210004431A22EB32EC42ED52EA60195010AC06C
:10522000648175818681978123EB36EE4EE050E0F4
:105230000E94F93ACA01B90128960FB6F894DEBF68
:105240000FBECDBFDF91CF911F910F91FF90EF90D7
:10525000DF90CF90BF90AF909F908F907F906F9096
:105260005F904F903F902F900895EF92FF920F9391
:105270001F93CF93DF93EC018091CE069091CF06E0
:10528000A091D006B091D10688839983AA83BB836D
:10529000E090D206F090D3060091D4061091D50686
:1052A000EC82FD820E831F830E947E2C9927AA2701
:1052B000BB27BC01CD0123EB36EE4EE050E00E944F
:1052C000B33AE60EF71E081F191FEC82FD820E830B
:1052D0001F8313C080509A4CAA49BB438C839D8383
:1052E000AE83BF8388819981AA81BB810196A11D6C
:1052F000B11D88839983AA83BB838C819D81AE81F4
:10530000BF8180302AEC92072AE9A2072BE3B2077B
:1053100008F7DF91CF911F910F91FF90EF900895C3
:105320000E946B1F0E940A2C8B3030F481E0809326
:10533000CB060E945E2F09C08AE090E00E94B82B45
:1053400082E08093CB060E94522F8091970585358D
:1053500019F088E00E948E1E80917E21853501F330
:1053600088E00E948E1EDCCF8F929F92AF92BF92F8
:10537000CF92DF92EF92FF920F931F93CF93DF9321
:105380000E944B1A0E94C62B0E94CE2B4C018AEF22
:105390000E940F2C60911C0677278827992723EB02
:1053A00036EE4EE050E00E94B33A7B018C018091D2
:1053B000D2069091D306A091D406B091D506E80EFE
:1053C000F91E0A1F1B1FC801B7010E94F93AA80164
:1053D0009701261B370B480B590B8091CE069091F5
:1053E000CF06A091D006B091D1061BC0E12C66E398
:1053F000F62E65E6062F64EC162FE20EF31E041F50
:10540000151FC801B70123EB36EE4EE050E00E94B5
:10541000F93AA8019701261B370B480B590BD60107
:10542000C5015C016D010894A11CB11CC11CD11CFB
:1054300020306AEC36076AE946076BE35607B0F698
:105440008093CE069093CF06A093D006B093D1065A
:105450002093D2063093D3064093D4065093D506BA
:10546000E091D706F091D8068581882319F18185CE
:10547000843001F18781823029F0882341F08681D0
:10548000882311F485E001C083E081870CC083E0AC
:105490008187E091D706F091D8061782E091D70670
:1054A000F091D8061682E091D706F091D806808553
:1054B0000E944523E091D706F091D806858D968D00
:1054C000892B91F16085662379F18185843061F1C2
:1054D000218D328D80911C0699272817390750F4A9
:1054E00082E00E94871EE091D706F091D806128EC6
:1054F000118E04C0281B390B328F218FE091D70603
:10550000F091D8061085818D928D892B69F4612FD9
:1055100083E00E94871EE091D706F091D80683E0D1
:105520008187812F0E944523CAE3D6E000E61AEE68
:10553000CC24DD24EC2D88858F3F09F494C01D8296
:10554000882391F18985843079F12D893E89809174
:105550001C0699272817390728F0281B390B3E8B82
:105560002D8B02C01E8A1D8A2F89388D2817390776
:1055700028F0281B390B388F2F8B0EC06B8D7C8D3C
:105580008617970728F4681B790B788F6F8B04C0F8
:105590000E94D23A988F8F8B8F89988D892B21F416
:1055A0008B8D9C8D988F8F8B8985833009F05BC0A4
:1055B0008D899E89892B09F04EC08F818823A1F0A7
:1055C0008E81882389F081E090E0A0E0B0E0009037
:1055D000C70604C0880F991FAA1FBB1F0A94D2F7E1
:1055E000898B9A8BAB8BBC8B1F821E821D828F8D09
:1055F00098A14B8D5C8D2D8D3E8D8130910591F460
:105600003A8F298F82E089878F89988D9E8B8D8B29
:10561000452B21F48AEF90E09E8B8D8B8E2F0E947C
:10562000BE2219C03A8F298F01979C01249FC00187
:10563000259F900D349F900D11249E8B8D8B988FFC
:105640008F8B452B21F48AEF90E09E8B8D8B81E030
:1056500090E098A38F8F8D899E89009721F0801705
:10566000910708F48C010894C11CD11CA19634E068
:10567000C316D10409F05ECF0E94AC22E82E992710
:1056800087FD9095FC0125E0EE0FFF1F2A95E1F7BD
:10569000E80FF91FE65CF94F42854093D90681E295
:1056A0006E2D680290011124265C394F3093C90693
:1056B0002093C806EE2091F0858D968D892B51F0B0
:1056C000818D928D8A3F910528F480179107E0F42F
:1056D0008C011AC00B3F1105B8F014C00B30110536
:1056E00098F0C8010A978A3F910530F48C01099718
:1056F00058F409E010E008C00550114018F400EF1C
:1057000010E002C00AEF10E04093CA063093D806BA
:105710002093D70600931C060E947E2C99270196A1
:105720008017910740F00E947E2C082F11270E5FF2
:105730001F4F00931C06EE2011F01092CB06802F15
:105740000E940F2C6EEE72E0C4010E94032D0E9495
:10575000BC2F0E94E92FDF91CF911F910F91FF90F5
:10576000EF90DF90CF90BF90AF909F908F90089573
:1057700000000000000000000197D1F7089510928A
:105780008100089581E080938100089583B5816050
:1057900083BD10928500109284000895CF93DF930B
:1057A000CDB7DEB722970FB6F894DEBF0FBECDBFE0
:1057B00080918400909185009A83898389819A8160
:1057C00022960FB6F894DEBF0FBECDBFDF91CF910A
:1057D00008951092B100E0E7F0E080818D7F808332
:1057E00080818E7F808308958093B2000895E0E7E2
:1057F000F0E080818360808383E08093B10008952E
:1058000083B5826083BD1092B20010921A06109286
:105810001C0608958091B3008F5F992708958150E9
:105820008093B3000895882311F4109271008FEFD4
:105830009FEF0895882319F08FEF9FEF089510923E
:1058400095001092940081E090E00895882319F06B
:1058500080E090E0089580919400909195000895E3
:10586000882319F08FEF9FEF089582E080937100F5
:1058700081E090E00895882319F08FEF9FEF08955D
:10588000CB010197059710F460931B0610929000CE
:1058900088E080939100852F992780939900409309
:1058A0009800309319062093180680911B068130CA
:1058B00021F48091910081600BC0823021F48091AD
:1058C0009100826005C0833031F480919100836043
:1058D0008093910008C0843021F48091910084600D
:1058E000F7CF853019F081E090E008958091910024
:1058F00085608093910081E090E008958091B200EE
:10590000992708950F920FB60F921F922F923F92F0
:105910004F925F926F927F928F929F92AF92BF92BF
:10592000CF92DF92EF92FF920F931F932F933F93AB
:105930004F935F936F937F938F939F93AF93BF9397
:10594000CF93DF93EF93FF93A091D706B091D80642
:105950000DB60D920EB60D921F92A0916805B091F2
:1059600069051E90BEBFADBF08951F920F920FB67E
:105970000F9211240F900FBE0F901F9018951F9239
:105980000F920FB60F9211242F933F934F935F9373
:105990006F937F938F939F93AF93BF93EF93FF93F7
:1059A000E0911806F0911906309711F0099504C09E
:1059B00060E08AE00E94871EFF91EF91BF91AF9156
:1059C0009F918F917F916F915F914F913F912F9117
:1059D0000F900FBE0F901F9018951F920F920FB649
:1059E0000F9211242F933F934F935F936F937F9365
:1059F0008F939F93AF93BF93EF93FF9360E08AE001
:105A00000E94871EFFCFCF93DF93CDB7DEB72297DB
:105A10000FB6F894DEBF0FBECDBFFC018FEFE937A4
:105A2000F80710F0E0E0F0E09F0144275527CB0194
:105A3000AA27BB27280F391F4A1F5B1F213080E090
:105A4000380781E0480780E0580778F080918400AB
:105A5000909185009A83898389819A81E817F90753
:105A6000A8F32050304041405040809184009091F4
:105A700085009A83898389819A8182179307A8F385
:105A800022960FB6F894DEBF0FBECDBFDF91CF9147
:105A90000895EF92FF921F939EEF90931C0680E271
:105AA0008093B6009093B30013E017BB82E080931D
:105AB000B00091EBE92EF12CF701108383B58260E1
:105AC00083BD17BB14BD83B5826083BD1092800077
:105AD00081E080938100109285001092840083B54C
